:020000040800F2
:100000005008002001010008AF2300084B1E000823
:10001000AD230008F50200083D290008000000009B
:100020000000000000000000000000007325000830
:10003000F70200080000000071250008752500087F
:100040001B0100081B0100081B0100081B01000820
:100050001B0100081B0100081B010008F902000831
:100060001B0100081B0100081B0100081B01000800
:100070001B0100081B0100081B0100081B010008F0
:100080001B0100081B010008150200081B010008E5
:100090001B0100081B0100081B0100081B010008D0
:1000A0001B010008F12500081B0100081B010008C6
:1000B0001B0100081B0100081B0100081B010008B0
:1000C0001B0100081B0100081B0100081B010008A0
:1000D0001B01000825290008312900081B01000820
:1000E0001B0100081B0100081B010008DFF80CD0F1
:1000F00000F052F800480047452B00085008002047
:100100000648804706480047FEE7FEE7FEE7FEE7B1
:10011000FEE7FEE7FEE7FEE7FEE7FEE7ED25000867
:10012000ED00000840EA01039B0703D009E008C97D
:10013000121F08C0042AFAD203E011F8013B00F8AC
:10014000013B521EF9D27047D2B201E000F8012BF8
:10015000491EFBD270470022F6E710B513460A4647
:1001600004461946FFF7F0FF204610BD30B50B4698
:10017000014600202022012409E021FA02F59D42D7
:1001800005D303FA02F5491B04FA02F52844151EAB
:10019000A2F10102F1DC30BD064C074D06E0E0683B
:1001A00040F0010394E8070098471034AC42F6D3BE
:1001B000FFF7A0FF602C0008802C000870B58C1899
:1001C00010F8015B15F0070301D110F8013B2A116B
:1001D00006D110F8012B03E010F8016B01F8016B58
:1001E0005B1EF9D12B0705D40023521E0DD401F854
:1001F000013BFAE710F8013BCB1A921C03E013F81D
:10020000015B01F8015B521EF9D5A142D8D3002051
:1002100070BD0000014800F072B90000A802002083
:1002200070B5044600688168C943C90717D1816861
:1002300021F00101816000F081FC05460AE000BF69
:1002400000F07CFC401B022804D920688068C04371
:10025000C00706D020688068C043C007F0D00020E7
:1002600070BDA06A40F01000A062E06A40F001009A
:10027000E062012070BD0000F8B50026044600963B
:1002800000688168C943C9072DD0816841F0010128
:100290008160164816490068B0FBF1F000E0401E8E
:1002A00000900028FBD100F049FC054616E000BF95
:1002B00000F044FC401B022810D920688068C0432D
:1002C000C0070BD0A06A40F01000A062E06A40F0C6
:1002D0000100E06284F824600120F8BD2068806895
:1002E000C043C007E4D10020F8BD00003002002068
:1002F00040420F00FEE77047022000F015BB72B6C7
:10030000FEE70000F8B500250446009590F82400AB
:1003100001280BD0012084F824002046FFF780FF3D
:100320002046FFF7A9FF060002D050E00220F8BDEA
:10033000A06A20F4885040F00200A062022000F081
:1003400023FE25490968B1FBF0F0400000E0401EA3
:1003500000900028FBD12068816841F0080181608D
:1003600000F0ECFB074608E000F0E8FBC01B0A28A1
:1003700003D920688068000715D4206880680007CA
:10038000F2D42068816841F00401816000F0D6FB5E
:10039000074612E000F0D2FBC01B0A280DD92068E6
:1003A0008068400709D5A06A20F0020040F01000E4
:1003B000A06284F824500120F8BD206880684007BE
:1003C000E8D4A06A20F0020040F00100A06284F8A6
:1003D00024503046F8BD0000300200207047000075
:1003E000F8B50024009490F824202546012A12D064
:1003F000012280F824204A681F23072A0DD20668AC
:10040000776B521E02EB820293409F430B6893402E
:100410001F43776319E00220F8BD06680D2A0AD24F
:10042000376BD21F02EB820293409F430B689340CD
:100430001F43376309E0F76A0D3A02EB82029340EB
:100440009F430B6893401F43F7620A6807230668BF
:100450000A2A0AD3F7680A3A02EB420293409F4302
:100460008B6893401F43F76008E0376902EB420254
:1004700093409F438B6893401F4337610A68102A5B
:1004800001D0112A20D1124B02689A4217D19368E9
:100490001B0219D4936843F4000393600968102980
:1004A00012D10C490C4A0968B1FBF2F101EB810150
:1004B000490000E0491E00910029FBD104E0816A57
:1004C00041F020018162012480F824502046F8BDCB
:1004D000002401403002002040420F0010B5044CBF
:1004E00020886080034800F007F8208010BD0000DD
:1004F00014020020A80200200068C06C704770B58C
:100500000446006806684568A90625D5B10723D5C5
:10051000A16AC90603D4A16A41F40071A16281688D
:10052000C1F34241072910D1217B71B9416821F003
:1005300020014160A06A20F48070A062A06AC0041B
:1005400003D4A06A40F00100A0622046FFF7C6FF76
:1005500021686FF01200086028062ED570072CD590
:10056000A06AC00603D4A06A40F40050A0622068CC
:100570008168C1F30231072909D04168490515D4C2
:100580008168C1F34241072910D1217B71B94168CB
:1005900021F080014160A06A20F48050A062A06A2E
:1005A000C00503D4A06A40F00100A0622046FFF716
:1005B00015FF21686FF00C00086068060CD5F00785
:1005C0000AD0A06A40F48030A062204600F094F87F
:1005D00021686FF00100086070BD00002DE9F04156
:1005E0004FF0000704003D467ED0A06A002628B9DF
:1005F000E66284F82460204600F080F82046FFF789
:100600000FFEA16AC90600D420B1A06A40F0100014
:10061000A06269E0A16A21F4885141F00201A1625F
:100620006268E169237B0A4347EA43010A43A16800
:100630004FF48077B94209D0012907D05FF000015B
:1006400094F814C0BCF1010F02D00AE03946F7E774
:10065000F3B1A36A43F02003A362E36A43F001030A
:10066000E3622368D3F804C02CF4694C4CEA010C13
:10067000C3F804C021688B68DFF870C003EA0C037C
:1006800013438B60A168B9420BD0012909D00CE05B
:10069000DFF85CC0A3690CEB43330B4343F4006108
:1006A000DFE7218A0D05A5F580152168CB6A23F4C3
:1006B00070032B43CB62216889680E4B194091422D
:1006C00008D1E662A16A21F0020141F00101A162B4
:1006D000BDE8F081A06A20F0020040F01000A062A6
:1006E000E06A40F00100E0620120F1E7FDF7E1FF80
:1006F00000E0FFFFFE0E1FFF7047000000B585B051
:1007000000210091019102910391006812498842F1
:1007100020D11248816941F400718161816901F43D
:1007200000710491816941F0080181618069694625
:1007300000F0080004900120009003200190084878
:1007400000F0FEF800220321122000F0EBFB122043
:1007500000F0DAFB05B000BD0024014000100240AB
:10076000000C014070B5044690F8240001280DD01B
:10077000012084F824002046FFF77EFD02004FF0A0
:10078000000005D084F82400104670BD022070BD22
:10079000A16A40F60163994341F48071A162224D40
:1007A00023682249AB4218D10E6816F4702F14D07A
:1007B000A66A46F48016A6620E68760505D5A66A76
:1007C00026F4005646F48056A662A66AF6040AD5B8
:1007D000E66A26F00606E66206E0A66A26F48016B9
:1007E000A6625E68E9E7E06284F824006FF0020028
:1007F00018602068436843F02003436020688368E2
:10080000C3F34243072B05D1A84208D1096811F46C
:10081000702F04D0816841F480118160B4E7816851
:1008200041F4A001F9E70000002801400424014040
:1008300010B590F821100022022905D0042181630F
:1008400080F82020012010BD01680B6823F00E0302
:100850000B6001680B6823F001030B6090F84030D7
:10086000C46B012101FA03F3636080F8211080F862
:100870002020104610BD000010B590F82110002473
:10088000022903D00421816301243DE001680A6844
:1008900022F00E020A6001680A6822F001020A6072
:1008A0001A4A0168914201D1012121E0174A14320C
:1008B000914201D110211BE0144A2832914201D10A
:1008C000891515E0114A3C32914201D189140FE09B
:1008D0000E4A5032914202D14FF4803108E00B4A67
:1008E0006432914202D14FF4801101E04FF08071E7
:1008F000064A083A5160012180F82110002180F851
:100900002010416B01B18847204610BD080002400D
:1009100000B5800704D502F0EDF802484168816017
:1009200000BD000014020020044910B50A6802420C
:1009300002D00860FFF7ECFF10BD00001404014076
:100940002DE9F84FDFF8B8910024A9F1040B2346F4
:100950000F2709F1040AABF1040EC9E00125A540F7
:100960002A40AA427DD1674ED1F804C0ACEB0608FC
:10097000B44532D014DCBCF1030F3AD009DCBCF131
:10098000000F2AD0BCF1010F1CD0BCF1020F31D1F5
:100990001DE0BCF1110F17D0BCF1120F2AD119E0E4
:1009A000B8F5881F19D006DCB8F5803F15D0B8F52A
:1009B000801F1FD111E0B8F5001F0ED0B8F5041F3D
:1009C00018D10AE0CB6815E0CB681B1D12E0CB689C
:1009D00008330FE0CB680C330CE08B682BB1012B94
:1009E0004FF0080303D0456104E0042302E00561F1
:1009F00000E00023FF2A01D8064601E000F10406CA
:100A00004FEA840501D9A5F12005D6F8008007FA40
:100A100005FC28EA0C0803FA05F548EA0508C6F8BB
:100A200000804D68ED0062D5374DAE6946F0010695
:100A3000AE61AD6924F0030605F001050095334D64
:100A400006EB050CDCF80850A607360F07FA06F887
:100A500025EA0805DFF8B880404503D14FF00008CB
:100A600017E044E0DFF8AC80404502D14FF00108C8
:100A70000FE0DFF8A480404502D14FF0020808E003
:100A8000DFF89880404502D14FF0030801E04FF0B5
:100A9000040808FA06F848EA0508CCF808804D680A
:100AA000D9F80060ED024D4601D5164300E09643AB
:100AB0002E604D68DAF80060AD02554601D5164348
:100AC00000E096432E604D68DBF80060AD035D46A4
:100AD00001D5164300E096432E604D68DEF80060B5
:100AE000ED03754601D5164300E096432E60641C65
:100AF0000D682A46E5407FF431AFBDE8F88F00006D
:100B000008040140000011100010024000000140E4
:100B100000080140000C0140001001400014014099
:100B2000C26821EA02030A4043EA024101617047B8
:100B30000AB1016170470904FBE7000001488068C1
:100B4000704700002402002070B5040025D094F8FE
:100B50003D00002520B984F83C50204600F04EF9B5
:100B6000242084F83D002068016821F00101016023
:100B70002068016841F4004101602068016821F4A7
:100B80000041016000F05EFB4D4A6168914201D86E
:100B90004C4900E04C49884201D2012070BD4B49CC
:100BA0002368B0FBF1F15E6826F03F060E435E60FD
:100BB0006368934206D94FF4967359434FF47A739E
:100BC000B1FBF3F12368491C1E6A26F03F0631434E
:100BD00019626168914210D84900401EB0FBF1F2E1
:100BE000521CC2F30B02042A01D2042022E0B0FB03
:100BF000F1F0401CC0F30B001CE0A268F2B301EB63
:100C0000C10303EB0116431EB3FBF6F35B1C43F475
:100C100080431B0549D092B301EBC10202EB0111E5
:100C2000401EB0FBF1F0401CC0F30B0040F48040CC
:100C300040F400402168CA694CF6FF739A431043A0
:100C4000C861D4E9071001432068026822F0C0029D
:100C500011430160D4E9030101432068826848F22E
:100C6000FF339A4311438160D4E9050108432168A9
:100C7000CA6822F0FF021043C86001E00EE016E0EF
:100C80002068016841F0010101602564202084F89A
:100C90003D00256384F83E50002070BD01EB410605
:100CA000431EB3FBF6F35B1CB3E70120C2E701EB85
:100CB0004101401EB0FBF1F0401CC0F30B00B7E750
:100CC000A086010080841E0000093D0040420F0004
:100CD0002DE9F84F1F4690468A460446DDF82890D5
:100CE000FFF72CFF054694F83D0020287FD11923FB
:100CF000012240492046009501F03AF9002876D1BA
:100D000094F83C00012872D0012084F83C0020684F
:100D10000168C90703D1016841F001010160206841
:100D2000016821F400610160212084F83D00102059
:100D300084F83E0000262664C4F824806785608D10
:100D400020852D48E0622B464A465146204601F058
:100D500095F890B9206841698069009036E02A468C
:100D60004946204601F0AAF950B1206C042804D16C
:100D70002068016841F4007101600120BDE8F88F2E
:100D8000606A216800780861606A401C6062618D59
:100D9000491E6185218D491E89B2218522685369CA
:100DA000DB435B070BD451B100781061606A401CD3
:100DB0006062608D401E6085208D401E20852A4621
:100DC0004946204601F0A8F80028CED1208D002801
:100DD000C5D154F83D0B016841F400710160202039
:100DE00004F81E09E67766770020C7E7FFE70220D0
:100DF000C4E70000020010000000FFFF10B586B03D
:100E00000021009101910291039100680F498842ED
:100E10001AD10F4CA06940F00800A061A069694692
:100E200000F008000490C0200090122001900320E0
:100E300003900848FFF784FDE06940F40010E0618A
:100E4000E06900F40010049006B010BD00540040AA
:100E500000100240000C01400248816802781144F1
:100E60008160704724020020074810B5016841F0F6
:100E700010010160032000F075F80F2000F006F863
:100E800000F024F8002010BD0020024070B50D4D88
:100E900004464FF47A712878B1FBF0F00A490968EA
:100EA000B1FBF0F000F0A4FB48B9102C07D20022EF
:100EB0002146501E00F036F800206C6070BD012005
:100EC00070BD000024020020300200200C4808B54C
:100ED000816941F001018161816901F001010091A5
:100EE000C16941F08051C161C06900F0805000903B
:100EF0000448416821F0E06141F00071416008BDA3
:100F00000010024000000140002809DB00F01F0231
:100F1000012191404009800000F1E020C0F800115B
:100F200070470000F0B40E4B1B680C46C3F302235D
:100F3000C3F10705042D00D90425191D072901D285
:100F4000002300E0DB1E012606FA05F1491E2140C0
:100F500099409E40761E16403143F0BC01F000BD22
:100F60000CED00E0064900F0070208684FF6FF03A9
:100F7000184040EA0220034A10430860704700000E
:100F80000CED00E00000FA0510B501460020234CEE
:100F9000012922D0022939D010291DD16168226887
:100FA000D20119D51E48C1F38342C903805C0AD51A
:100FB00061681B4AC1F34041921E515C194AB2FB61
:100FC000F1F1484301E0184948436168490203D4FC
:100FD00040000321B0FBF1F010BD226AC2F30121F1
:100FE000012903D1920701D5C80310BD022905D1FB
:100FF000626A920702D549F6404010BD0329FCD130
:1010000021688903F9D54FF2244010BD00F02AF978
:101010006168C1F38131491C4900DBE700100240DF
:10102000382C000800127A0000093D002DE9F84331
:1010300005460078354CC00754D0E0690026C00052
:1010400008D4E06940F08050E061E069012600F0DA
:10105000805000902E480168C90512D4016880466E
:1010600041F480710160FFF769FD074605E000BFAC
:10107000FFF764FDC01B642823D8D8F80000C00522
:10108000F6D5206A10F4407021D0A98801F440718F
:1010900081421CD0206A1F49012220F440700A605E
:1010A00000220A602062C00711D0FFF747FD074603
:1010B00041F2883808E000BFFFF740FDC11B414501
:1010C00002D90320BDE8F883206A8007F4D5206A9E
:1010D000696820F44070084320621EB1E06920F086
:1010E0008050E0612878800705D56068A96820F401
:1010F0004040084360602878C00605D56068E9680C
:1011000020F48000084360600020DBE7001002400C
:1011100000700040400442422DE9F0470F460500B0
:1011200061D0434E306800F00700B84209D2306801
:1011300020F0070038433060306800F00700B84204
:1011400051D128683B4C810712D5400703D5606810
:1011500040F4E06060602878000703D5606840F4E0
:10116000605060606068A96820F0F000084360602B
:101170002878C00728D06868012810D02168022884
:1011800010D0890700292EDA616821F0030101439C
:101190006160FFF7D3FC804641F288390DE0216899
:1011A0008903EFE78901EDE7FFF7C8FCA0EB080131
:1011B000494502D90320BDE8F0876068696800F0FE
:1011C0000C00B0EB810FEFD1306800F00700B8429F
:1011D0000BD9306820F0070038433060306800F0E9
:1011E0000700B84201D00120E5E72878400705D57F
:1011F0006068E96820F4E0600843606028780007D0
:1012000006D56068296920F4605040EAC10060603A
:1012100000F038F86168084AC1F30311515CC84016
:101220000649086006480068FFF730FE0020C2E764
:101230000020024000100240482C0008300200202C
:10124000280200200448054900684968044AC1F39F
:101250000221515CC840704730020020001002405B
:10126000582C00080448054900684968044AC1F33D
:10127000C221515CC840704730020020001002407B
:10128000582C00080E4A51680E4801F00C03042B3C
:1012900011D0082B0FD10C48C1F38343C903C05CA4
:1012A0000AD55168084AC1F34041921E515C054A73
:1012B0005043B0FBF1F070470449484370470000C9
:1012C0000010024000127A00262C000800093D00A0
:1012D0002DE9F84F040070D02078C04DC00749D0E8
:1012E0006868C0F38100012807D06868C0F38100F6
:1012F000022809D16868C00306D52868800339D55B
:1013000060680028E7D035E06068B0F5803F0BD01A
:1013100010B1B0F5A02F11D0286820F480302860DB
:10132000286820F4802002E0286840F4803028609B
:10133000606890B1FFF702FC06460AE0286840F4B6
:1013400080202860F0E700BFFFF7F8FB801B6428CF
:1013500073D828688003F7D50CE0FFF7EFFB06464B
:1013600005E000BFFFF7EAFB801B6428F0D828687F
:101370008003F7D420789A4E80074FF001094FF090
:10138000000839D5686810F00C0F07D06868C0F302
:101390008100022809D16868C00306D42868800744
:1013A00014D52069012808D110E02069B0B1C6F831
:1013B0000090FFF7C3FB074605E00AE1FFF7BEFB1D
:1013C000C01B0228C4D828688007F7D5286861693F
:1013D00020F0F80040EAC10028600DE0C6F8008067
:1013E000FFF7ACFB074604E0FFF7A8FBC01B022891
:1013F00023D828688007F7D4207800072CD57948AF
:10140000A169D9B1C0F80090FFF798FB074604E046
:10141000FFF794FBC01B02280FD8686A8007F7D536
:1014200071484FF4FA510068B0FBF1F0009000BF32
:101430000098411E0091FAD20EE080E0C0F80080D2
:10144000FFF77CFB074604E0FFF778FBC01B022890
:1014500075D8686A8007F7D42078400760D5E869B6
:101460000027C00008D4E86940F08050E861E869CE
:10147000012700F0805000905C480168C90513D432
:101480000168834641F480710160FFF757FB824693
:1014900006E000BFFFF752FBA0EB0A0064284ED81D
:1014A000DBF80000C005F5D5E06801280AD008B1D6
:1014B000052813D0286A20F001002862286A20F04D
:1014C000040002E0286A40F001002862E06841F26E
:1014D000883B98B1FFF732FB82460BE0286A40F068
:1014E00004002862EEE700BFFFF728FBA0EB0A012B
:1014F00059455AD8286A8007F6D50CE0FFF71EFB3D
:10150000824605E0FFF71AFBA0EB0A0159454CD8CB
:10151000286A8007F6D41FB1E86920F08050E8619E
:10152000E06988B36968C1F38101022944D00228C7
:10153000C6F8608004D0FFF701FB044638E034E0D1
:10154000FFF7FCFA074604E0FFF7F8FAC01B022891
:101550002BD828688001F7D4206AB0F5803F05D1E8
:101560006868A16820F4003008436860D4E9080185
:101570000843696821F4741108436860C6F86090F4
:10158000FFF7DCFA044606E025E000BFFFF7D6FAD5
:10159000001B022809D828688001F7D51BE000BF8E
:1015A000FFF7CCFA001B022802D90320BDE8F88F10
:1015B00028688001F4D40EE00128F7D06868226A18
:1015C00000F48031914204D1616A00F470108842C5
:1015D00001D00120EAE70020E8E700000010024007
:1015E000000042428004424230020020007000406D
:1015F00010B5401EB0F1807F01D3012010BD4FF027
:10160000E02460610F21601701F0AAF90020A061B9
:1016100007202061002010BD7047704770B590F81A
:101620003C20012A26D0012480F83C40022280F888
:101630003D2003685A689D6822F070060A683243AC
:101640005A600D4B02689A4208D0B2F1804F05D023
:101650000A4B9A4202D00A4B9A4204D1496825F0BB
:1016600080031943916080F83D40002180F83C10D0
:10167000084670BD022070BD002C014000040040EF
:101680000008004010B5040003D094F83D0010B1EC
:1016900007E0012010BD002084F83C00204600F047
:1016A0001FF8022084F83D00211D206800F0A6FFED
:1016B000012084F8460084F83E0084F83F0084F856
:1016C000400084F8410084F8420084F8430084F824
:1016D000440084F8450084F83D00002010BD00005F
:1016E00008B5114A01681148914211D1816941F44C
:1016F000006181618069002200F400600090072190
:101700001920FFF70FFCBDE808401920FFF7FCBBCC
:10171000B1F1804F07D1C16941F00101C161C069D8
:1017200000F00100009008BD002C014000100240B4
:1017300090F83D10012901D001207047022180F866
:101740003D100168CA6842F00102CA6000680B4996
:10175000884208D0B0F1804F05D00949884202D0B4
:101760000849884204D1816801F00701062903D0A5
:10177000016841F00101016000207047002C014028
:10178000000400400008004070B5044690F83C009A
:101790000025012817D0012684F83C60022084F837
:1017A0003D002068826822F0770222F47F42826046
:1017B0000868502838D00DDC20284FD005DC90B3C5
:1017C000102811D14AE0022070BD302846D04028B0
:1017D0000AD13BE060282FD070280DD0B0F5805F93
:1017E00003D0B0F5005F12D0012584F83D600020E1
:1017F00084F83C00284670BDCB68D1E901212068FF
:1018000000F032FF2068816841F0770109E0CB6881
:10181000D1E90121206800F027FF2068816841F4A8
:1018200080418160E1E719E0CA684968206800F0FA
:101830002DFF5021206806E0CA684968206800F042
:1018400036FF6021206800F019FFCEE7CA684968BA
:10185000206800F01BFF40212068F4E72268014661
:101860001046F0E7704770B50446006801694FF014
:101870000005C943890715D4C168C943890711D434
:10188000E91E0161012020772068806980072046D9
:1018900002D0FFF7E7FF04E000F098F8204600F0E0
:1018A00096F8257720680169C943490717D4C168AC
:1018B000C943490713D46FF0040101610220207766
:1018C0002068806910F4407F204602D0FFF7CAFFED
:1018D00004E000F07BF8204600F079F825772068D6
:1018E0000169C943090716D4C168C943090712D45D
:1018F0006FF008010161042020772068C06980072B
:10190000204602D0FFF7AEFF04E000F05FF820466B
:1019100000F05DF8257720680169C943C90617D42E
:10192000C168C943C90613D46FF0100101610820D2
:1019300020772068C06910F4407F204602D0FFF76E
:1019400091FF04E000F042F8204600F040F82577CF
:1019500020680169C943C90708D1C168C943C907DB
:1019600004D1891E0161204600F032F82068016927
:10197000C943090609D4C168C943090605D46FF0F3
:10198000800101612046FFF747FE20680169C943D5
:10199000490609D4C168C943490605D46FF040011E
:1019A0000161204600F02AF820680169C9438906D0
:1019B0000BD4C168C943890607D46FF020010161C7
:1019C0002046BDE87040FFF728BE70BD70477047E5
:1019D00010B5074C07496068401C6060884205D913
:1019E00001210548FFF79CF80020606010BD000051
:1019F00014020020A08601000010014070477047CB
:101A000070470000F8B5016804460868CA684B6969
:101A100010F00F0F4FF0000559D003F0010602F44B
:101A20009077374365D0C10705D0D10503D5616CE8
:101A300041F001016164410705D5D90703D0616C0C
:101A400041F002016164810705D5D90703D0616CBB
:101A500041F004016164010707D502F02001314320
:101A600003D0616C41F008016164616C00293AD0D7
:101A7000800604D5900602D5204600F059FE206865
:101A80004069616CC0F38010090700D460B3204640
:101A900000F027FE20684069400621D520681430F8
:101AA00050E8001F21F0400140E80012002AF5D163
:101AB000E06BA8B16D494163E06BFEF7DDFE0028E5
:101AC00011D0E06B416B01B0BDE8F04008478306E0
:101AD0000FD593060DD52046BDE8F84000F028BE8E
:101AE0002046FFF78DFFF8BD2046FFF789FF6564AC
:101AF000F8BD266B2023012E7CD1C6067AD5D606EA
:101B000078D508684868009048694FF0020640069A
:101B100040D5E16B086840680004000CE8D0A28D55
:101B20008242E5D9E085886920282DD020680C30D4
:101B300050E8001F21F4807140E80012002AF5D11E
:101B40002068143050E8001F21F0010140E8001225
:101B5000002AF5D12068143050E8001F21F0400120
:101B600040E80012002AF5D184F84230256320684D
:101B70000C3050E8001F21F0100140E80012002A4C
:101B8000F5D1E06BFEF754FE6663A08DE18D401A3F
:101B900081B22AE0A08DE18D401A81B2E08D00284B
:101BA000A6D00029A4D022680C3252E8000F20F4FD
:101BB000907042E80007002FF5D12068143050E8FB
:101BC000002F22F0010240E80027002FF5D184F811
:101BD0004230256320680C3050E8002F22F01002BC
:101BE00040E80023002BF5D166632046FFF707FF8E
:101BF000F8BDFFE705062BD5150629D594F8410059
:101C00002128F5D1A068B0F5805F01D12069B0B17D
:101C1000206A411C2162216800784860E08C401EE7
:101C20000004000CE084E3D12068C16821F0800149
:101C3000C1602068C16841F04001C160D8E7206AF6
:101C40000088C0F308004860206A801C2062E5E735
:101C50004006CDD55006CBD5CA68204622F04002BA
:101C6000CA6084F8413000F0EFF8C1E7D3260008DD
:101C700070B5040004D094F84100002510B106E0CE
:101C8000012070BD84F84050204600F023F8242045
:101C900084F841002068C16821F40051C1602046E9
:101CA00000F0A8FD2068016921F4904101612068DD
:101CB000416921F02A0141612068C16841F4005165
:101CC000C1606564202084F8410084F842006563A7
:101CD000002070BD70B586B0002400940194029479
:101CE00003942E4E03682E49022003222D4DB34249
:101CF00026D18B6943F480438B618B6903F4804365
:101D000004938B6943F004038B618969039201F0AA
:101D1000040104910102CDE9001069462846FEF74E
:101D20000FFE2815CDE90004694628460294FEF707
:101D300007FE002202212520FFF7F4F8252028E0E5
:101D4000194EB34227D1CB6943F40033CB61CB6941
:101D500003F4003304938B6943F004038B618969B6
:101D6000039201F0040104910421CDE900106946B9
:101D70002846FEF7E5FD0820CDE90004694628461F
:101D80000294FEF7DDFD002202212620FFF7CAF8AB
:101D90002620FFF7B9F806B070BD000000380140FA
:101DA00000100240000801400044004070472DE947
:101DB000F843044690F841001F4616460D46202879
:101DC00002D00220BDE8F8837DB176B100206064C6
:101DD000212084F84100FEF7B1FEA6848046E68407
:101DE000A068B0F5805F02D003E00120EAE7206937
:101DF00010B12E4600250EE000260CE08021204682
:101E000000F054FDA0B9AEB116F8010B216848608E
:101E1000E08C401EE084E08C43464FF000020097C7
:101E20000028EBD14FF04001204600F03FFD30B1DB
:101E30000320C7E735F8020BC0F30800E6E72020CF
:101E400084F841000020BDE77047FEE701684A6959
:101E5000D24352050FD46FF480624A61002140F8EA
:101E6000301F202242738173026942F00402026132
:101E7000017301207047002070470000F8B5044648
:101E8000C06A1E460D461746082807D0012805D00F
:101E900010F5803F02D0206B122804D12068016821
:101EA00041F480710160134600224FF00111204679
:101EB000009600F05DF840B120680068C00502D5CA
:101EC0004FF4007020640320F8BD2069B0F5804F06
:101ED0000ED00620216800EAD51040F0F00008611D
:101EE00033463A460B49204600F08AF878B902E0BA
:101EF00005F0FE0000E0E8B22168086105493346BC
:101F00003A46891F204600F07BF80028DCD00120EB
:101F1000F8BD00000800010070B516460D460446E5
:101F20001EE02046FFF792FF08B1012070BD681C3B
:101F300016D0FEF703FE801BA84200D885B92068A2
:101F40004069C04340070BD5002044F8300F2021E2
:101F50006173A073216941F0200121612073E4E7DE
:101F600020684069C0434007DBD4002070BD0000FA
:101F70002DE9F047984617460D460446C1F307463B
:101F8000DDF820902AE000BFB8F1FF3F26D0FEF731
:101F9000D5FDA0EB0901414502D8B8F1000F1DD1D4
:101FA0002068012E16D0806925EA00000004000C8C
:101FB00012D00020B84211D1002044F8300F202167
:101FC0006173A073216941F0200121612073012018
:101FD000BDE8F0874069E7E70120EBE72068012EC4
:101FE0000AD0806925EA00000004000C06D0002019
:101FF000B842C9D00020EBE74069F3E70120F7E7DA
:102000002DE9F047984616460D4604464FF0000964
:102010004FF0200AC1F3074723E020684069C0431E
:10202000400515D42068016841F400710160216801
:102030006FF480604861C4F8309084F83DA084F863
:102040003E90216C41F00401216484F83C9021E031
:10205000701C06D0FEF772FDA0EB0800B04203D85A
:1020600016B1012F1FD021E02068012F15D0806903
:1020700025EA00000004000C18D000BF44F8309F8F
:1020800084F80DA084F80E90216941F020012161AF
:1020900084F80C900120BDE8F087406925EA000033
:1020A0000004000CEAD12068406901E020688069E2
:1020B00025EA00000004000CAFD1ECE770B516462D
:1020C0000D4604461EE02046FFF7C0FE08B1012081
:1020D00070BD681C16D0FEF731FD801BA84200D8E9
:1020E00085B920684069C04300060BD5002044F83C
:1020F000300F20216173A073216941F0200121611B
:102100002073E4E720684069C0430006DBD4002068
:1021100070BD000070B50F4886B0816941F00801BC
:1021200081618069012400F0080004904020CDE91D
:102130000004094E0325694603953046FEF700FC6E
:102140008020CDE90004694603953046FEF7F8FB90
:1021500006B070BD00100240000C01403EB50024E6
:1021600011480094019402940E4984600160047344
:102170000475012505614FF460214460C161FEF7DB
:102180002DFA08B1FEF7BBF80820CDE90005694635
:1021900002940548FEF724F9002801D0FEF7AFF8B5
:1021A0003EBD000000240140A8020020F0B585B02B
:1021B00000241C480094019402940394816941F026
:1021C00004018161816901F004010491816941F098
:1021D000080181618069144F00F008004FF4807697
:1021E0000490002231463846FEF7A2FC02250F4833
:1021F0000095CDE9010469463846FEF7A1FB01AA26
:102200000120009682E8310069463846FEF798FBC7
:10221000072100220846FEF785FE0720FEF774FE20
:1022200005B0F0BD00100240000C0140000011108C
:102230000D4810B50B4901600C49416000214FF475
:1022400080428160C0E9031241618161C161016224
:10225000FEF77AFC002803D0BDE81040FEF74FB827
:1022600010BD000000540040D8020020A0860100EC
:1022700010B586B00024174800940194029403948A
:1022800004941349059401601F21C0E90114092138
:10229000C0E903148021C0E90541FFF7F3F908B153
:1022A000FEF72DF84FF48050009069460948FFF77B
:1022B0006BFA08B1FEF723F8049404A905480594C5
:1022C000FFF7ACF9002801D0FEF719F806B010BDF1
:1022D000002C01402C03002010B586B000241648C5
:1022E000009401940294039404944FF08041059467
:1022F00001600121C0E901144FF6FF71C0E9031428
:102300008461FFF7BFF908B1FDF7F9FF4FF4805082
:10231000009069460848FFF737FA08B1FDF7EFFF6C
:10232000049404A904480594FFF778F9002801D023
:10233000FDF7E5FF06B010BD740300200C4810B592
:102340000A4901604FF4E1314160002181600C22B3
:10235000C160C0E904128161C161FFF789FC0028F6
:1023600003D0BDE81040FDF7CABF10BD00380140E2
:10237000BC0300200C4810B50A4901604FF4E1315C
:102380004160002181600C22C160C0E904128161BA
:10239000C161FFF76DFC002803D0BDE81040FDF7D8
:1023A000AEBF10BD0044004004040020FEE7FEE77D
:1023B00070B506465FF0000404F1B000C0B200F052
:1023C00013F8002000F010F8102000F00DF80025A0
:1023D000304600F0B5F86D1CEDB2802DF8D3641CCA
:1023E000E4B2082CE8D370BD11B583B000208DF89D
:1023F00004000A24082301AA782106480094FEF765
:1024000067FC082303AA782102480094FEF760FCC9
:102410001FBD0000D802002010B5B0300C46C0B27D
:10242000FFF7E2FF102000EB1410FFF7DDFF04F0D0
:102430000F00BDE81040FFF7D7BF2DE9F05F9B46C6
:102440009246884606460024DDF8289014E00AEB00
:102450000400C0B25946FFF7DFFF002506FB04F772
:1024600006E009EB0500385C00F06AF86D1CEDB27F
:10247000B542F6D3641CE4B2B4EBD80FE7D3BDE8A1
:10248000F09F10B5FFF746FEAE20FFF7ADFF02202C
:10249000FFF7AAFF1020FFF7A7FF4020FFF7A4FFD8
:1024A0008120FFF7A1FFCF20FFF79EFFA120FFF7BC
:1024B0009BFFC820FFF798FFA620FFF795FFA820F5
:1024C000FFF792FF3F20FFF78FFFD320FFF78CFF2E
:1024D0000020FFF789FFD520FFF786FF8020FFF758
:1024E00083FFD920FFF780FFF120FFF77DFFDA207F
:1024F000FFF77AFF1220FFF777FFDB20FFF774FF6B
:102500004020FFF771FF2020FFF76EFF0220FFF74A
:102510006BFF8D20FFF768FF1420FFF765FFA420F5
:10252000FFF762FFA620FFF75FFFAF20FFF75CFF1A
:10253000AF20FFF759FFBDE810400020FFF738BF7C
:1025400011B583B040208DF804000A24082301AAA5
:10255000782106480094FEF7BBFB082303AA7821E4
:1025600002480094FEF7B4FB1FBD0000D802002013
:1025700070477047FEF770BC30B593B028216846AD
:10258000FDF7E9FD14210AA8FDF7E5FD0024022569
:1025900001200F94049000951020059012944FF4A0
:1025A000C010CDE908401194109407956846FEF7D5
:1025B0008FFE08B172B6FEE70F200A90CDE90B54EA
:1025C0000D9401210AA80E94FEF7A6FD08B172B67B
:1025D000FEE74FF4804011900F950FA8FEF726FDFF
:1025E000002801D072B6FEE713B030BD704700007E
:1025F0000148FFF738B900002C030020F0B502684D
:10260000164B174C174D4FF08047984205D0B842F3
:1026100003D0A04201D0A84203D122F070064A683C
:102620003243984205D0B84203D0A04201D0A8421C
:1026300003D122F44074CA6822434C6922F080021C
:10264000224302608A68C2620A688262984201D1AB
:102650000969016301214161F0BD0000002C0140C6
:10266000000400400008004010B5846842EA0322DC
:1026700024F47F440A432243826010BD826822F022
:1026800070020A4342F007018160704710B5036A87
:10269000046A24F001040462846924F0F00444EA2A
:1026A000021423F00A020A438461026210BD10B5CD
:1026B000036A046A24F010040462846923F0A0030E
:1026C00024F4704444EA023243EA01118261016257
:1026D00010BD10B5406A0021C185C184FFF790F993
:1026E00010BD01680C3151E8002F22F4907241E8CE
:1026F0000023002BF5D10168143151E8002F22F09E
:10270000010241E80023002BF5D1016B012909D119
:1027100001680C3151E8002F22F0100241E800233B
:10272000002BF5D1202180F8421000210163704771
:1027300008B590F84210222901D0022008BD826815
:102740004FF480539A4201D1016921B1816A9A42C2
:102750001BD04AB10AE00268816A5268C2F30802DB
:102760000A80816A891C08E0026972B102685268B5
:1027700002F07F020A70816A491C8162C18D491E84
:102780000904090CC18503D01BE002685268F1E717
:102790000168CA6822F02002CA600168CA6822F48F
:1027A0008072CA6001684A6922F001024A612021F0
:1027B00080F8421000214163026B012A03D0FFF729
:1027C000F5FA002008BD016301680C3151E8002FC3
:1027D00022F0100241E80023002BF5D101680A68BD
:1027E000D20602D50A6849680091818DFFF707F982
:1027F000E7E7000070B5044600680169E26821F46B
:102800004051114301612169A0680843616908438F
:102810002168CA6841F20C639A430243CA60206887
:102820004169A26921F44071114341611E49206848
:10283000884202D1FEF716FD01E0FEF703FD00EB32
:10284000C00101EB0012606864218000B2FBF0F36C
:10285000B3FBF1F36FF018067343B2FBF0F5B2FB74
:10286000F0F605EB8305322303EB0515B5FBF1F517
:10287000B6FBF1F605F0F00505EB0615B2FBF0F638
:10288000B2FBF0F0B0FBF1F06FF01802504306EB32
:10289000800003EB0010B0FBF1F0216800F00F00A6
:1028A0002844886070BD0000003801402DE9F041E7
:1028B000984617460E460446069D27E0681C25D01C
:1028C0002DB1FEF73BF9A0EB0800A8421ED9206805
:1028D0000C3050E8001F21F4D07140E80012002AAB
:1028E000F5D12068143050E8001F21F0010140E8C4
:1028F0000012002AF5D1202084F8410084F842001B
:10290000002084F840000320BDE8F08120680068C2
:1029100036EA000004D00020B842CFD00020F3E710
:102920000120F9E70148FFF76DB80000BC03002063
:102930000148FFF767B8000004040020FEE700002C
:102940000FB4054B10B503A9044A029800F028F80B
:1029500010BC5DF814FB00002D2B00083402002091
:102960000907090E002804DB00F1E02080F80014BC
:10297000704700F00F0000F1E02080F8141D704750
:1029800002E008C8121F08C1002AFAD17047704738
:10299000002001E001C1121F002AFBD17047000096
:1029A0002DE9FF4F89B09B460446002506E0252807
:1029B0000BD05A460B999047641C6D1C2078002858
:1029C000F5D10DB02846BDE8F08F0027B8460122AA
:1029D000474900E0074314F8013F203B02FA03F0A7
:1029E0000842F7D120782E2819D114F8010F47F0AA
:1029F00004072A280ED06FF02F022078A0F13001B2
:102A000009290CD808EB880102EB410100EB010811
:102A1000641CF2E70A98641C50F8048B0A90207832
:102A20000028CED0642808D0692806D075281ED08A
:102A30005A460B9990476D1C58E00A994FF00A09C5
:102A400001C90A91002802DA40422D2102E039052D
:102A500004D52B218DF82010012103E0F90704D0C3
:102A60002021F7E78A4608AE0DE00021FAE70A992F
:102A70004FF00A0901C90A91F7E74946FDF776FBCD
:102A8000303106F8011D0028F7D1ADEB060000F14A
:102A90002009780701D44FF00108C84502DDA8EBF2
:102AA000090000E000208046002706E008A85A46FA
:102AB000C05D0B9990476D1C7F1C5745F6DB04E009
:102AC00030205A460B9990476D1CB8F10001A8F1CF
:102AD0000108F5DC05E016F8010B5A460B99904702
:102AE0006D1CB9F10001A9F10109F4DC641C65E772
:102AF000092801000A49D1E90101884203D2094AA3
:102B0000511A0A1800E0421A0749002001EB80031D
:102B10005B6841F82030401C0928F7DB4A627047A7
:102B200014020020A08601003802002013B50A23F9
:102B3000012269460248FFF73AF900981CBD0000DF
:102B40006002002008B5FEF78FF9FFF715FDFFF7CB
:102B50002DFBFFF703FBFFF7BFFBFFF7EFFBFFF7D3
:102B600009FCFFF765FBFFF783FB2548FDF7FAFD3E
:102B70002448FEF7DDFD2248FDF7C4FB262222494A
:102B80002248FDF7CFFA204CE08C204DE884A16A62
:102B9000A5F128000165A18DA0F85410E08DE8850D
:102BA000206B2863606B6863092204F1380105F12A
:102BB0003800FDF7B7FA94F8410085F8410094F821
:102BC000420085F84200606C6864FFF75AFC104DC3
:102BD000104E114C0020FFF7EBFB24211B23012298
:102BE00008460095FFF729FC3221142300220846ED
:102BF0000096FFF722FC09A06168FFF7A1FEE9E754
:102C0000A80200202C030020BC030020600200204A
:102C10005E010020000000201402002025640D0A3F
:102C200000000000010202030405060708090A0B60
:102C30000C0D0E0F1010010202030405060708090F
:102C40000A0B0C0D0E0F1010000000000000000019
:102C50000102030406070809000000000102030442
:102C6000802C00080000002038020000BC01000891
:102C70001C2D0008380200201806000090290008CA
:102C8000816C8080C001A38080091417CEE0F8FC1D
:102C9000FEFF010E12FEFCFCF0F01742F0DA1E17E8
:102CA000091C01510D2301071F7F2EA57F1F07015E
:102CB0000F150103070F1F3F3A07177F3F1F0F072D
:102CC000032A013B980E0F1F1F1F3F3F1F1F0F0FAF
:102CD00007070357510A2FFC01314E80C0E0E0F096
:102CE00001ADE0E0C080102911310A1F70E3310B03
:102CF000150F1FD439D86B7F1FD629C519C2892D4E
:102D00004A7FF549CC69795901DFF1F1F1F3F1F12D
:0C2D1000150112293C82105324F400002D
:04000005080000ED02
:00000001FF
