:020000040800F2
:10000000A0050020010100080B1D0008291A0008A6
:10001000091D0008710200084D22000800000000C0
:10002000000000000000000000000000DB1E0008CF
:100030007302000800000000D91E0008DD1E000841
:100040001B0100081B0100081B0100081B01000820
:100050001B0100081B0100081B01000875020008B5
:100060001B0100081B0100081B0100081B01000800
:100070001B0100081B0100081B0100081B010008F0
:100080001B0100081B010008910100081B0100086A
:100090001B0100081B0100081B0100081B010008D0
:1000A0001B0100081B0100081B0100081B010008C0
:1000B000791F00081B0100081B0100081B01000834
:1000C0001B0100081B0100081B0100081B010008A0
:1000D0001B01000835220008412200081B0100080E
:1000E0001B0100081B0100081B010008DFF80CD0F1
:1000F00000F03CF800480047D5220008A005002089
:100100000648804706480047FEE7FEE7FEE7FEE7B1
:10011000FEE7FEE7FEE7FEE7FEE7FEE7751F0008E5
:10012000ED00000840EA01039B0703D009E008C97D
:10013000121F08C0042AFAD203E011F8013B00F8AC
:10014000013B521EF9D27047D2B201E000F8012BF8
:10015000491EFBD270470022F6E710B513460A4647
:1001600004461946FFF7F0FF204610BD064C074D28
:1001700006E0E06840F0010394E807009847103477
:10018000AC42F6D3FFF7B6FF402A0008602A000809
:10019000014800F072B900009400002070B50446D8
:1001A00000688168C943C90717D1816821F001013E
:1001B000816000F093FC05460AE000BF00F08EFC71
:1001C000401B022804D920688068C043C00706D0BD
:1001D00020688068C043C007F0D0002070BDA06ACE
:1001E00040F01000A062E06A40F00100E0620120EF
:1001F00070BD0000F8B500260446009600688168CE
:10020000C943C9072DD0816841F0010181601648BA
:1002100016490068B0FBF1F000E0401E0090002895
:10022000FBD100F05BFC054616E000BF00F056FC79
:10023000401B022810D920688068C043C0070BD03B
:10024000A06A40F01000A062E06A40F00100E062A5
:1002500084F824600120F8BD20688068C043C0078E
:10026000E4D10020F8BD00002000002040420F0033
:10027000FEE77047022000F027BB72B6FEE70000E1
:10028000F8B500250446009590F8240001280BD00D
:10029000012084F824002046FFF780FF2046FFF766
:1002A000A9FF060002D050E00220F8BDA06A20F4A9
:1002B000885040F00200A062022000F0ADFC254909
:1002C0000968B1FBF0F0400000E0401E00900028FB
:1002D000FBD12068816841F00801816000F0FEFBDD
:1002E000074608E000F0FAFBC01B0A2803D9206883
:1002F0008068000715D4206880680007F2D4206861
:10030000816841F00401816000F0E8FB074612E0DB
:1003100000F0E4FBC01B0A280DD920688068400764
:1003200009D5A06A20F0020040F01000A06284F815
:1003300024500120F8BD206880684007E8D4A06AF6
:1003400020F0020040F00100A06284F82450304602
:10035000F8BD00002000002070470000F8B5002420
:10036000009490F824202546012A12D0012280F81A
:1003700024204A681F23072A0DD20668776B521E75
:1003800002EB820293409F430B6893401F437763C5
:1003900019E00220F8BD06680D2A0AD2376BD21F79
:1003A00002EB820293409F430B6893401F433763E5
:1003B00009E0F76A0D3A02EB820293409F430B6813
:1003C00093401F43F7620A68072306680A2A0AD384
:1003D000F7680A3A02EB420293409F438B689340CE
:1003E0001F43F76008E0376902EB420293409F43E6
:1003F0008B6893401F4337610A68102A01D0112A85
:1004000020D1124B02689A4217D193681B0219D46B
:10041000936843F4000393600968102912D10C49D2
:100420000C4A0968B1FBF2F101EB8101490000E0DF
:10043000491E00910029FBD104E0816A41F02001AE
:100440008162012480F824502046F8BD0024014038
:100450002000002040420F0010B5044C208860802E
:10046000034800F007F8208010BD000004000020C1
:10047000940000200068C06C704770B504460068A6
:1004800006684568A90625D5B10723D5A16AC9061E
:1004900003D4A16A41F40071A1628168C1F34241B1
:1004A000072910D1217B71B9416821F020014160F9
:1004B000A06A20F48070A062A06AC00403D4A06A7D
:1004C00040F00100A0622046FFF7C6FF21686FF0F0
:1004D0001200086028062ED570072CD5A06AC00629
:1004E00003D4A06A40F40050A06220688168C1F380
:1004F0000231072909D04168490515D48168C1F343
:100500004241072910D1217B71B9416821F0800156
:100510004160A06A20F48050A062A06AC00503D4A4
:10052000A06A40F00100A0622046FFF715FF216895
:100530006FF00C00086068060CD5F0070AD0A06ABE
:1005400040F48030A062204600F094F821686FF0FB
:100550000100086070BD00002DE9F0414FF0000778
:1005600004003D467ED0A06A002628B9E66284F8E1
:100570002460204600F080F82046FFF70FFEA16AB5
:10058000C90600D420B1A06A40F01000A06269E062
:10059000A16A21F4885141F00201A1626268E16917
:1005A000237B0A4347EA43010A43A1684FF480775B
:1005B000B94209D0012907D05FF0000194F814C0B6
:1005C000BCF1010F02D00AE03946F7E7F3B1A36AA4
:1005D00043F02003A362E36A43F00103E36223686C
:1005E000D3F804C02CF4694C4CEA010CC3F804C0E5
:1005F00021688B68DFF870C003EA0C0313438B603B
:10060000A168B9420BD0012909D00CE0DFF85CC029
:10061000A3690CEB43330B4343F40061DFE7218A0A
:100620000D05A5F580152168CB6A23F470032B43D3
:10063000CB62216889680E4B1940914208D1E6626D
:10064000A16A21F0020141F00101A162BDE8F0813F
:10065000A06A20F0020040F01000A062E06A40F0C2
:100660000100E0620120F1E7FDF7E1FF00E0FFFF9C
:10067000FE0E1FFF7047000000B585B000210091FD
:1006800001910291039100681249884220D11248D9
:10069000816941F400718161816901F40071049103
:1006A000816941F0080181618069694600F00800B4
:1006B00004900120009003200190084800F010F9F8
:1006C00000220321122000F075FA122000F064FAD3
:1006D00005B000BD0024014000100240000C0140A4
:1006E00070B5044690F8240001280DD0012084F84C
:1006F00024002046FFF77EFD02004FF0000005D0E9
:1007000084F82400104670BD022070BDA16A40F636
:100710000163994341F48071A162224D236822490B
:10072000AB4218D10E6816F4702F14D0A66A46F4A6
:100730008016A6620E68760505D5A66A26F40056D0
:1007400046F48056A662A66AF6040AD5E66A26F042
:100750000606E66206E0A66A26F48016A6625E68D1
:10076000E9E7E06284F824006FF002001860206876
:10077000436843F02003436020688368C3F3424327
:10078000072B05D1A84208D1096811F4702F04D0B5
:10079000816841F480118160B4E7816841F4A0016F
:1007A000F9E70000002801400424014010B590F84A
:1007B00021100022022905D00421816380F8202025
:1007C000012010BD01680B6823F00E030B60016867
:1007D0000B6823F001030B6090F84030C46B0121DB
:1007E00001FA03F3636080F8211080F8202010469E
:1007F00010BD000010B590F821100024022903D08C
:100800000421816301243DE001680A6822F00E02A0
:100810000A6001680A6822F001020A601A4A016847
:10082000914201D1012121E0174A1432914201D1B4
:1008300010211BE0144A2832914201D1891515E09C
:10084000114A3C32914201D189140FE00E4A5032D4
:10085000914202D14FF4803108E00B4A6432914258
:1008600002D14FF4801101E04FF08071064A083A3E
:100870005160012180F82110002180F82010416B87
:1008800001B18847204610BD0800024070B50446FB
:1008900000F024F90546601C02D0044800780444A6
:1008A00000F01CF9401BA042FAD370BD14000020D8
:1008B00000B5800704D501F0E9FC02484168816079
:1008C00000BD000004000020044910B50A6802427F
:1008D00002D00860FFF7ECFF10BD000014040140D7
:1008E0002DE9F84FDFF8B8910024A9F1040B234655
:1008F0000F2709F1040AABF1040EC9E00125A54058
:100900002A40AA427DD1674ED1F804C0ACEB06085C
:10091000B44532D014DCBCF1030F3AD009DCBCF191
:10092000000F2AD0BCF1010F1CD0BCF1020F31D155
:100930001DE0BCF1110F17D0BCF1120F2AD119E044
:10094000B8F5881F19D006DCB8F5803F15D0B8F58A
:10095000801F1FD111E0B8F5001F0ED0B8F5041F9D
:1009600018D10AE0CB6815E0CB681B1D12E0CB68FC
:1009700008330FE0CB680C330CE08B682BB1012BF4
:100980004FF0080303D0456104E0042302E0056151
:1009900000E00023FF2A01D8064601E000F104062A
:1009A0004FEA840501D9A5F12005D6F8008007FAA1
:1009B00005FC28EA0C0803FA05F548EA0508C6F81C
:1009C00000804D68ED0062D5374DAE6946F00106F6
:1009D000AE61AD6924F0030605F001050095334DC5
:1009E00006EB050CDCF80850A607360F07FA06F8E8
:1009F00025EA0805DFF8B880404503D14FF000082C
:100A000017E044E0DFF8AC80404502D14FF0010828
:100A10000FE0DFF8A480404502D14FF0020808E063
:100A2000DFF89880404502D14FF0030801E04FF015
:100A3000040808FA06F848EA0508CCF808804D686A
:100A4000D9F80060ED024D4601D5164300E096430B
:100A50002E604D68DAF80060AD02554601D51643A8
:100A600000E096432E604D68DBF80060AD035D4604
:100A700001D5164300E096432E604D68DEF8006015
:100A8000ED03754601D5164300E096432E60641CC5
:100A90000D682A46E5407FF431AFBDE8F88F0000CD
:100AA0000804014000001110001002400000014045
:100AB00000080140000C01400010014000140140FA
:100AC000C26821EA02030A4043EA02410161704719
:100AD0000AB1016170470904FBE700000148806822
:100AE0007047000014000020024881680278114419
:100AF0008160704714000020074810B5016841F07C
:100B000010010160032000F075F80F2000F006F8D6
:100B100000F024F8002010BD0020024070B50D4DFB
:100B200004464FF47A712878B1FBF0F00A4909685D
:100B3000B1FBF0F000F0A4FB48B9102C07D2002262
:100B40002146501E00F036F800206C6070BD012078
:100B500070BD000014000020200000200C4808B5E3
:100B6000816941F001018161816901F00101009118
:100B7000C16941F08051C161C06900F080500090AE
:100B80000448416821F0E06141F00071416008BD16
:100B90000010024000000140002809DB00F01F02A5
:100BA000012191404009800000F1E020C0F80011CF
:100BB00070470000F0B40E4B1B680C46C3F30223D1
:100BC000C3F10705042D00D90425191D072901D2F9
:100BD000002300E0DB1E012606FA05F1491E214034
:100BE00099409E40761E16403143F0BC01F02FBB69
:100BF0000CED00E0064900F0070208684FF6FF031D
:100C0000184040EA0220034A104308607047000081
:100C10000CED00E00000FA0510B501460020234C61
:100C2000012922D0022939D010291DD161682268FA
:100C3000D20119D51E48C1F38342C903805C0AD58D
:100C400061681B4AC1F34041921E515C194AB2FBD4
:100C5000F1F1484301E0184948436168490203D46F
:100C600040000321B0FBF1F010BD226AC2F3012164
:100C7000012903D1920701D5C80310BD022905D16E
:100C8000626A920702D549F6404010BD0329FCD1A3
:100C900021688903F9D54FF2244010BD00F02AF9EC
:100CA0006168C1F38131491C4900DBE70010024053
:100CB000182A000800127A0000093D002DE9F843C7
:100CC00005460078354CC00754D0E0690026C000C6
:100CD00008D4E06940F08050E061E069012600F04E
:100CE000805000902E480168C90512D401688046E2
:100CF00041F480710160FFF7F1FE074605E000BF97
:100D0000FFF7ECFEC01B642823D8D8F80000C0050C
:100D1000F6D5206A10F4407021D0A98801F4407102
:100D200081421CD0206A1F49012220F440700A60D1
:100D300000220A602062C00711D0FFF7CFFE0746ED
:100D400041F2883808E000BFFFF7C8FEC11B4145EB
:100D500002D90320BDE8F883206A8007F4D5206A11
:100D6000696820F44070084320621EB1E06920F0F9
:100D70008050E0612878800705D56068A96820F474
:100D80004040084360602878C00605D56068E9687F
:100D900020F48000084360600020DBE70010024080
:100DA00000700040400442422DE9F0470F46050024
:100DB00061D0434E306800F00700B84209D2306875
:100DC00020F0070038433060306800F00700B84278
:100DD00051D128683B4C810712D5400703D5606884
:100DE00040F4E06060602878000703D5606840F454
:100DF000605060606068A96820F0F000084360609F
:100E00002878C00728D06868012810D021680228F7
:100E100010D0890700292EDA616821F0030101430F
:100E20006160FFF75BFE804641F288390DE0216882
:100E30008903EFE78901EDE7FFF750FEA0EB08011A
:100E4000494502D90320BDE8F0876068696800F071
:100E50000C00B0EB810FEFD1306800F00700B84212
:100E60000BD9306820F0070038433060306800F05C
:100E70000700B84201D00120E5E72878400705D5F2
:100E80006068E96820F4E060084360602878000743
:100E900006D56068296920F4605040EAC1006060AE
:100EA00000F038F86168084AC1F30311515CC8408A
:100EB0000649086006480068FFF730FE0020C2E7D8
:100EC0000020024000100240282A000820000020D4
:100ED000180000200448054900684968044AC1F325
:100EE0000221515CC84070472000002000100240E1
:100EF000382A00080448054900684968044AC1F3D3
:100F0000C221515CC8407047200000200010024000
:100F1000382A00080E4A51680E4801F00C03042BD1
:100F200011D0082B0FD10C48C1F38343C903C05C17
:100F30000AD55168084AC1F34041921E515C054AE6
:100F40005043B0FBF1F0704704494843704700003C
:100F50000010024000127A00062A000800093D0035
:100F60002DE9F84F040070D02078C04DC00749D05B
:100F70006868C0F38100012807D06868C0F3810069
:100F8000022809D16868C00306D52868800339D5CE
:100F900060680028E7D035E06068B0F5803F0BD08E
:100FA00010B1B0F5A02F11D0286820F4803028604F
:100FB000286820F4802002E0286840F4803028600F
:100FC000606890B1FFF78AFD06460AE0286840F4A1
:100FD00080202860F0E700BFFFF780FD801B6428B9
:100FE00073D828688003F7D50CE0FFF777FD064635
:100FF00005E000BFFFF772FD801B6428F0D8286869
:101000008003F7D420789A4E80074FF001094FF003
:10101000000839D5686810F00C0F07D06868C0F375
:101020008100022809D16868C00306D428688007B7
:1010300014D52069012808D110E02069B0B1C6F8A4
:101040000090FFF74BFD074605E00AE1FFF746FD7C
:10105000C01B0228C4D828688007F7D528686169B2
:1010600020F0F80040EAC10028600DE0C6F80080DA
:10107000FFF734FD074604E0FFF730FDC01B0228F0
:1010800023D828688007F7D4207800072CD5794822
:10109000A169D9B1C0F80090FFF720FD074604E030
:1010A000FFF71CFDC01B02280FD8686A8007F7D520
:1010B00071484FF4FA510068B0FBF1F0009000BFA6
:1010C0000098411E0091FAD20EE080E0C0F8008046
:1010D000FFF704FD074604E0FFF700FDC01B0228F0
:1010E00075D8686A8007F7D42078400760D5E8692A
:1010F0000027C00008D4E86940F08050E861E86942
:10110000012700F0805000905C480168C90513D4A5
:101110000168834641F480710160FFF7DFFC82467D
:1011200006E000BFFFF7DAFCA0EB0A0064284ED807
:10113000DBF80000C005F5D5E06801280AD008B149
:10114000052813D0286A20F001002862286A20F0C0
:10115000040002E0286A40F001002862E06841F2E1
:10116000883B98B1FFF7BAFC82460BE0286A40F052
:1011700004002862EEE700BFFFF7B0FCA0EB0A0115
:1011800059455AD8286A8007F6D50CE0FFF7A6FC27
:10119000824605E0FFF7A2FCA0EB0A0159454CD8B6
:1011A000286A8007F6D41FB1E86920F08050E86112
:1011B000E06988B36968C1F38101022944D002283B
:1011C000C6F8608004D0FFF789FC044638E034E0BC
:1011D000FFF784FC074604E0FFF780FCC01B0228F1
:1011E0002BD828688001F7D4206AB0F5803F05D15C
:1011F0006868A16820F4003008436860D4E90801F9
:101200000843696821F4741108436860C6F8609067
:10121000FFF764FC044606E025E000BFFFF75EFC34
:10122000001B022809D828688001F7D51BE000BF01
:10123000FFF754FC001B022802D90320BDE8F88FF9
:1012400028688001F4D40EE00128F7D06868226A8B
:1012500000F48031914204D1616A00F47010884238
:1012600001D00120EAE70020E8E70000001002407A
:1012700000004242800442422000002000700040F2
:1012800010B5401EB0F1807F01D3012010BD4FF09A
:10129000E02460610F21601700F0D9FF0020A061F9
:1012A00007202061002010BD7047704770B590F88E
:1012B0003C20012A26D0012480F83C40022280F8FC
:1012C0003D2003685A689D6822F070060A68324320
:1012D0005A600D4B02689A4208D0B2F1804F05D097
:1012E0000A4B9A4202D00A4B9A4204D1496825F02F
:1012F00080031943916080F83D40002180F83C1044
:10130000084670BD022070BD002C01400004004062
:101310000008004010B5040003D094F83D0010B15F
:1013200007E0012010BD002084F83C00204600F0BA
:101330001FF8022084F83D00211D206800F022FEE5
:10134000012084F8460084F83E0084F83F0084F8C9
:10135000400084F8410084F8420084F8430084F897
:10136000440084F8450084F83D00002010BD0000D2
:1013700008B50068B0F1804F12D10A48C16941F048
:101380000101C161C069002200F001000090062146
:101390001C20FFF70FFCBDE808401C20FFF7FCBB3A
:1013A00008BD00000010024090F83D10012901D056
:1013B00001207047022180F83D100168CA6842F0A0
:1013C0000102CA6000680B49884208D0B0F1804F22
:1013D00005D00949884202D00849884204D1816871
:1013E00001F00701062903D0016841F00101016005
:1013F00000207047002C014000040040000800401D
:1014000070B5044690F83C000025012817D001264D
:1014100084F83C60022084F83D002068826822F055
:10142000770222F47F4282600868502838D00DDCB1
:1014300020284FD005DC90B3102811D14AE00220BB
:1014400070BD302846D040280AD13BE060282FD01C
:1014500070280DD0B0F5805F03D0B0F5005F12D0DA
:10146000012584F83D60002084F83C00284670BDCA
:10147000CB68D1E90121206800F0BAFD20688168BD
:1014800041F0770109E0CB68D1E90121206800F043
:10149000AFFD2068816841F480418160E1E719E097
:1014A000CA684968206800F0B5FD5021206806E050
:1014B000CA684968206800F0BEFD6021206800F01D
:1014C000A1FDCEE7CA684968206800F0A3FD40216D
:1014D0002068F4E7226801461046F0E7704770B5CF
:1014E0000446006801694FF00005C943890715D417
:1014F000C168C943890711D4E91E01610120207721
:10150000206880698007204602D0FFF7E7FF04E0EB
:1015100000F098F8204600F096F8257720680169D9
:10152000C943490717D4C168C943490713D46FF0A9
:1015300004010161022020772068806910F4407F57
:10154000204602D0FFF7CAFF04E000F07BF82046F7
:1015500000F079F8257720680169C943090716D496
:10156000C168C943090712D46FF008010161042062
:1015700020772068C0698007204602D0FFF7AEFFC1
:1015800004E000F05FF8204600F05DF82577206861
:101590000169C943C90617D4C168C943C90613D430
:1015A0006FF010010161082020772068C06910F4F5
:1015B000407F204602D0FFF791FF04E000F042F8A0
:1015C000204600F040F8257720680169C943C90723
:1015D00008D1C168C943C90704D1891E01612046E9
:1015E00000F032F820680169C943090609D4C168CE
:1015F000C943090605D46FF0800101612046FFF759
:1016000053FE20680169C943490609D4C168C9432A
:10161000490605D46FF040010161204600F02AF828
:1016200020680169C94389060BD4C168C94389068A
:1016300007D46FF0200101612046BDE87040FFF73C
:1016400034BE70BD7047704710B5074C07496068DD
:10165000401C6060884205D901210548FFF730FA37
:101660000020606010BD000004000020A086010082
:10167000001001407047704770470000F8B50168DE
:1016800004460868CA684B6910F00F0F4FF0000558
:1016900059D003F0010602F49077374365D0C107B3
:1016A00005D0D10503D5616C41F0010161644107AA
:1016B00005D5D90703D0616C41F00201616481074F
:1016C00005D5D90703D0616C41F0040161640107BD
:1016D00007D502F02001314303D0616C41F00801CD
:1016E0006164616C00293AD0800604D5900602D569
:1016F000204600F0E1FC20684069616CC0F3801076
:10170000090700D460B3204600F0AFFC20684069B0
:10171000400621D52068143050E8001F21F0400118
:1017200040E80012002AF5D1E06BA8B16D49416391
:10173000E06BFFF75FF8002811D0E06B416B01B060
:10174000BDE8F040084783060FD593060DD5204627
:10175000BDE8F84000F0B0BC2046FFF78DFFF8BDB3
:101760002046FFF789FF6564F8BD266B2023012E14
:101770007CD1C6067AD5D60678D508684868009028
:1017800048694FF00206400640D5E16B08684068A2
:101790000004000CE8D0A28D8242E5D9E08588697A
:1017A00020282DD020680C3050E8001F21F48071D3
:1017B00040E80012002AF5D12068143050E8001FDC
:1017C00021F0010140E80012002AF5D12068143010
:1017D00050E8001F21F0400140E80012002AF5D136
:1017E00084F84230256320680C3050E8001F21F057
:1017F000100140E80012002AF5D1E06BFEF7D6FF99
:101800006663A08DE18D401A81B22AE0A08DE18D42
:10181000401A81B2E08D0028A6D00029A4D0226809
:101820000C3252E8000F20F4907042E80007002FBD
:10183000F5D12068143050E8002F22F0010240E872
:101840000027002FF5D184F84230256320680C3042
:1018500050E8002F22F0100240E80023002BF5D1C1
:1018600066632046FFF707FFF8BDFFE705062BD5A7
:10187000150629D594F841002128F5D1A068B0F5C6
:10188000805F01D12069B0B1206A411C21622168CA
:1018900000784860E08C401E0004000CE084E3D136
:1018A0002068C16821F08001C1602068C16841F0F2
:1018B0004001C160D8E7206A0088C0F30800486092
:1018C000206A801C2062E5E74006CDD55006CBD5C6
:1018D000CA68204622F04002CA6084F8413000F015
:1018E000A2F8C1E75B20000870B5040004D094F8AA
:1018F0004100002510B106E0012070BD84F8405081
:10190000204600F023F8242084F841002068C168B4
:1019100021F40051C160204600F030FC20680169CC
:1019200021F4904101612068416921F02A0141615F
:101930002068C16841F40051C1606564202084F8CA
:10194000410084F842006563002070BD70B586B028
:10195000002400940194029403942E4E03682E49AF
:10196000022003222D4DB34226D18B6943F48043DC
:101970008B618B6903F4804304938B6943F0040308
:101980008B618969039201F0040104910102CDE9A0
:10199000001069462846FEF7A3FF2815CDE900048C
:1019A000694628460294FEF79BFF0022022125206B
:1019B000FFF700F9252028E0194EB34227D1CB6963
:1019C00043F40033CB61CB6903F4003304938B6998
:1019D00043F004038B618969039201F004010491CF
:1019E0000421CDE9001069462846FEF779FF08205A
:1019F000CDE90004694628460294FEF771FF0022F3
:101A000002212620FFF7D6F82620FFF7C5F806B0FA
:101A100070BD000000380140001002400008014085
:101A20000044004070477047FEE7000070B50F4863
:101A300086B0816941F0080181618069012400F06C
:101A4000080004908020CDE90004094E0325694672
:101A500003953046FEF744FF4020CDE90004694677
:101A600003953046FEF73CFF06B070BD0010024003
:101A7000000C014070B50A4C0125C4F898510520AE
:101A800004F5CC7400F01EFC00206060052000F01E
:101A900019FC656054F8800C002800D0012070BD4E
:101AA000008021422DE9F0410025114C06462F46C9
:101AB0004FF00108C4F89C71300602D5C4F8988133
:101AC00001E0C4F898717006060E052000F0FAFBDC
:101AD000C4F89C81052000F0F5FB6D1CEDB2082DCB
:101AE000E8D3C4F89C71BDE8F041FFF7C3BF000024
:101AF0000080214270B5094C0120C4F89C01C4F853
:101B00009801052004F5CC7400F0DCFB002525606D
:101B1000052000F0D7FB656070BD00000080214209
:101B200070B5094C0025C4F89C510126C4F8986191
:101B3000052004F5CC7400F0C5FB6660052000F0BC
:101B4000C1FB256070BD0000008021423EB500242D
:101B500011480094019402940E498460016004735A
:101B60000475012505614FF460214460C161FEF7F1
:101B7000F3FC08B1FEF781FB0820CDE900056946BA
:101B800002940548FEF7EAFB002801D0FEF775FB3A
:101B90003EBD00000024014094000020F0B585B057
:101BA000002421480094019402940394816941F037
:101BB00004018161816901F004010491816941F0AE
:101BC000080181618069194F00F00800049000222B
:101BD0004FF4E0713846FEF77BFF0225144800956C
:101BE000CDE9010469463846FEF77AFEC020012699
:101BF000CDE900060320CDE9024069463846FEF7EC
:101C00006FFEE801CDE9000669463846CDE9024598
:101C1000FEF766FE072100220846FEF7CBFF0720ED
:101C2000FEF7BAFF05B0F0BD00100240000C014005
:101C30000000111010B586B00024164800940194DD
:101C40000294039404944FF08041059401601F2195
:101C5000C0E901140921C0E9031480218161FFF763
:101C600059FB08B1FEF709FB4FF48050009069461C
:101C70000848FFF7C5FB08B1FEF7FFFA049404A972
:101C800004480594FFF712FB002801D0FEF7F5FA8F
:101C900006B010BDC40000200C4810B50A49016010
:101CA0004FF4E1314160002181600C22C160C0E944
:101CB00004128161C161FFF717FE002803D0BDE85F
:101CC0001040FEF7DABA10BD003801400C010020C8
:101CD0000C4810B50A4901604FF4E1314160002120
:101CE00081600C22C160C0E904128161C161FFF70B
:101CF000FBFD002803D0BDE81040FEF7BEBA10BDC2
:101D00000044004054010020FEE7FEE770B506469F
:101D10005FF0000404F1B000C0B200F013F800203E
:101D200000F010F8102000F00DF80025304600F00B
:101D3000C2F86D1CEDB2802DF8D3641CE4B2082CFF
:101D4000E8D370BD10B50446FFF7D4FE7820FFF746
:101D5000A9FE0020FFF7A6FE2046FFF7A3FEBDE880
:101D60001040FFF7DDBE10B5B0300C46C0B2FFF733
:101D7000E9FF102000EB1410FFF7E4FF04F00F0060
:101D8000BDE81040FFF7DEBF2DE9F041203A88465C
:101D90000746D6B20024FFF7E6FF0E4D04EB06100F
:101DA000285C00F088F8641CE4B2082CF6D37F1C91
:101DB000F8B24146FFF7D7FF5FF0000404EB0610CE
:101DC0002844007A00F077F8641CE4B2082CF5D3BC
:101DD000BDE8F0811424000870B514460D4606468F
:101DE00006E029463046FFF7CFFF0835EDB2641C08
:101DF0002278002AF5D170BD10B5FFF717FEAE208E
:101E0000FFF7A0FF0220FFF79DFF1020FFF79AFFCA
:101E10004020FFF797FF8120FFF794FFCF20FFF7C7
:101E200091FFA120FFF78EFFC820FFF78BFFA620B0
:101E3000FFF788FFA820FFF785FF3F20FFF782FF0D
:101E4000D320FFF77FFF0020FFF77CFFD520FFF7AF
:101E500079FF8020FFF776FFD920FFF773FFF1208D
:101E6000FFF770FFDA20FFF76DFF1220FFF76AFF20
:101E7000DB20FFF767FF4020FFF764FF2020FFF71C
:101E800061FF0220FFF75EFF8D20FFF75BFF14204C
:101E9000FFF758FFA420FFF755FFA620FFF752FFDA
:101EA000AF20FFF74FFFAF20FFF74CFFBDE810401A
:101EB0000020FFF72BBF10B50446FFF71BFE78206C
:101EC000FFF7F0FD4020FFF7EDFD2046FFF7EAFDAC
:101ED000BDE81040FFF724BE70477047FEF704BE10
:101EE0004FF0E02047214161044AF02182F8141D9F
:101EF0000021816107210161704700000FE000E0CF
:101F000030B593B028216846FEF725F914210AA8B8
:101F1000FEF721F90024022501200F94049000957A
:101F20001020059012944FF4C010CDE90840119490
:101F3000109407956846FFF713F808B172B6FEE7EC
:101F40000F200A90CDE90B540D9401210AA80E949C
:101F5000FEF72AFF08B172B6FEE74FF480401190F9
:101F60000F950FA8FEF7AAFE002801D072B6FEE773
:101F700013B030BD704700000148FFF7B0BA000051
:101F8000C4000020F0B50268164B174C174D4FF0F7
:101F90008047984205D0B84203D0A04201D0A84261
:101FA00003D122F070064A683243984205D0B84205
:101FB00003D0A04201D0A84203D122F44074CA68E1
:101FC00022434C6922F08002224302608A68C26286
:101FD0000A688262984201D1096901630121416165
:101FE000F0BD0000002C014000040040000800404B
:101FF00010B5846842EA032224F47F440A43224352
:10200000826010BD826822F070020A4342F007012C
:102010008160704710B5036A046A24F00104046209
:10202000846924F0F00444EA021423F00A020A430B
:102030008461026210BD10B5036A046A24F01004C2
:102040000462846923F0A00324F4704444EA023259
:1020500043EA01118261016210BD10B5406A00219E
:10206000C185C184FFF708FB10BD01680C3151E840
:10207000002F22F4907241E80023002BF5D1016873
:10208000143151E8002F22F0010241E80023002B17
:10209000F5D1016B012909D101680C3151E8002FFC
:1020A00022F0100241E80023002BF5D1202180F816
:1020B000421000210163704708B590F842102229B0
:1020C00001D0022008BD82684FF480539A4201D1AA
:1020D000016921B1816A9A421BD04AB10AE00268C3
:1020E000816A5268C2F308020A80816A891C08E08A
:1020F000026972B10268526802F07F020A70816A56
:10210000491C8162C18D491E0904090CC18503D097
:102110001BE002685268F1E70168CA6822F02002F9
:10212000CA600168CA6822F48072CA6001684A699C
:1021300022F001024A61202180F84210002141630F
:10214000026B012A03D0FFF76DFC002008BD01637C
:1021500001680C3151E8002F22F0100241E8002301
:10216000002BF5D101680A68D20602D50A684968D1
:102170000091818DFFF77FFAE7E7000070B5044614
:1021800000680169E26821F440511143016121694D
:10219000A0680843616908432168CA6841F20C637A
:1021A0009A430243CA6020684169A26921F44071E0
:1021B000114341611E492068884202D1FEF79AFE10
:1021C00001E0FEF787FE00EBC00101EB0012606842
:1021D00064218000B2FBF0F3B3FBF1F36FF018065B
:1021E0007343B2FBF0F5B2FBF0F605EB8305322347
:1021F00003EB0515B5FBF1F5B6FBF1F605F0F005BF
:1022000005EB0615B2FBF0F6B2FBF0F0B0FBF1F017
:102210006FF01802504306EB800003EB0010B0FB98
:10222000F1F0216800F00F002844886070BD0000C4
:10223000003801400148FFF721BA00000C010020DE
:102240000148FFF71BBA000054010020FEE7090710
:10225000090E002804DB00F1E02080F8001470472C
:1022600000F00F0000F1E02080F8141D704702E03C
:1022700008C8121F08C1002AFAD170477047002011
:1022800001E001C1121F002AFBD170470A49D1E9C0
:102290000101884203D2094A511A0A1800E0421A81
:1022A0000749002001EB80035B6841F82030401CA7
:1022B0000928F7DB4A62704704000020A08601006D
:1022C00024000020024A002111608142FDD17047A4
:1022D0000000002040A28CB00FCA8DE80F0042A081
:1022E0000DF1100C0FC88CE80F0043A208AB07CA11
:1022F00083E80700FFF7F4FDFFF77EFD0021412290
:102300000846FFF741FD00216A460846FFF764FDD5
:1023100004AA00210220FFF75FFD08AA0021042083
:10232000FFF75AFDFEF7E8FBFFF7EAFDFFF736FC83
:10233000FFF70CFCFFF77EFCFFF7AEFCFFF7C8FCD5
:102340003048FEF7CDF93048FFF72EF82D48FDF75D
:1023500097FF26222D492E48FDF7E4FE2B4CE08CFA
:102360002B4DE884A16AA5F128000165A18DA0F894
:102370005410E08DE885206B2863606B6863092248
:1023800004F1380105F13800FDF7CCFE94F8410066
:1023900085F8410094F8420085F84200606C68645A
:1023A00041F28834FFF79CFDFFF726FD0020FFF780
:1023B000ADFC00216A460846FFF70EFD04AA002185
:1023C0000220FFF709FD08AA00210420FFF704FD01
:1023D0002046FEF75BFAE5E7546F206265206F72D6
:1023E000206E6F7420746F002062652E54686174D3
:1023F00020697320610000007175657374696F6EE8
:102400002E00000094000020C40000200C010020D9
:102410004C00002000000000000000000000000050
:1024200000000000000000F8000000000000003381
:102430003000000000100C06100C06000000000028
:102440000000000040C07840C0784000043F040411
:102450003F040400007088FC08300000001820FFD2
:10246000211E0000F008F000E018000000211C030D
:102470001E211E0000F00888700000001E21232489
:1024800019272110000202040000000000000000D3
:1024900000000000000000E0180402000000000737
:1024A0001820400000020418E0000000004020183E
:1024B00007000000404080F0804040000202010F11
:1024C00001020200000000F0000000000101011FF5
:1024D00001010100000000000000000080B0700059
:1024E00000000000000000000000000000010101E9
:1024F0000101010100000000000000000030300078
:102500000000000000000000806018040060180651
:102510000100000000E010080810E000000F10208B
:1025200020100F00001010F8000000000020203FD5
:10253000202000000070080808887000003028245F
:102540002221300000300888884830000018202000
:1025500020110E000000C02010F800000007042425
:10256000243F240000F8088888080800001921206A
:1025700020110E0000E0108888180000000F1120C4
:1025800020110E0000380808C83808000000003F7D
:10259000000000000070880808887000001C2221DC
:1025A00021221C0000E010080810E0000000312289
:1025B00022110F00000000C0C00000000000003029
:1025C000300000000000008000000000000080607B
:1025D00000000000000080402010080000010204FC
:1025E00008102000404040404040400004040404E3
:1025F000040404000008102040800000002010089F
:1026000004020100007048080808F00000000030D3
:1026100036010000C030C828E810E0000718272461
:1026200023140B000000C038E0000000203C23020F
:102630000227382008F8888888700000203F202072
:1026400020110E00C03008080808380007182020A4
:102650002010080008F808080810E000203F20209B
:1026600020100F0008F88888E8081000203F20207C
:102670002320180008F88888E8081000203F200070
:1026800003000000C03008080838000007182020A8
:10269000221E020008F808000008F808203F210167
:1026A00001213F20000808F8080800000020203F12
:1026B0002020000000000808F8080800C080808082
:1026C0007F00000008F888C028180800203F20017B
:1026D0002638200008F8080000000000203F2020D5
:1026E0002020300008F8F800F8F80800203F003FEC
:1026F000003F200008F830C00008F808203F200004
:1027000007183F00E01008080810E0000F10202014
:1027100020100F0008F808080808F000203F2101E9
:1027200001010000E01008080810E0000F18242440
:1027300038504F0008F8888888887000203F2000B3
:10274000030C302000708808080838000038202169
:1027500021221C00180808F8080818000000203F73
:102760002000000008F808000008F808001F2020DA
:1027700020201F000878880000C8380800000738AB
:102780000E010000F80800F80008F800033C0700FC
:10279000073C0300081868808068180820302C0364
:1027A000032C30200838C800C83808000000203F3B
:1027B0002000000010080808C8380800203826212A
:1027C00020201800000000FE020202000000007F2E
:1027D00040404000000C30C000000000000000013C
:1027E0000638C00000020202FE0000000040404027
:1027F0007F0000000000040202020400000000004C
:1028000000000000000000000000000080808080C8
:102810008080808010160E00000000000000000084
:102820000000000000008080808000000019242249
:1028300022223F2008F8008080000000003F112085
:1028400020110E000000008080800000000E11208A
:1028500020201100000000808088F800000E112068
:1028600020103F200000808080800000001F222276
:1028700022221300008080F0888888180020203FE2
:10288000202000000000808080808000006B9494F5
:102890009493600008F8008080800000203F2100B1
:1028A00000203F2000809898000000000020203F7A
:1028B00020200000000000809898000000C0808068
:1028C000807F000008F8000080808000203F240204
:1028D0002D302000000808F8000000000020203FF4
:1028E000202000008080808080808000203F2000A9
:1028F0003F20003F8080008080800000203F21003A
:1029000000203F200000808080800000001F2020E9
:1029100020201F00808000808000000080FFA12018
:1029200020110E000000008080808000000E112029
:1029300020A0FF80808080008080800020203F21B8
:10294000200001000000808080808000003324246B
:1029500024241900008080E0808000000000001F17
:10296000202000008080000000808000001F2020C8
:1029700020103F20808080000080808000010E3089
:102980000806010080800080008080800F300C03EA
:102990000C300F0000808000808080000020312EED
:1029A0000E312000808080000080808080818E70C9
:1029B0001806010000808080808080000021302C7B
:1029C0002221300000000000807C02020000000094
:1029D000003F404000000000FF0000000000000039
:1029E000FF0000000002027C800000000040403F29
:1029F00000000000000601010202040400000000C3
:102A000000000000010202030405060708090A0B82
:102A10000C0D0E0F10100102020304050607080931
:102A20000A0B0C0D0E0F101000000000000000003B
:102A30000102030406070809000000000102030464
:102A4000602A000800000020240000006E22000818
:102A5000842A0008240000207C0500007E22000853
:102A60000000000000000000000000000000000066
:102A70000000000001000000100000000000000045
:042A80000024F4003A
:04000005080000ED02
:00000001FF
