:020000040800F2
:10000000400900200101000823280008732400088B
:10001000212800085D090008092E000800000000E2
:100020000000000000000000000000003B2A000863
:100030005F09000800000000392A00083D2A000876
:100040001B0100081B0100081B0100081B01000820
:100050001B0100081B0100081B01000861090008C2
:100060001B0100081B0100081B0100081B01000800
:100070001B0100081B0100081B0100081B010008F0
:100080001B0100081B0100087D0800081B01000877
:100090001B0100081B0100081B0100081B010008D0
:1000A0001B010008BD2A00081B0100081B010008F5
:1000B0001B0100081B0100081B0100081B010008B0
:1000C0001B0100081B0100081B0100081B010008A0
:1000D0001B010008F12D0008FD2D00081B01000880
:1000E0001B0100081B0100081B010008DFF80CD0F1
:1000F00000F066FB00480047713900084009002005
:100100000648804706480047FEE7FEE7FEE7FEE7B1
:10011000FEE7FEE7FEE7FEE7FEE7FEE7B92A000896
:10012000ED000008202A04DB203A21FA02F0002129
:10013000704721FA02F3D040C2F1200291400843F7
:100140001946704740EA01039B0703D009E008C93C
:10015000121F08C0042AFAD203E011F8013B00F88C
:10016000013B521EF9D27047D2B201E000F8012BD8
:10017000491EFBD270470022F6E710B513460A4627
:1001800004461946FFF7F0FF204610BD30B480EA60
:10019000010202F0004530F0004221F0004013D08F
:1001A00090B1C30DD40DC2F31601C0F31600E41ACA
:1001B00041F4000140F400027D34914201D3641CFB
:1001C00000E04900002C02DA30BC002070474FF4F8
:1001D00000000023914201D3891A034340084FEAEB
:1001E0004101F7D151B1914202D14FF0004105E0F8
:1001F00002D24FF0010101E06FF0010103EBC450A6
:10020000284430BC00F089B92DE9FE4F81EA03048F
:1002100004F0004421F0004100944FF0000B23F063
:10022000004350EA01045ED052EA03045BD0C3F3FA
:100230000A54C1F30A552C44A4F2F3340194A0FBF0
:100240000254C1F3130141F48011C3F3130343F4C7
:10025000801301FB024400FB034E840A970A44EA20
:10026000815447EA8357A4FB076802958D0A05FB72
:1002700007854FEA932C04FB0C542705029D4FEA97
:10028000065847EA1637B5EB08056EEB070C870EE4
:10029000920E47EA811742EA8312A7FB0201B6EBEE
:1002A0000B0164EB00042B0D43EA0C335E1844EBA6
:1002B0001C50DA465146E7FB0201C5F313044FEA2E
:1002C0000B3343EA14534FEA0432019C43EA06031A
:1002D000A4F10C040294009CCDE900B400F063F991
:1002E00003B0BDE8F08F00200146F9E72DE9F04D9D
:1002F00081EA030404F0004B21F0004514464FF05E
:10030000000A23F0004150EA050220D054EA01021D
:100310001DD0C5F30A570246C5F31303C1F31300FA
:10032000C1F30A5640F4801543F48013A7EB060886
:10033000101BD64608F2FD3873EB050002D308F116
:10034000010801E092185B41B8F1000F03DA0020C8
:100350000146BDE8F08D00204FF48011064684462A
:100360000EE0171B73EB050705D3121B63EB0503A8
:1003700006434CEA010C49084FEA300092185B41F1
:1003800050EA0107EDD152EA030012D082EA0400DC
:1003900083EA0501084305D0101BAB4106D20122B8
:1003A000002306E000224FF0004302E06FF001025C
:1003B00053101AEB06004CEB085110EB0A0041EB0E
:1003C0000B01BDE8F04D00F0DFB896230022114686
:1003D00000F0ACB8C1F30A5210B5C1F3130140F2FA
:1003E000FF3341F480119A4201DA002010BD40F23F
:1003F00033439A42A2F2334203DC5242FFF792FEA9
:1004000010BD904010BD00F0004230F000400AD016
:10041000C10D01F56071C0F3160042EA0151C20836
:1004200040071143704700200146704730B5041E55
:1004300071F1000404DB4FF00044404264EB010121
:10044000141E73F1000405DB1C464FF000435242BA
:1004500063EB04038B4208BF824230BD30B5041EFB
:1004600071F1000404DB4FF00044404264EB0101F1
:10047000141E73F1000405DB1C464FF0004352428A
:1004800063EB0403994208BF904230BD30B50B4680
:10049000014600202022012409E021FA02F59D42B4
:1004A00005D303FA02F5491B04FA02F52844151E88
:1004B000A2F10102F1DC30BD2DE9F05F054600201C
:1004C00092469B4688460646814640241BE02846C5
:1004D000414647462246FFF725FE53465A46C01A74
:1004E000914110D311461846224600F07BF92D1A8F
:1004F00067EB01084F4622460120002100F072F907
:1005000017EB00094E41201EA4F10104DFDC484630
:1005100031462A464346BDE8F09F0029A8BF7047F0
:10052000401C490008BF20F00100704710B4B0FA29
:1005300080FC00FA0CF050EA010404BF10BC7047C4
:1005400049B1CCF1200421FA04F411FA0CF118BFDE
:10055000012121430843A3EB0C01CB1D4FEA0061AD
:100560004FEA102042BF002010BC704700EBC35080
:1005700010440029A4BF10BC7047401C490008BFAC
:1005800020F0010010BC704710B5141E73F1000478
:1005900008DA401C41F1000192185B411A4301D175
:1005A00020F0010010BD2DE9F04D92469B4611B19F
:1005B000B1FA81F202E0B0FA80F22032904600F007
:1005C00011F904460F4640EA0A0041EA0B0153467E
:1005D0005A46084313D0114653EA010019D0C8F116
:1005E00040025046FFF79EFD05460E4650465946CE
:1005F000424600F0F7F8084305D0012004E0204609
:100600003946BDE8F08D0020054346EAE0762C43EC
:1006100037430A986305E40AA0EB08000022FD0AAC
:1006200044EA47540A3002D500200146E9E70105B3
:1006300010196941DDE9084500196941BDE8F04D2F
:10064000A2E72DE9FE4F804681EA0300C00F0C4669
:10065000009021F0004123F00045B8EB0200A941D1
:1006600005D24046214690461C460B46024623F0E2
:100670000040104347D0270DC7F30A00C3F30A51C7
:100680000290401A019040286BDAC3F3130040F443
:10069000801B0098924620B10023D2EB030A63EB43
:1006A0000B0B01985946C0F14002504600F09AF8F1
:1006B00006460D4650465946019A00F0A2F810EB46
:1006C00008006141002487EA115284EAE7731A4363
:1006D00040D0009A62B3019A012A4FEA075215DC12
:1006E000001B61EB02014FF0004202EA0752CDE924
:1006F0000042001C41F5801132462B46FFF753FFA4
:1007000003B0BDE8F08F40462146F9E7001B61EBDE
:100710000201001C41F5801300185B412018A2F56E
:10072000001747EB030140EAD570B6196D4111E09F
:100730006D084FEA360645EAC0754FEA0752001BBE
:1007400061EB0201001C41F5801149084FEA3000BD
:100750000019514132462B4603B0BDE8F04FFFF778
:1007600013BF0098012240000023D0EB020263EB8C
:10077000E073009821464FEAE074B8EB000061EBAB
:100780000401E9E783F000435BE781F0004158E7AB
:10079000C1F30A52C1F3130140F2FF3341F4801157
:1007A0009A4202DA00200146704740F233439A42EF
:1007B000A2F2334202DC5242FFF7B4BC00F012B89E
:1007C000064C074D06E0E06840F0010394E807009E
:1007D00098471034AC42F6D3FFF78CFC80400008F9
:1007E000A0400008202A04DB203A00FA02F1002091
:1007F00070479140C2F1200320FA03F3194390405F
:100800007047202A06DBCB17203A41FA02F043EA70
:10081000E07306E041FA02F3D040C2F120029140B9
:1008200008431946704770B58C1810F8015B15F035
:10083000070301D110F8013B2A1106D110F8012B52
:1008400003E010F8016B01F8016B5B1EF9D12B0777
:1008500005D40023521E0DD401F8013BFAE710F82D
:10086000013BCB1A921C03E013F8015B01F8015B1A
:10087000521EF9D5A142D8D3002070BD014800F026
:1008800072B900009C03002070B5044600688168BE
:10089000C943C90717D1816821F00101816000F0C7
:1008A00079FC05460AE000BF00F074FC401B0228FA
:1008B00004D920688068C043C00706D020688068DB
:1008C000C043C007F0D0002070BDA06A40F0100007
:1008D000A062E06A40F00100E062012070BD00000B
:1008E000F8B500260446009600688168C943C90728
:1008F0002DD0816841F001018160164816490068D9
:10090000B0FBF1F000E0401E00900028FBD100F0A9
:1009100041FC054616E000BF00F03CFC401B0228ED
:1009200010D920688068C043C0070BD0A06A40F08F
:100930001000A062E06A40F00100E06284F82460E8
:100940000120F8BD20688068C043C007E4D10020C2
:10095000F8BD00003803002040420F00FEE770475A
:10096000022000F015BB72B6FEE70000F8B50025C6
:100970000446009590F8240001280BD0012084F84B
:1009800024002046FFF780FF2046FFF7A9FF06005E
:1009900002D050E00220F8BDA06A20F4885040F058
:1009A0000200A062022000F085FD25490968B1FB24
:1009B000F0F0400000E0401E00900028FBD12068CD
:1009C000816841F00801816000F0E4FB074608E01F
:1009D00000F0E0FBC01B0A2803D9206880680007EC
:1009E00015D4206880680007F2D42068816841F03F
:1009F0000401816000F0CEFB074612E000F0CAFB64
:100A0000C01B0A280DD920688068400709D5A06A54
:100A100020F0020040F01000A06284F82450012071
:100A2000F8BD206880684007E8D4A06A20F0020082
:100A300040F00100A06284F824503046F8BD000068
:100A40003803002070470000F8B50024009490F8A7
:100A500024202546012A12D0012280F824204A6849
:100A60001F23072A0DD20668776B521E02EB820203
:100A700093409F430B6893401F43776319E0022024
:100A8000F8BD06680D2A0AD2376BD21F02EB82022C
:100A900093409F430B6893401F43376309E0F76A15
:100AA0000D3A02EB820293409F430B6893401F4331
:100AB000F7620A68072306680A2A0AD3F7680A3A1F
:100AC00002EB420293409F438B6893401F43F760C1
:100AD00008E0376902EB420293409F438B689340E2
:100AE0001F4337610A68102A01D0112A20D1124B06
:100AF00002689A4217D193681B0219D4936843F491
:100B0000000393600968102912D10C490C4A096846
:100B1000B1FBF2F101EB8101490000E0491E0091B7
:100B20000029FBD104E0816A41F0200181620124A7
:100B300080F824502046F8BD0024014038030020EE
:100B400040420F0010B5044C20886080034800F03C
:100B500007F8208010BD0000C00200209C03002088
:100B60000068C06C704770B5044600680668456848
:100B7000A90625D5B10723D5A16AC90603D4A16A60
:100B800041F40071A1628168C1F34241072910D18B
:100B9000217B71B9416821F020014160A06A20F4F5
:100BA0008070A062A06AC00403D4A06A40F0010073
:100BB000A0622046FFF7C6FF21686FF012000860B0
:100BC00028062ED570072CD5A06AC00603D4A06ACB
:100BD00040F40050A06220688168C1F30231072907
:100BE00009D04168490515D48168C1F342410729FC
:100BF00010D1217B71B9416821F080014160A06A68
:100C000020F48050A062A06AC00503D4A06A40F01E
:100C10000100A0622046FFF715FF21686FF00C006D
:100C2000086068060CD5F0070AD0A06A40F480304E
:100C3000A062204600F094F821686FF0010008607F
:100C400070BD00002DE9F0414FF0000704003D4663
:100C50007ED0A06A002628B9E66284F82460204687
:100C600000F080F82046FFF70FFEA16AC90600D405
:100C700020B1A06A40F01000A06269E0A16A21F4EE
:100C8000885141F00201A1626268E169237B0A4355
:100C900047EA43010A43A1684FF48077B94209D07B
:100CA000012907D05FF0000194F814C0BCF1010FD6
:100CB00002D00AE03946F7E7F3B1A36A43F0200314
:100CC000A362E36A43F00103E3622368D3F804C03C
:100CD0002CF4694C4CEA010CC3F804C021688B6801
:100CE000DFF870C003EA0C0313438B60A168B942BC
:100CF0000BD0012909D00CE0DFF85CC0A3690CEB34
:100D000043330B4343F40061DFE7218A0D05A5F56A
:100D100080152168CB6A23F470032B43CB622168D2
:100D200089680E4B1940914208D1E662A16A21F010
:100D3000020141F00101A162BDE8F081A06A20F04A
:100D4000020040F01000A062E06A40F00100E062A2
:100D50000120F1E7FDF7E1FF00E0FFFFFE0E1FFFBE
:100D60007047000000B585B000210091019102910B
:100D7000039100681249884220D11248816941F4E8
:100D800000718161816901F400710491816941F010
:100D9000080181618069694600F008000490012023
:100DA000009003200190084800F0FEF80022114650
:100DB000122000F04DFB122000F03CFB05B000BDFE
:100DC0000024014000100240000C014070B50446B0
:100DD00090F8240001280DD0012084F8240020463A
:100DE000FFF77EFD02004FF0000005D084F82400DC
:100DF000104670BD022070BDA16A40F601639943A0
:100E000041F48071A162224D23682249AB4218D17E
:100E10000E6816F4702F14D0A66A46F48016A662E7
:100E20000E68760505D5A66A26F4005646F4805667
:100E3000A662A66AF6040AD5E66A26F00606E66207
:100E400006E0A66A26F48016A6625E68E9E7E0621C
:100E500084F824006FF0020018602068436843F0B3
:100E60002003436020688368C3F34243072B05D106
:100E7000A84208D1096811F4702F04D0816841F4A8
:100E800080118160B4E7816841F4A001F9E70000B6
:100E9000002801400424014010B590F821100022E0
:100EA000022905D00421816380F82020012010BD93
:100EB00001680B6823F00E030B6001680B6823F0D8
:100EC00001030B6090F84030C46B012101FA03F379
:100ED000636080F8211080F82020104610BD0000CB
:100EE00010B590F821100024022903D00421816359
:100EF00001243DE001680A6822F00E020A600168E0
:100F00000A6822F001020A601A4A0168914201D17E
:100F1000012121E0174A1432914201D110211BE036
:100F2000144A2832914201D1891515E0114A3C3208
:100F3000914201D189140FE00E4A5032914202D100
:100F40004FF4803108E00B4A6432914202D14FF4F1
:100F5000801101E04FF08071064A083A516001218A
:100F600080F82110002180F82010416B01B18847E2
:100F7000204610BD0800024000B5800704D502F0ED
:100F8000CFFB02484168816000BD0000C002002024
:100F9000044910B50A68024202D00860FFF7ECFF6E
:100FA00010BD0000140401402DE9F84FDFF8B8919E
:100FB0000024A9F1040B23460F2709F1040AABF121
:100FC000040EC9E00125A5402A40AA427DD1674E02
:100FD000D1F804C0ACEB0608B44532D014DCBCF147
:100FE000030F3AD009DCBCF1000F2AD0BCF1010F8D
:100FF0001CD0BCF1020F31D11DE0BCF1110F17D094
:10100000BCF1120F2AD119E0B8F5881F19D006DCFF
:10101000B8F5803F15D0B8F5801F1FD111E0B8F5A5
:10102000001F0ED0B8F5041F18D10AE0CB6815E0F8
:10103000CB681B1D12E0CB6808330FE0CB680C3384
:101040000CE08B682BB1012B4FF0080303D04561F6
:1010500004E0042302E0056100E00023FF2A01D838
:10106000064601E000F104064FEA840501D9A5F126
:101070002005D6F8008007FA05FC28EA0C0803FAD8
:1010800005F548EA0508C6F800804D68ED0062D510
:10109000374DAE6946F00106AE61AD6924F0030636
:1010A00005F001050095334D06EB050CDCF8085002
:1010B000A607360F07FA06F825EA0805DFF8B88014
:1010C000404503D14FF0000817E044E0DFF8AC8062
:1010D000404502D14FF001080FE0DFF8A480404501
:1010E00002D14FF0020808E0DFF89880404502D1B5
:1010F0004FF0030801E04FF0040808FA06F848EA48
:101100000508CCF808804D68D9F80060ED024D461E
:1011100001D5164300E096432E604D68DAF8006072
:10112000AD02554601D5164300E096432E604D684A
:10113000DBF80060AD035D4601D5164300E0964341
:101140002E604D68DEF80060ED03754601D516434C
:1011500000E096432E60641C0D682A46E5407FF44B
:1011600031AFBDE8F88F0000080401400000111005
:10117000001002400000014000080140000C014046
:1011800000100140001401400AB1016170470904D8
:10119000FBE7000001488068704700002C03002036
:1011A00070B5040025D094F83D00002520B984F8DE
:1011B0003C50204600F0B8F8242084F83D00206818
:1011C000016821F0010101602068016841F40041DB
:1011D00001602068016821F40041016000F0C8FA54
:1011E0004D4A6168914201D84C4900E04C4988421F
:1011F00001D2012070BD4B492368B0FBF1F15E685C
:1012000026F03F060E435E606368934206D94FF4B2
:10121000967359434FF47A73B1FBF3F12368491C79
:101220001E6A26F03F06314319626168914210D868
:101230004900401EB0FBF1F2521CC2F30B02042A1B
:1012400001D2042022E0B0FBF1F0401CC0F30B00FF
:101250001CE0A268F2B301EBC10303EB0116431ECD
:10126000B3FBF6F35B1C43F480431B0549D092B3F8
:1012700001EBC10202EB0111401EB0FBF1F0401C7A
:10128000C0F30B0040F4804040F400402168CA697C
:101290004CF6FF739A431043C861D4E90710014329
:1012A0002068026822F0C00211430160D4E9030102
:1012B00001432068826848F2FF339A4311438160FA
:1012C000D4E9050108432168CA6822F0FF021043EF
:1012D000C86001E00EE016E02068016841F00101FD
:1012E00001602564202084F83D00256384F83E5089
:1012F000002070BD01EB4106431EB3FBF6F35B1CFF
:10130000B3E70120C2E701EB4101401EB0FBF1F061
:10131000401CC0F30B00B7E7A086010080841E00CC
:1013200000093D0040420F0010B586B00021009139
:1013300001910291039100680F4988421AD10F4C24
:10134000A06940F00800A061A069694600F00800AB
:101350000490C020009012200190032003900848C0
:10136000FFF722FEE06940F40010E061E06900F45C
:101370000010049006B010BD005400400010024060
:10138000000C014002488168027811448160704776
:101390002C030020074810B5016841F010010160DE
:1013A000032000F075F80F2000F006F800F024F894
:1013B000002010BD0020024070B50D4D04464FF4D2
:1013C0007A712878B1FBF0F00A490968B1FBF0F0B6
:1013D00000F0A4FB48B9102C07D200222146501E71
:1013E00000F036F800206C6070BD012070BD000078
:1013F0002C030020380300200C4808B5816941F017
:1014000001018161816901F001010091C16941F02F
:101410008051C161C06900F080500090044841686B
:1014200021F0E06141F00071416008BD0010024010
:1014300000000140002809DB00F01F02012191405B
:101440004009800000F1E020C0F800117047000062
:10145000F0B40E4B1B680C46C3F30223C3F107051F
:10146000042D00D90425191D072901D2002300E00D
:10147000DB1E012606FA05F1491E214099409E40D7
:10148000761E16403143F0BC01F0D0BC0CED00E0FC
:10149000064900F0070208684FF6FF03184040EACB
:1014A0000220034A10430860704700000CED00E082
:1014B0000000FA0510B501460020234C012922D076
:1014C000022939D010291DD161682268D20119D5AD
:1014D0001E48C1F38342C903805C0AD561681B4A78
:1014E000C1F34041921E515C194AB2FBF1F14843ED
:1014F00001E0184948436168490203D440000321D0
:10150000B0FBF1F010BD226AC2F30121012903D121
:10151000920701D5C80310BD022905D1626A92075E
:1015200002D549F6404010BD0329FCD1216889034A
:10153000F9D54FF2244010BD00F02AF96168C1F3DB
:101540008131491C4900DBE7001002405840000887
:1015500000127A0000093D002DE9F84305460078A5
:10156000354CC00754D0E0690026C00008D4E069BB
:1015700040F08050E061E069012600F0805000906A
:101580002E480168C90512D40168804641F4807173
:101590000160FFF7FFFD074605E000BFFFF7FAFD1A
:1015A000C01B642823D8D8F80000C005F6D5206AEF
:1015B00010F4407021D0A98801F4407181421CD000
:1015C000206A1F49012220F440700A6000220A604C
:1015D0002062C00711D0FFF7DDFD074641F28838D1
:1015E00008E000BFFFF7D6FDC11B414502D903202B
:1015F000BDE8F883206A8007F4D5206A696820F482
:101600004070084320621EB1E06920F08050E06124
:101610002878800705D56068A96820F44040084311
:1016200060602878C00605D56068E96820F480000D
:10163000084360600020DBE70010024000700040BB
:10164000400442422DE9F0470F46050061D0434E69
:10165000306800F00700B84209D2306820F0070077
:1016600038433060306800F00700B84251D1286834
:101670003B4C810712D5400703D5606840F4E06019
:1016800060602878000703D5606840F460506060AF
:101690006068A96820F0F000084360602878C007FF
:1016A00028D06868012810D02168022810D0890746
:1016B00000292EDA616821F0030101436160FFF720
:1016C00069FD804641F288390DE021688903EFE722
:1016D0008901EDE7FFF75EFDA0EB0801494502D95E
:1016E0000320BDE8F0876068696800F00C00B0EB8B
:1016F000810FEFD1306800F00700B8420BD9306895
:1017000020F0070038433060306800F00700B8422E
:1017100001D00120E5E72878400705D56068E96831
:1017200020F4E060084360602878000706D5606810
:10173000296920F4605040EAC100606000F038F888
:101740006168084AC1F30311515CC840064908604A
:1017500006480068FFF730FE0020C2E70020024084
:1017600000100240684000083803002030030020C9
:101770000448054900684968044AC1F30221515CE4
:10178000C84070473803002000100240784000082D
:101790000448054900684968044AC1F3C221515C04
:1017A000C84070473803002000100240784000080D
:1017B0000E4A51680E4801F00C03042B11D0082B7F
:1017C0000FD10C48C1F38343C903C05C0AD55168EB
:1017D000084AC1F34041921E515C054A5043B0FB98
:1017E000F1F0704704494843704700000010024080
:1017F00000127A004640000800093D002DE9F84F2C
:10180000040070D02078C04DC00749D06868C0F38C
:101810008100012807D06868C0F38100022809D13F
:101820006868C00306D52868800339D56068002839
:10183000E7D035E06068B0F5803F0BD010B1B0F56F
:10184000A02F11D0286820F480302860286820F468
:10185000802002E0286840F480302860606890B101
:10186000FFF798FC06460AE0286840F480202860CC
:10187000F0E700BFFFF78EFC801B642873D8286850
:101880008003F7D50CE0FFF785FC064605E000BFB6
:10189000FFF780FC801B6428F0D828688003F7D409
:1018A00020789A4E80074FF001094FF0000839D593
:1018B000686810F00C0F07D06868C0F38100022838
:1018C00009D16868C00306D42868800714D5206948
:1018D000012808D110E02069B0B1C6F80090FFF7E8
:1018E00059FC074605E00AE1FFF754FCC01B02283B
:1018F000C4D828688007F7D52868616920F0F80007
:1019000040EAC10028600DE0C6F80080FFF742FC05
:10191000074604E0FFF73EFCC01B022823D82868D6
:101920008007F7D4207800072CD57948A169D9B170
:10193000C0F80090FFF72EFC074604E0FFF72AFCF2
:10194000C01B02280FD8686A8007F7D571484FF48A
:10195000FA510068B0FBF1F0009000BF0098411E02
:101960000091FAD20EE080E0C0F80080FFF712FC90
:10197000074604E0FFF70EFCC01B022875D8686A12
:101980008007F7D42078400760D5E8690027C000B9
:1019900008D4E86940F08050E861E869012700F068
:1019A000805000905C480168C90513D401688346E3
:1019B00041F480710160FFF7EDFB824606E000BF55
:1019C000FFF7E8FBA0EB0A0064284ED8DBF8000024
:1019D000C005F5D5E06801280AD008B1052813D064
:1019E000286A20F001002862286A20F0040002E042
:1019F000286A40F001002862E06841F2883B98B113
:101A0000FFF7C8FB82460BE0286A40F0040028621A
:101A1000EEE700BFFFF7BEFBA0EB0A0159455AD81D
:101A2000286A8007F6D50CE0FFF7B4FB824605E094
:101A3000FFF7B0FBA0EB0A0159454CD8286A800794
:101A4000F6D41FB1E86920F08050E861E06988B3FE
:101A50006968C1F38101022944D00228C6F8608078
:101A600004D0FFF797FB044638E034E0FFF792FB21
:101A7000074604E0FFF78EFBC01B02282BD828681E
:101A80008001F7D4206AB0F5803F05D16868A1686D
:101A900020F4003008436860D4E90801084369680D
:101AA00021F4741108436860C6F86090FFF772FB78
:101AB000044606E025E000BFFFF76CFB001B022890
:101AC00009D828688001F7D51BE000BFFFF762FB4B
:101AD000001B022802D90320BDE8F88F2868800186
:101AE000F4D40EE00128F7D06868226A00F480314F
:101AF000914204D1616A00F47010884201D0012043
:101B0000EAE70020E8E7000000100240000042423F
:101B100080044242380300200070004010B5401E8F
:101B2000B0F1807F01D3012010BD4FF0E02460614F
:101B30000F21601701F07AF90020A06107202061D1
:101B4000002010BD7047704770B590F83C20012A06
:101B500026D0012480F83C40022280F83D20036812
:101B60005A689D6822F070060A6832435A600D4B2D
:101B700002689A4208D0B2F1804F05D00A4B9A42CF
:101B800002D00A4B9A4204D1496825F080031943D8
:101B9000916080F83D40002180F83C10084670BDFF
:101BA000022070BD002C01400004004000080040ED
:101BB00010B5040003D094F83D0010B107E00120F7
:101BC00010BD002084F83C00204600F01FF80220E1
:101BD00084F83D00211D206800F076FF012084F884
:101BE000460084F83E0084F83F0084F8400084F802
:101BF000410084F8420084F8430084F8440084F8EB
:101C0000450084F83D00002010BD000008B5114AD1
:101C100001681148914211D1816941F400618161EB
:101C20008069002200F40060009007211920FFF76E
:101C30000FFCBDE808401920FFF7FCBBB1F1804F55
:101C400007D1C16941F00101C161C06900F0010023
:101C5000009008BD002C01400010024090F83D109B
:101C6000012901D001207047022180F83D10016850
:101C7000CA6842F00102CA6000680B49884208D075
:101C8000B0F1804F05D00949884202D00849884206
:101C900004D1816801F00701062903D0016841F0F1
:101CA0000101016000207047002C01400004004049
:101CB0000008004070B5044690F83C00002501285B
:101CC00017D0012684F83C60022084F83D0020688B
:101CD000826822F0770222F47F42826008685028EE
:101CE00038D00DDC20284FD005DC90B3102811D15E
:101CF0004AE0022070BD302846D040280AD13BE09F
:101D000060282FD070280DD0B0F5805F03D0B0F5DB
:101D1000005F12D0012584F83D60002084F83C006B
:101D2000284670BDCB68D1E90121206800F002FF90
:101D30002068816841F0770109E0CB68D1E9012191
:101D4000206800F0F7FE2068816841F480418160DE
:101D5000E1E719E0CA684968206800F0FDFE5021FB
:101D6000206806E0CA684968206800F006FF602124
:101D7000206800F0E9FECEE7CA684968206800F0F4
:101D8000EBFE40212068F4E7226801461046F0E7A8
:101D9000704770B50446006801694FF00005C943FB
:101DA000890715D4C168C943890711D4E91E0161A7
:101DB00001202077206880698007204602D0FFF745
:101DC000E7FF04E000F098F8204600F096F8257749
:101DD00020680169C943490717D4C168C943490745
:101DE00013D46FF00401016102202077206880691C
:101DF00010F4407F204602D0FFF7CAFF04E000F055
:101E00007BF8204600F079F8257720680169C943FE
:101E1000090716D4C168C943090712D46FF0080135
:101E20000161042020772068C0698007204602D025
:101E3000FFF7AEFF04E000F05FF8204600F05DF829
:101E4000257720680169C943C90617D4C168C94309
:101E5000C90613D46FF010010161082020772068B3
:101E6000C06910F4407F204602D0FFF791FF04E0E4
:101E700000F042F8204600F040F82577206801691C
:101E8000C943C90708D1C168C943C90704D1891E1C
:101E90000161204600F032F820680169C943090653
:101EA00009D4C168C943090605D46FF080010161F6
:101EB0002046FFF747FE20680169C943490609D457
:101EC000C168C943490605D46FF04001016120464D
:101ED00000F0A8F820680169C94389060BD4C168DD
:101EE000C943890607D46FF0200101612046BDE88F
:101EF0007040FFF728BE70BD704770472DE9F04174
:101F00003E49884277D13E4D3E496868401C686032
:101F1000884201D9002068600A21B0FBF1F201FB80
:101F2000120010B93848FEF751FF68686421B0FB11
:101F3000F1F2364C01FB1201A4F1140704F1380848
:101F400031BB262232492046FEF7FCF8304EF08C99
:101F5000E084B06AF863B08DA7F84000F08DE085AA
:101F6000306B2063706B6063092206F138014046D4
:101F7000FEF7E8F896F8410084F8410096F8420030
:101F800084F84200706C6064298822A000F03EFF53
:101F900068684FF4FA61B0FBF1F201FB120000280F
:101FA00029D126221D491948FEF7CCF81B4EF08C8A
:101FB000E084B06AF863B08DA7F84000F08DE0854A
:101FC000306B2063706B6063092206F13801404674
:101FD000FEF7B8F896F8410084F8410096F8420000
:101FE00084F84200706C6064D5E90823BDE8F041D4
:101FF0000BA000F00BBFBDE8F08100002004002022
:10200000C0020020A08601009C0300205403002091
:10201000B004002025640D0A00000000F804002030
:1020200025660A007047704770470000F8B50168E0
:1020300004460868CA684B6910F00F0F4FF000059E
:1020400059D003F0010602F49077374365D0C107F9
:1020500005D0D10503D5616C41F0010161644107F0
:1020600005D5D90703D0616C41F002016164810795
:1020700005D5D90703D0616C41F004016164010703
:1020800007D502F02001314303D0616C41F0080113
:102090006164616C00293AD0800604D5900602D5AF
:1020A000204600F0ABFD20684069616CC0F38010F1
:1020B000090700D460B3204600F079FD206840692C
:1020C000400621D52068143050E8001F21F040015F
:1020D00040E80012002AF5D1E06BA8B16D494163D8
:1020E000E06BFEF7FDFE002811D0E06B416B01B004
:1020F000BDE8F040084783060FD593060DD520466E
:10210000BDE8F84000F07ABD2046FFF78DFFF8BD2E
:102110002046FFF789FF6564F8BD266B2023012E5A
:102120007CD1C6067AD5D60678D50868486800906E
:1021300048694FF00206400640D5E16B08684068E8
:102140000004000CE8D0A28D8242E5D9E0858869C0
:1021500020282DD020680C3050E8001F21F4807119
:1021600040E80012002AF5D12068143050E8001F22
:1021700021F0010140E80012002AF5D12068143056
:1021800050E8001F21F0400140E80012002AF5D17C
:1021900084F84230256320680C3050E8001F21F09D
:1021A000100140E80012002AF5D1E06BFEF774FE42
:1021B0006663A08DE18D401A81B22AE0A08DE18D89
:1021C000401A81B2E08D0028A6D00029A4D0226850
:1021D0000C3252E8000F20F4907042E80007002F04
:1021E000F5D12068143050E8002F22F0010240E8B9
:1021F0000027002FF5D184F84230256320680C3089
:1022000050E8002F22F0100240E80023002BF5D107
:1022100066632046FFF707FFF8BDFFE705062BD5ED
:10222000150629D594F841002128F5D1A068B0F50C
:10223000805F01D12069B0B1206A411C2162216810
:1022400000784860E08C401E0004000CE084E3D17C
:102250002068C16821F08001C1602068C16841F038
:102260004001C160D8E7206A0088C0F308004860D8
:10227000206A801C2062E5E74006CDD55006CBD50C
:10228000CA68204622F04002CA6084F8413000F05B
:10229000EFF8C1E79F2B000870B5040004D094F854
:1022A0004100002510B106E0012070BD84F84050C7
:1022B000204600F023F8242084F841002068C168FB
:1022C00021F40051C160204600F0FAFC2068016949
:1022D00021F4904101612068416921F02A014161A6
:1022E0002068C16841F40051C1606564202084F811
:1022F000410084F842006563002070BD70B586B06F
:10230000002400940194029403942E4E03682E49F5
:10231000022003222D4DB34226D18B6943F4804322
:102320008B618B6903F4804304938B6943F004034E
:102330008B618969039201F0040104910102CDE9E6
:10234000001069462846FEF72FFE2815CDE9000447
:10235000694628460294FEF727FE00220221252026
:10236000FFF776F8252028E0194EB34227D1CB6934
:1023700043F40033CB61CB6903F4003304938B69DE
:1023800043F004038B618969039201F00401049115
:102390000421CDE9001069462846FEF705FE082015
:1023A000CDE90004694628460294FEF7FDFD0022AF
:1023B00002212620FFF74CF82620FFF73BF806B055
:1023C00070BD0000003801400010024000080140CC
:1023D0000044004070472DE9F843044690F841005E
:1023E0001F4616460D46202802D00220BDE8F8837D
:1023F0007DB176B100206064212084F84100FEF7B1
:10240000C9FEA6848046E684A068B0F5805F02D04D
:1024100003E00120EAE7206910B12E4600250EE016
:1024200000260CE08021204600F0A6FCA0B9AEB149
:1024300016F8010B21684860E08C401EE084E08CB7
:1024400043464FF0000200970028EBD14FF04001C7
:10245000204600F091FC30B10320C7E735F8020BAD
:10246000C0F30800E6E7202084F841000020BDE723
:102470007047FEE770B50F4886B0816941F00801EA
:1024800081618069012400F0080004904020CDE9BA
:102490000004094E0325694603953046FEF784FD86
:1024A0008020CDE90004694603953046FEF77CFDA7
:1024B00006B070BD00100240000C014070B50A4C1F
:1024C0000125C4F89C51284604F58E7401F05CF98E
:1024D0000020E067012001F057F9E5672068002837
:1024E00000D0012070BD0000008021422DE9F041A4
:1024F0000025114C06462F464FF00108C4F898718C
:10250000300602D5C4F89C8101E0C4F89C717006C5
:10251000060E012001F038F9C4F89881012001F07D
:1025200033F96D1CEDB2082DE8D3C4F89871BDE8FD
:10253000F041FFF7C3BF00000080214270B5084C96
:102540000120C4F89801C4F89C0104F5CC7401F092
:102550001BF900256560012001F016F9256070BDAA
:102560000080214270B5094C0025C4F8985101261D
:10257000C4F89C61304604F5CC7401F005F926607E
:10258000012001F001F9656070BD0000008021426A
:102590003EB5002411480094019402940E498460D1
:1025A000016004730475012505614FF460214460E6
:1025B000C161FEF747FB08B1FEF7D5F90820CDE968
:1025C0000005694602940548FEF73EFA002801D04E
:1025D000FEF7C9F93EBD0000002401409C03002025
:1025E0002DE9F04385B00024294800940194029419
:1025F0000394816941F010018161816901F010014A
:102600000491816941F004018161816901F0040153
:102610000491816941F0080181618069DFF874806B
:1026200000F008004FF4005504900022294640466F
:10263000FEF7AAFD0122DFF86090170239464846EE
:10264000FEF7A2FD0126CDE9005602256946404667
:10265000CDE90245FEF7A8FC10480095CDE901043C
:1026600069464846FEF7A0FCCDE900766946484633
:10267000CDE90245FEF798FC072100220846FEF747
:10268000E7FE0720FEF7D6FE05B0BDE8F0830000A8
:102690000010024000100140000C01400000111029
:1026A0000D4810B50B4901600C49416000214FF401
:1026B00080428160C0E9031241618161C1610162B0
:1026C000FEF76EFD002803D0BDE81040FEF74BB9C1
:1026D00010BD000000540040CC030020801A06000A
:1026E00010B586B000241848009401940294039415
:1026F00004941449059401603F21C0E9011440F29B
:10270000E731C0E903148021C0E90541FFF750FA21
:1027100008B1FEF728F94FF48050009069460A4846
:10272000FFF7C8FA08B1FEF71EF9049404A9064899
:102730000594FFF709FA002801D0FEF714F906B056
:1027400010BD0000002C01402004002010B586B010
:1027500000241648009401940294039404944FF0CA
:102760008041059401600421C0E901140121C0E900
:1027700003148461FFF71CFA08B1FEF7F4F84FF474
:102780008050009069460948FFF794FA08B1FEF7B7
:10279000EAF8049404A905480594FFF7D5F9002840
:1027A00001D0FEF7E0F806B010BD0000680400207C
:1027B0000C4810B50A4901604FF4E1314160002135
:1027C00081600C22C160C0E904128161C161FFF720
:1027D00063FD002803D0BDE81040FEF7C4B810BD6B
:1027E00000380140B00400200C4810B50A490160CF
:1027F0004FF416514160002181600C22C160C0E994
:1028000004128161C161FFF747FD002803D0BDE8D4
:102810001040FEF7A8B810BD00440040F8040020A6
:10282000FEE7FEE770B506465FF0000404F1B00075
:10283000C0B200F013F8002000F010F8102000F0F3
:102840000DF80025304600F0E6F86D1CEDB2802D45
:10285000F8D3641CE4B2082CE8D370BD10B504466C
:10286000FFF76CFE7820FFF741FE0020FFF73EFEE9
:102870002046FFF73BFEBDE81040FFF773BE10B5E2
:10288000B0300C46C0B2FFF7E9FF102000EB141087
:10289000FFF7E4FF04F00F00BDE81040FFF7DEBFD4
:1028A0002DE9F041203A88460746D6B20024FFF7CA
:1028B000E6FF0E4D04EB0610285C00F0ACF8641C3B
:1028C000E4B2082CF6D37F1CF8B24146FFF7D7FFDD
:1028D0005FF0000404EB06102844007A00F09BF837
:1028E000641CE4B2082CF5D3BDE8F081543A00082A
:1028F0002DE9F05F9B469246884606460024DDF8A7
:10290000289014E00AEB0400C0B25946FFF7B7FF65
:10291000002506FB04F706E009EB0500385C00F033
:102920007AF86D1CEDB2B542F6D3641CE4B2B4EB98
:10293000D80FE7D3BDE8F09F70B514460D460646A4
:1029400006E029463046FFF7ABFF0835EDB2641CC0
:102950002278002AF5D170BD10B5FFF78BFDAE20AF
:10296000FFF77CFF0220FFF779FF1020FFF776FFCB
:102970004020FFF773FF8120FFF770FFCF20FFF7A4
:102980006DFFA120FFF76AFFC820FFF767FFA620B1
:10299000FFF764FFA820FFF761FF3F20FFF75EFF0E
:1029A000D320FFF75BFF0020FFF758FFD520FFF78C
:1029B00055FF8020FFF752FFD920FFF74FFFF1208E
:1029C000FFF74CFFDA20FFF749FF1220FFF746FF21
:1029D000DB20FFF743FF4020FFF740FF2020FFF7F9
:1029E0003DFF0220FFF73AFF8D20FFF737FF14204D
:1029F000FFF734FFA420FFF731FFA620FFF72EFFDB
:102A0000AF20FFF72BFFAF20FFF728FFBDE81040F6
:102A10000020FFF707BF10B50446FFF78FFD7820B1
:102A2000FFF764FD4020FFF761FD2046FFF75EFDE4
:102A3000BDE81040FFF796BD70477047FEF7A2BC97
:102A400030B593B028216846FDF795FB14210AA8FC
:102A5000FDF791FB0024022501200F9404900095BE
:102A60001020059012944FF46010CDE908401194A5
:102A7000109407956846FEF7C1FE08B172B6FEE7EE
:102A80000F20CDE90A054FF48060CDE90C4002210A
:102A90000AA80E94FEF7D6FD08B172B6FEE74FF411
:102AA000004011900F950FA8FEF756FD002801D0A9
:102AB00072B6FEE713B030BD704700000148FFF763
:102AC00068B9000020040020F0B50268164B174CCE
:102AD000174D4FF08047984205D0B84203D0A0422E
:102AE00001D0A84203D122F070064A6832439842CE
:102AF00005D0B84203D0A04201D0A84203D122F4AD
:102B00004074CA6822434C6922F08002224302606A
:102B10008A68C2620A688262984201D109690163C7
:102B200001214161F0BD0000002C01400004004083
:102B30000008004010B5846842EA032224F47F4470
:102B40000A432243826010BD826822F070020A4369
:102B500042F007018160704710B5036A046A24F0EF
:102B600001040462846924F0F00444EA021423F0AE
:102B70000A020A438461026210BD10B5036A046A46
:102B800024F010040462846923F0A00324F4704448
:102B900044EA023243EA01118261016210BD10B5BC
:102BA000406A0021C185C184FFF73EFA10BD01686B
:102BB0000C3151E8002F22F4907241E80023002BE1
:102BC000F5D10168143151E8002F22F0010241E8EB
:102BD0000023002BF5D1016B012909D101680C31CB
:102BE00051E8002F22F0100241E80023002BF5D11C
:102BF000202180F8421000210163704708B590F849
:102C00004210222901D0022008BD82684FF480536F
:102C10009A4201D1016921B1816A9A421BD04AB11D
:102C20000AE00268816A5268C2F308020A80816A77
:102C3000891C08E0026972B10268526802F07F02E2
:102C40000A70816A491C8162C18D491E0904090C00
:102C5000C18503D01BE002685268F1E70168CA68C9
:102C600022F02002CA600168CA6822F48072CA6039
:102C700001684A6922F001024A61202180F842106D
:102C800000214163026B012A03D0FFF7A3FB002060
:102C900008BD016301680C3151E8002F22F01002D9
:102CA00041E80023002BF5D101680A68D20602D55D
:102CB0000A6849680091818DFFF7B5F9E7E70000E0
:102CC00070B5044600680169E26821F4405111437F
:102CD00001612169A0680843616908432168CA68E5
:102CE00041F20C639A430243CA6020684169A269B9
:102CF00021F44071114341611E492068884202D18C
:102D0000FEF746FD01E0FEF733FD00EBC00101EBED
:102D10000012606864218000B2FBF0F3B3FBF1F3B2
:102D20006FF018067343B2FBF0F5B2FBF0F605EB5B
:102D30008305322303EB0515B5FBF1F5B6FBF1F680
:102D400005F0F00505EB0615B2FBF0F6B2FBF0F06E
:102D5000B0FBF1F06FF01802504306EB800003EB7C
:102D60000010B0FBF1F0216800F00F0028448860EB
:102D700070BD0000003801402DE9F041984617462B
:102D80000E460446069D27E0681C25D02DB1FEF7AF
:102D900001FAA0EB0800A8421ED920680C3050E8C8
:102DA000001F21F4D07140E80012002AF5D12068FC
:102DB000143050E8001F21F0010140E80012002A01
:102DC000F5D1202084F8410084F84200002084F8E6
:102DD00040000320BDE8F0812068006836EA00006A
:102DE00004D00020B842CFD00020F3E70120F9E75B
:102DF0000148FFF71BB90000B00400200148FFF7AD
:102E000015B90000F8040020FEE700000FB4054BE0
:102E100010B503A9044A029800F0EAF810BC5DF866
:102E200014FB0000213800083C0300200907090EAC
:102E3000002804DB00F1E02080F80014704700F067
:102E40000F0000F1E02080F8141D704702E008C870
:102E5000121F08C1002AFAD170477047002001E014
:102E600001C1121F002AFBD1704700002DE9FF5F4E
:102E700082B00021DDE90430020DDDF840B00343EB
:102E800018D044F61050A2F2FF32424315141198A4
:102E900001281FD0A5EB0B00401C5FEA000A4FF091
:102EA00000064E4FDFF83891B046504615D5CAF1AE
:102EB000000413E0119801244AA3012801D16FEA0C
:102EC0000B010298119AC0E90031C0E9024206B034
:102ED000BDE8F09FCBF10000DFE704460021404A47
:102EE000491842EB0450CDE9001012E0E00707D08A
:102EF00032463B4640464946FDF786F980468946BC
:102F000032463B4610461946FDF77EF906460F4607
:102F10006410002CEAD1DDE90401DDE90023BAF1F7
:102F2000000F06DAFDF770F942464B46FDF76CF9E3
:102F300005E0FDF7DBF942464B46FDF7D7F90446BD
:102F40000E460022284BFDF789FA03D84FF0FF30D8
:102F5000014607E00022254B20463146FDF771FB74
:102F6000FDF716FC102409E0002C0ADB0A220023DE
:102F7000FDF7A2FA039B30321A55641E50EA010293
:102F8000F2D1641C039AC4F111031444119A012A6A
:102F900003D0012208430DD10AE0084304D00020E9
:102FA0004FF0110B119072E7A3EB0B056D1E0DE0B6
:102FB0005B4504DD4FF0000205F1010504E003DA92
:102FC0004FF00002A5F10105002AECD002981199FA
:102FD000C0E90231C0E9004579E700000000144073
:102FE0000000F03F300000000000F0430000E03F30
:102FF0002DE9FF4F95B09B468946064600250FE216
:10300000252877D100242746F84A0121059400E0BD
:10301000044316F8013F203B01FA03F01042F7D1B8
:1030200030782A2811D06FF02F033078A0F13002C9
:10303000092A16D8059A44F0020402EB820203EB37
:1030400042021044761C0590EFE759F8042B0592D4
:10305000002A03DA504244F40054059044F002047C
:10306000761C30782E2816D116F8010F44F004048F
:103070002A280DD06FF02F023078A0F13003092BF1
:1030800009D807EB870302EB4303C718761CF3E765
:1030900059F8047B761C30786C280FD006DC4C285D
:1030A00017D068280DD06A2814D104E0742810D0F5
:1030B0007A280FD10DE044F400140AE044F480149F
:1030C00001E044F440147278824202D104F5801485
:1030D000761C761C307866280BD013DC582877D005
:1030E00009DC002875D04528F6D04628F4D04728BA
:1030F0001AD19DE118E0632835D0642879D065287D
:1031000012D195E1702873D008DC6728F1D06928C6
:103110006FD06E280DD06F2806D1B5E073282CD063
:10312000752875D0782874D05A46179990476D1C29
:1031300075E1C4F30250022809D003280DD0D9F854
:10314000001004280DD00D6009F1040967E1D9F8D9
:103150000010EA17C1E90052F6E7D9F800100D8017
:10316000F2E70D70F0E719F8041B8DF8001000204D
:103170008DF80100EA46012003E059F804AB4FF056
:10318000FF3061074FF0000102D40DE008F10101AA
:103190008846B9420FDA8045F8DB1AF80810002992
:1031A000F4D108E008F1010188468142FADB1AF8FF
:1031B00008100029F6D105985B46A0EB08072146C8
:1031C0003846179A00F094FA284400EB080507E007
:1031D0004DE029E10DE01AF8010B5A461799904786
:1031E000B8F10108F7D25B4621463846179A13E139
:1031F00042E00A220092C4F302524FF0000A022A6F
:1032000008D059F804CB032A4FEAEC710AD00DE03C
:1032100029E02AE009F1070121F00702F2E802C1E2
:10322000914609E00FFA8CFC4FEAEC71042A03D1B5
:103230004FFA8CFC4FEAEC71002907DA0A460021AC
:10324000DCF1000C61EB02012D2202E0220504D525
:103250002B228DF80420012203E0E20701D0202276
:10326000F7E7904659E00A2102E010220DE0102114
:103270004FF0000A00910BE010224FF0000A44F0DA
:1032800004040827009203E008224FF0000A00928D
:10329000C4F30252022A05D059F804CB0021032AB4
:1032A00008D009E009F1070121F00702F2E802C1A4
:1032B000914605E01FFA8CFC042A01D10CF0FF0CAA
:1032C0004FF00008220728D5702806D0009B83F015
:1032D000100353EA0A0305D00EE040228DF80420C3
:1032E000012208E05CEA010206D030228DF80420B9
:1032F0008DF8050002229046009B83F0080353EAF4
:103300000A030AD15CEA010201D1620705D5302225
:103310008DF804204FF001087F1E582804D034A0F7
:1033200003900EA802900DE036A0F9E753466046E0
:10333000009AFDF7C1F884460398825C0298401E0B
:10334000029002705CEA0100F0D1029806A9081A06
:1033500000F1200A600702D524F4803400E0012740
:10336000574502DDA7EB0A0000E0002000EB0A0150
:10337000009005984144401A0590E00306D45B464E
:103380002146179A059800F0B3F90544002706E096
:1033900001A85A46C05D179990476D1C7F1C474590
:1033A000F6DBE0030CD55B462146179A059800F042
:1033B0009FF9054404E030205A46179990476D1C48
:1033C0000099481E00900029F5DC08E00298029957
:1033D0005A460078491C0291179990476D1CBAF122
:1033E0000001AAF1010AF1DC65E1000009280100F1
:1033F000303132333435363738396162636465666B
:10340000000000003031323334353637383941422C
:10341000434445460000000000F058F90544761C7E
:10342000307800287FF4ECAD19B02846BDE8F08F65
:10343000620700D4062709F1070222F0070CFCE816
:103440000223E14603F000485FEA080C02D00FF2C5
:10345000702C0DE05FEA045C02D50FF2682C07E0E7
:103460005FEAC47C02D00FF2602C01E0AFF2700C76
:103470004FF0FF3823F00043CDF850C065280CD042
:1034800006DC452809D046281DD047283DD13DE01F
:10349000662818D067287ED138E00021112F01DB83
:1034A000112000E0781CCDE9000106A90EA8FFF765
:1034B000DDFCDDE90F010E9A03910021009207F176
:1034C000010A04914DE04FF000400097CDE9011052
:1034D00006A90EA8FFF7CAFCDDE90F0203920E9BB6
:1034E00011990022DDF80CA00093049211B9791C07
:1034F00000EB010AB7EB0A0004D4C0F1FF3007F17A
:10350000010A0490AAEB0700019044E0012F00DAC1
:1035100001270021112F01DD112000E03846CDE9FF
:10352000000106A90EA8FFF7A1FCDDE90F010E9A24
:103530000391002104910092BA4621070CD403990B
:10354000514500DA8A46BAF1010F05DD009AAAF169
:103550000101515C302908D0B84202DA10F1040FA1
:1035600006DA0121CDE9011015E0AAF10101E9E730
:10357000002805DC049901440491AAEB000102E053
:10358000411C514500DD8A460499401A401C0190B7
:103590004FF000400290200704D40198504501DB11
:1035A000CDF8048000208DF84F0002980DF14F07F0
:1035B000B0F1004F25D02B200E9002984FF002085A
:1035C00000280CDA404202902D200E9007E00A21DC
:1035D0000298FCF75BFF3031029007F8011DB8F14B
:1035E0000001A8F10108F2DC02980028EFD1791E51
:1035F0000E980870307800F0200040F0450007F881
:10360000020D12A8C01B00F107081498007800B141
:10361000012000EB0A01019801EBE071059841449B
:10362000401A401E0590E00306D45B462146179AD7
:10363000059800F05DF805441498007818B15A46D2
:10364000179990476D1CE00324D55B462146179AD5
:10365000059800F04DF805441CE00498002807DBAD
:10366000DDE90301884203DD0098405C179901E021
:10367000179930205A469047049805F10105401CDF
:1036800004900198401E019004D12E205A461799AB
:1036900090476D1CBAF10001AAF1010ADDDC05E0DA
:1036A00017F8010B5A46179990476D1CB8F10001A5
:1036B000A8F10108F4DC5B462146179A0598ABE6B1
:1036C0002D0000002B000000200000002DE9F0413B
:1036D000044600251E461746880404D405E03946F2
:1036E0002020B0476D1C641EF9D52846BDE8F08146
:1036F0002DE9F041044600251E469046C80301D539
:10370000302700E02027880404D505E041463846EC
:10371000B0476D1C641EF9D52846BDE8F081000055
:103720000A49D1E90101884203D2094A511A0A180B
:1037300000E0421A0749002001EB80035B6841F872
:103740002030401C0428F7DB0A617047C0020020CB
:10375000A08601004003002010B50020084A014661
:1037600052F82130491CC9B218440529F8D3FCF796
:103770002CFE0449FCF70AFDBDE81040FCF743BEEF
:10378000400300200000A0400D4900220B685A624F
:103790000A68136843F00103136009684A6A8242A9
:1037A000FCD3086A41F21112104207D1086A921044
:1037B000104203D1086820F0010008607047000043
:1037C0006804002008B51348322100900F2300221E
:1037D0000846FFF78DF8104A50210020FFF7ACF89B
:1037E0000D4A0A20521FA2F114010090D1E90801EC
:1037F000052300F0DFF8024650210320FFF79CF874
:103800000648322100900F2300220846FFF770F887
:1038100008BD00005E010020D90200200000002049
:1038200013B50A23012269460248FEF7D4FD009829
:103830001CBD00005403002070B5134EFFF78CFF31
:1038400002460B4600201149FCF750FD0022104BA8
:10385000FCF7DAFC04460D4600220E4BFCF7FEFD99
:1038600001D2012000E00020F06000220A4B204637
:103870002946FCF7DBFD01D2012000E00020306189
:10388000C6E9084570BD0000C002002000408F401E
:1038900000004E4000B09D40000089400F4A10B526
:1038A0000F48D3684FF400512BB10022FDF76CFC98
:1038B0000A4A57320CE012692AB10022FDF764FC73
:1038C000064A4E3204E00122FDF75EFC034A6032F4
:1038D0000A21BDE810400620FFF72EB8C0020020E4
:1038E0000010014070B500201D4A014642F820102A
:1038F000401C0528FADB1B48FDF768FA1A48FEF75A
:10390000ADF91848FDF732F815482622174914304A
:10391000FCF718FC154CE08C114D1435E884104868
:10392000A16AC163A18DA0F84010E08DE885206BED
:103930002863606B6863092204F1380105F13800DF
:10394000FCF700FC94F8410085F8410094F842002F
:1039500085F84200606C6864BDE87040FEF7FCBF0B
:10396000400300209C03002020040020B00400201D
:10397000FDF710FDFFF764F8FEF732FEFEF708FED4
:10398000FEF7E4FEFEF714FFFEF72EFFFEF7A8FE9B
:10399000FEF786FEFFF7A6FF0548FDF717FA00BF02
:1039A000FFF710FFFFF77AFFFFF746FFF8E7000089
:1039B0009C0300202DE9F0470024089F99461546F6
:1039C000064688460A2F0DD100221346FCF72EFD2D
:1039D00008D2304688F00041FCF7FCFC2D2129700C
:1039E000012403E030464146FCF7F4FC184900BFCF
:1039F000B0FBF7F207FB1202B0FBF7F08A5C2A5526
:103A0000641C08B14C45F3DB2021A9F1010084427C
:103A100002DA2955641CFAE70020285528782D2859
:103A200005D00021601E00EBD0700C4409E001219C
:103A3000F8E7621A2A446B5C12F8016D6E54137039
:103A4000491CB1EB600FF4DD2846BDE8F0870000AB
:103A5000E80200200000000000000000000000005C
:103A600000000000000000F800000000000000332B
:103A70003000000000100C06100C060000000000D2
:103A80000000000040C07840C0784000043F0404BB
:103A90003F040400007088FC08300000001820FF7C
:103AA000211E0000F008F000E018000000211C03B7
:103AB0001E211E0000F00888700000001E21232433
:103AC000192721100002020400000000000000007D
:103AD00000000000000000E01804020000000007E1
:103AE0001820400000020418E000000000402018E8
:103AF00007000000404080F0804040000202010FBB
:103B000001020200000000F0000000000101011F9E
:103B100001010100000000000000000080B0700002
:103B20000000000000000000000000000001010192
:103B30000101010100000000000000000030300021
:103B400000000000000000008060180400601806FB
:103B50000100000000E010080810E000000F102035
:103B600020100F00001010F8000000000020203F7F
:103B70002020000000700808088870000030282409
:103B800022213000003008888848300000182020AA
:103B900020110E000000C02010F8000000070424CF
:103BA000243F240000F80888880808000019212014
:103BB00020110E0000E0108888180000000F11206E
:103BC00020110E0000380808C83808000000003F27
:103BD000000000000070880808887000001C222186
:103BE00021221C0000E010080810E0000000312233
:103BF00022110F00000000C0C000000000000030D3
:103C00003000000000000080000000000000806024
:103C100000000000000080402010080000010204A5
:103C2000081020004040404040404000040404048C
:103C30000404040000081020408000000020100848
:103C400004020100007048080808F000000000307D
:103C500036010000C030C828E810E000071827240B
:103C600023140B000000C038E0000000203C2302B9
:103C70000227382008F8888888700000203F20201C
:103C800020110E00C030080808083800071820204E
:103C90002010080008F808080810E000203F202045
:103CA00020100F0008F88888E8081000203F202026
:103CB0002320180008F88888E8081000203F20001A
:103CC00003000000C0300808083800000718202052
:103CD000221E020008F808000008F808203F210111
:103CE00001213F20000808F8080800000020203FBC
:103CF0002020000000000808F8080800C08080802C
:103D00007F00000008F888C028180800203F200124
:103D10002638200008F8080000000000203F20207E
:103D20002020300008F8F800F8F80800203F003F95
:103D3000003F200008F830C00008F808203F2000AD
:103D400007183F00E01008080810E0000F102020BE
:103D500020100F0008F808080808F000203F210193
:103D600001010000E01008080810E0000F182424EA
:103D700038504F0008F8888888887000203F20005D
:103D8000030C302000708808080838000038202113
:103D900021221C00180808F8080818000000203F1D
:103DA0002000000008F808000008F808001F202084
:103DB00020201F000878880000C838080000073855
:103DC0000E010000F80800F80008F800033C0700A6
:103DD000073C0300081868808068180820302C030E
:103DE000032C30200838C800C83808000000203FE5
:103DF0002000000010080808C838080020382621D4
:103E000020201800000000FE020202000000007FD7
:103E100040404000000C30C00000000000000001E5
:103E20000638C00000020202FE00000000404040D0
:103E30007F000000000004020202040000000000F5
:103E40000000000000000000000000008080808072
:103E50008080808010160E0000000000000000002E
:103E600000000000000080808080000000192422F3
:103E700022223F2008F8008080000000003F11202F
:103E800020110E000000008080800000000E112034
:103E900020201100000000808088F800000E112012
:103EA00020103F200000808080800000001F222220
:103EB00022221300008080F0888888180020203F8C
:103EC000202000000000808080808000006B94949F
:103ED0009493600008F8008080800000203F21005B
:103EE00000203F2000809898000000000020203F24
:103EF00020200000000000809898000000C0808012
:103F0000807F000008F8000080808000203F2402AD
:103F10002D302000000808F8000000000020203F9D
:103F2000202000008080808080808000203F200052
:103F30003F20003F8080008080800000203F2100E3
:103F400000203F200000808080800000001F202093
:103F500020201F00808000808000000080FFA120C2
:103F600020110E000000008080808000000E1120D3
:103F700020A0FF80808080008080800020203F2162
:103F80002000010000008080808080000033242415
:103F900024241900008080E0808000000000001FC1
:103FA000202000008080000000808000001F202072
:103FB00020103F20808080000080808000010E3033
:103FC0000806010080800080008080800F300C0394
:103FD0000C300F0000808000808080000020312E97
:103FE0000E312000808080000080808080818E7073
:103FF0001806010000808080808080000021302C25
:104000002221300000000000807C0202000000003D
:10401000003F404000000000FF00000000000000E2
:10402000FF0000000002027C800000000040403FD2
:10403000000000000006010102020404000000006C
:1040400000000000010202030405060708090A0B2C
:104050000C0D0E0F101001020203040506070809DB
:104060000A0B0C0D0E0F10100000000000000000E5
:10407000010203040607080900000000010203040E
:10408000A0400008000000204003000026080008AF
:104090009441000840030020000600005C2E000848
:1040A000816C8080C001A38080091417CEE0F8FCE9
:1040B000FEFF010E12FEFCFCF0F01742F0DA1E17B4
:1040C000091C01510D2301071F7F2EA57F1F07012A
:1040D0000F150103070F1F3F3A07177F3F1F0F07F9
:1040E000032A013B980E0F1F1F1F3F3F1F1F0F0F7B
:1040F00007070357510A2FFC0101384808C0F0F8A0
:10410000FCFCFEFEB61809FEFEFCF8F8F0E0E01438
:1041100069133914A3F0C00A143CF1F901B10D1D63
:10412000030F3F7F2E05107F3F0F01EF0103070FA5
:104130001F3F3BFF7F3F1F1F0F032DD93B193C291A
:10414000010A1303290A2FFC01011D97726174658E
:104150003A2010263031323334353637383941423F
:10416000434445464748494A4B4C4D4E4F505152A7
:10417000535455565758595A2E3809746F6F206C3E
:104180006F77200915686967685A200139C0318244
:04419000105324F4B0
:04000005080000ED02
:00000001FF
