:020000040800F2
:10000000A805002001010008F32D00089B2200082C
:10001000F12D0008B50800088D3000080000000030
:10002000000000000000000000000000F72D0008A4
:10003000B708000800000000F52D0008F92D0008A1
:100040001B0100081B0100081B0100081B01000820
:100050001B0100081B0100081B0100081B01000810
:100060001B0100081B0100081B0100081B01000800
:100070001B0100081B0100081B0100081B010008F0
:100080001B0100081B010008D50700081B01000820
:100090001B0100081B0100081B010008B90800082B
:1000A0001B0100081B0100081B0100081B010008C0
:1000B0001B010008792E00081B0100089D22000882
:1000C0001B0100081B0100081B0100081B010008A0
:1000D0001B0100081B0100081B0100081B01000890
:1000E0001B0100081B0100081B010008DFF80CD0F1
:1000F00000F03CFB00480047C13A0008A80500207A
:100100000648804706480047FEE7FEE7FEE7FEE7B1
:10011000FEE7FEE7FEE7FEE7FEE7FEE7752E0008D6
:10012000ED000008202A04DB203A21FA02F0002129
:10013000704721FA02F3D040C2F1200291400843F7
:1001400019467047D2B201E000F8012B491EFBD2DC
:1001500070470022F6E710B513460A4604461946D2
:10016000FFF7F0FF204610BD30B480EA010202F034
:10017000004530F0004221F0004013D090B1C30D93
:10018000D40DC2F31601C0F31600E41A41F40001C5
:1001900040F400027D34914201D3641C00E0490028
:1001A000002C02DA30BC002070474FF4000000231E
:1001B000914201D3891A034340084FEA4101F7D124
:1001C00051B1914202D14FF0004105E002D24FF00F
:1001D000010101E06FF0010103EBC450284430BC81
:1001E00000F071B92DE9FE4F81EA030404F00044E8
:1001F00021F0004100944FF0000B23F0004350EA3F
:1002000001045ED052EA03045BD0C3F30A54C1F385
:100210000A552C44A4F2F3340194A0FB0254C1F318
:10022000130141F48011C3F3130343F4801301FB62
:10023000024400FB034E840A970A44EA815447EAC9
:100240008357A4FB076802958D0A05FB07854FEAD3
:10025000932C04FB0C542705029D4FEA065847EAED
:100260001637B5EB08056EEB070C870E920E47EAC2
:10027000811742EA8312A7FB0201B6EB0B0164EB84
:1002800000042B0D43EA0C335E1844EB1C50DA4695
:100290005146E7FB0201C5F313044FEA0B3343EA6F
:1002A00014534FEA0432019C43EA0603A4F10C0400
:1002B0000294009CCDE900B400F04BF903B0BDE816
:1002C000F08F00200146F9E72DE9F04D81EA0304A3
:1002D00004F0004B21F0004514464FF0000A23F0D3
:1002E000004150EA050220D054EA01021DD0C5F3B6
:1002F0000A570246C5F31303C1F31300C1F30A56AC
:1003000040F4801543F48013A7EB0608101BD64673
:1003100008F2FD3873EB050002D308F1010801E093
:1003200092185B41B8F1000F03DA00200146BDE8E6
:10033000F08D00204FF48011064684460EE0171B16
:1003400073EB050705D3121B63EB050306434CEA69
:10035000010C49084FEA300092185B4150EA01074E
:10036000EDD152EA030012D082EA040083EA0501CB
:10037000084305D0101BAB4106D20122002306E042
:1003800000224FF0004302E06FF0010253101AEB1D
:1003900006004CEB085110EB0A0041EB0B01BDE8E5
:1003A000F04D00F0C7B896230022114600F094B833
:1003B00000F0004230F000400AD0C10D01F560713C
:1003C000C0F3160042EA0151C208400711437047CA
:1003D000002001467047000030B5041E71F1000492
:1003E00004DB4FF00044404264EB0101141E73F142
:1003F000000405DB1C464FF00043524263EB04034C
:100400008B4208BF824230BD30B5041E71F100043A
:1004100004DB4FF00044404264EB0101141E73F111
:10042000000405DB1C464FF00043524263EB04031B
:10043000994208BF904230BD30B50B4601460020BE
:100440002022012409E021FA02F59D4205D303FA96
:1004500002F5491B04FA02F52844151EA2F1010217
:10046000F1DC30BD2DE9F05F0546002092469B4649
:1004700088460646814640241BE0284641464746BA
:100480002246FFF74FFE53465A46C01A914110D3F9
:1004900011461846224600F07BF92D1A67EB010839
:1004A0004F4622460120002100F072F917EB0009A7
:1004B0004E41201EA4F10104DFDC484631462A46A5
:1004C0004346BDE8F09F0029A8BF7047401C490083
:1004D00008BF20F00100704710B4B0FA80FC00FAA9
:1004E0000CF050EA010404BF10BC704749B1CCF1D4
:1004F000200421FA04F411FA0CF118BF0121214360
:100500000843A3EB0C01CB1D4FEA00614FEA10201A
:1005100042BF002010BC704700EBC35010440029BC
:10052000A4BF10BC7047401C490008BF20F0010068
:1005300010BC704710B5141E73F1000408DA401C9B
:1005400041F1000192185B411A4301D120F00100F2
:1005500010BD2DE9F04D92469B4611B1B1FA81F2E2
:1005600002E0B0FA80F22032904600F011F9044621
:100570000F4640EA0A0041EA0B0153465A46084337
:1005800013D0114653EA010019D0C8F14002504679
:10059000FFF7C8FD05460E4650465946424600F054
:1005A000F7F8084305D0012004E020463946BDE8AD
:1005B000F08D0020054346EAE0762C4337430A9845
:1005C0006305E40AA0EB08000022FD0A44EA475450
:1005D0000A3002D500200146E9E7010510196941FA
:1005E000DDE9084500196941BDE8F04DA2E72DE9B4
:1005F000FE4F804681EA0300C00F0C46009021F0B8
:10060000004123F00045B8EB0200A94105D2404665
:10061000214690461C460B46024623F000401043FC
:1006200047D0270DC7F30A00C3F30A510290401ABE
:10063000019040286BDAC3F3130040F4801B00984C
:10064000924620B10023D2EB030A63EB0B0B019817
:100650005946C0F14002504600F09AF806460D4651
:1006600050465946019A00F0A2F810EB080061418B
:10067000002487EA115284EAE7731A4340D0009AB3
:1006800062B3019A012A4FEA075215DC001B61EBA5
:1006900002014FF0004202EA0752CDE90042001C7D
:1006A00041F5801132462B46FFF753FF03B0BDE8FA
:1006B000F08F40462146F9E7001B61EB0201001C68
:1006C00041F5801300185B412018A2F5001747EB95
:1006D000030140EAD570B6196D4111E06D084FEA8B
:1006E000360645EAC0754FEA0752001B61EB02016E
:1006F000001C41F5801149084FEA300000195141B2
:1007000032462B4603B0BDE8F04FFFF713BF009809
:10071000012240000023D0EB020263EBE07300985B
:1007200021464FEAE074B8EB000061EB0401E9E711
:1007300083F000435BE781F0004158E7C1F30A52C0
:10074000C1F3130140F2FF3341F480119A4202DAFF
:1007500000200146704740F233439A42A2F23342EE
:1007600002DC5242FFF7DEBC00F012B8064C074D27
:1007700006E0E06840F0010394E807009847103471
:10078000AC42F6D3FFF7B6FC6C3B00088C3B00088C
:10079000202A04DB203A00FA02F100207047914041
:1007A000C2F1200320FA03F3194390407047202A36
:1007B00006DBCB17203A41FA02F043EAE07306E089
:1007C00041FA02F3D040C2F1200291400843194699
:1007D00070470000014800F08CB900004C00002078
:1007E00070B5044600688168C943C90717D181689C
:1007F00021F00101816000F085FC05460AE000BFA0
:1008000000F080FC401B022804D920688068C043A7
:10081000C00706D020688068C043C007F0D0002021
:1008200070BDA06A40F01000A062E06A40F00100D4
:10083000E062012070BD0000F8B500260446009675
:1008400000688168C943C9072DD0816841F0010162
:100850008160164816490068B0FBF1F000E0401EC8
:1008600000900028FBD100F04DFC054616E000BFCB
:1008700000F048FC401B022810D920688068C04363
:10088000C0070BD0A06A40F01000A062E06A40F000
:100890000100E06284F824600120F8BD20688068CF
:1008A000C043C007E4D10020F8BD00001C000020B8
:1008B00040420F00FEE770474FF4807000F018BB15
:1008C00072B6FEE7F8B500250446009590F82400BE
:1008D00001280BD0012084F824002046FFF780FF78
:1008E0002046FFF7A9FF060002D050E00220F8BD25
:1008F000A06A20F4885040F00200A062022000F0BC
:10090000BDFE25490968B1FBF0F0400000E0401E43
:1009100000900028FBD12068816841F008018160C7
:1009200000F0F0FB074608E000F0ECFBC01B0A28D3
:1009300003D920688068000715D420688068000704
:10094000F2D42068816841F00401816000F0DAFB94
:10095000074612E000F0D6FBC01B0A280DD920681C
:100960008068400709D5A06A20F0020040F010001E
:10097000A06284F824500120F8BD206880684007F8
:10098000E8D4A06A20F0020040F00100A06284F8E0
:1009900024503046F8BD00001C00002070470000C5
:1009A000F8B50024009490F824202546012A12D09E
:1009B000012280F824204A681F23072A0DD20668E6
:1009C000776B521E02EB820293409F430B68934069
:1009D0001F43776319E00220F8BD06680D2A0AD28A
:1009E000376BD21F02EB820293409F430B68934008
:1009F0001F43376309E0F76A0D3A02EB8202934026
:100A00009F430B6893401F43F7620A6807230668F9
:100A10000A2A0AD3F7680A3A02EB420293409F433C
:100A20008B6893401F43F76008E0376902EB42028E
:100A300093409F438B6893401F4337610A68102A95
:100A400001D0112A20D1124B02689A4217D1936823
:100A50001B0219D4936843F40003936009681029BA
:100A600012D10C490C4A0968B1FBF2F101EB81018A
:100A7000490000E0491E00910029FBD104E0816A91
:100A800041F020018162012480F824502046F8BD05
:100A9000002401401C00002040420F0010B502F06D
:100AA000C5FF0F4C30B100220121204600F024FB8D
:100AB000012208E002F0AAFF48B1012211462046B7
:100AC00000F01AFB00220221204600F015FB054C25
:100AD00020886080044800F009F8208010BD0000E4
:100AE00000100140000000204C0000200068C06C95
:100AF000704770B50446006806684568A90625D5A4
:100B0000B10723D5A16AC90603D4A16A41F40071D3
:100B1000A1628168C1F34241072910D1217B71B9DB
:100B2000416821F020014160A06A20F48070A06239
:100B3000A06AC00403D4A06A40F00100A06220466D
:100B4000FFF7ACFF21686FF01200086028062ED571
:100B500070072CD5A06AC00603D4A06A40F40050E8
:100B6000A06220688168C1F30231072909D0416879
:100B7000490515D48168C1F34241072910D1217B71
:100B800071B9416821F080014160A06A20F4805071
:100B9000A062A06AC00503D4A06A40F00100A06270
:100BA0002046FFF7FBFE21686FF00C000860680626
:100BB0000CD5F0070AD0A06A40F48030A06220462D
:100BC00000F094F821686FF00100086070BD00002B
:100BD0002DE9F0414FF0000704003D467ED0A06AA9
:100BE000002628B9E66284F82460204600F080F8E8
:100BF0002046FFF7F5FDA16AC90600D420B1A06A1E
:100C000040F01000A06269E0A16A21F4885141F02F
:100C10000201A1626268E169237B0A4347EA43015A
:100C20000A43A1684FF48077B94209D0012907D05F
:100C30005FF0000194F814C0BCF1010F02D00AE08B
:100C40003946F7E7F3B1A36A43F02003A362E36AEE
:100C500043F00103E3622368D3F804C02CF4694C29
:100C60004CEA010CC3F804C021688B68DFF870C03F
:100C700003EA0C0313438B60A168B9420BD001292E
:100C800009D00CE0DFF85CC0A3690CEB43330B43E5
:100C900043F40061DFE7218A0D05A5F58015216881
:100CA000CB6A23F470032B43CB62216889680E4B17
:100CB0001940914208D1E662A16A21F0020141F097
:100CC0000101A162BDE8F081A06A20F0020040F0BD
:100CD0001000A062E06A40F00100E0620120F1E74C
:100CE000FDF7E1FF00E0FFFFFE0E1FFF7047000071
:100CF00000B585B000210091019102910391006837
:100D00000E49884218D10E48816941F40071816111
:100D1000816901F400710491816941F008018161E8
:100D20008069694600F008000490022000900320CA
:100D30000190044800F0E8F805B000BD002401402F
:100D400000100240000C014070B5044690F82400E9
:100D500001280DD0012084F824002046FFF76CFD07
:100D600002004FF0000005D084F82400104670BD4A
:100D7000022070BDA16A40F60163994341F480717D
:100D8000A162224D23682249AB4218D10E6816F4A5
:100D9000702F14D0A66A46F48016A6620E687605F7
:100DA00005D5A66A26F4005646F48056A662A66AC1
:100DB000F6040AD5E66A26F00606E66206E0A66AAA
:100DC00026F48016A6625E68E9E7E06284F82400F3
:100DD0006FF0020018602068436843F0200343600E
:100DE00020688368C3F34243072B05D1A84208D18A
:100DF000096811F4702F04D0816841F4801181607A
:100E0000B4E7816841F4A001F9E70000002801403F
:100E10000424014010B590F821100024022903D0C9
:100E20000421816301243DE001680A6822F00E027A
:100E30000A6001680A6822F001020A601A4A016821
:100E4000914201D1012121E0174A1432914201D18E
:100E500010211BE0144A2832914201D1891515E076
:100E6000114A3C32914201D189140FE00E4A5032AE
:100E7000914202D14FF4803108E00B4A6432914232
:100E800002D14FF4801101E04FF08071064A083A18
:100E90005160012180F82110002180F82010416B61
:100EA00001B18847204610BD0800024090F821009B
:100EB0007047000070B5044600F024F90546601C38
:100EC00002D004480078044400F01CF9401BA04202
:100ED000FAD370BD1000002000B5C00504D502F0A3
:100EE00061FD02484168816000BD000000000020F3
:100EF000044910B50A68024202D00860FFF7ECFF0F
:100F000010BD0000140401402DE9F84FDFF8B8913E
:100F10000024A9F1040B23460F2709F1040AABF1C1
:100F2000040EC9E00125A5402A40AA427DD1674EA2
:100F3000D1F804C0ACEB0608B44532D014DCBCF1E7
:100F4000030F3AD009DCBCF1000F2AD0BCF1010F2D
:100F50001CD0BCF1020F31D11DE0BCF1110F17D034
:100F6000BCF1120F2AD119E0B8F5881F19D006DCA0
:100F7000B8F5803F15D0B8F5801F1FD111E0B8F546
:100F8000001F0ED0B8F5041F18D10AE0CB6815E099
:100F9000CB681B1D12E0CB6808330FE0CB680C3325
:100FA0000CE08B682BB1012B4FF0080303D0456197
:100FB00004E0042302E0056100E00023FF2A01D8D9
:100FC000064601E000F104064FEA840501D9A5F1C7
:100FD0002005D6F8008007FA05FC28EA0C0803FA79
:100FE00005F548EA0508C6F800804D68ED0062D5B1
:100FF000374DAE6946F00106AE61AD6924F00306D7
:1010000005F001050095334D06EB050CDCF80850A2
:10101000A607360F07FA06F825EA0805DFF8B880B4
:10102000404503D14FF0000817E044E0DFF8AC8002
:10103000404502D14FF001080FE0DFF8A4804045A1
:1010400002D14FF0020808E0DFF89880404502D155
:101050004FF0030801E04FF0040808FA06F848EAE8
:101060000508CCF808804D68D9F80060ED024D46BF
:1010700001D5164300E096432E604D68DAF8006013
:10108000AD02554601D5164300E096432E604D68EB
:10109000DBF80060AD035D4601D5164300E09643E2
:1010A0002E604D68DEF80060ED03754601D51643ED
:1010B00000E096432E60641C0D682A46E5407FF4EC
:1010C00031AFBDE8F88F00000804014000001110A6
:1010D000001002400000014000080140000C0140E7
:1010E0000010014000140140C26821EA02030A40D6
:1010F00043EA0241016170470AB101617047090486
:10110000FBE70000014880687047000010000020E5
:10111000704770472DE9F047026800215368C66A9E
:1011200090F83E4090F83D50102C12D0402C10D03A
:10113000046C002C7DD05469E443A6077AD4DE43C6
:10114000B60577D4036C03B19169BDE8F04701F0AF
:101150007FBC976951694FF42A0CC9435FEAC17893
:101160004FF02A4904D066452AD04E4528D010E0D9
:10117000DE43B6050DD4C16A614501D1012103E00A
:10118000C16A494501D10821C162BDE8F04701F0BB
:10119000C5BB0E0716D4DE43B60513D4416CC9B2E5
:1011A0001161416B09B1896A29B9816B002907D0A6
:1011B000896A002904D00068416841F400614160F7
:1011C000BDE8F0878E0706D4DE43B60503D4BDE83C
:1011D000F04701F0F7BAFE43526876074FEA025231
:1011E0001DD4002AECDB0A0608D4DA43520505D4E4
:1011F000490705D5BDE8F04701F088BA4907DFD4B3
:10120000D9438905DCD4212D05D0402CD8D1BDE8A7
:10121000F04701F0C9BBBDE8F04701F035BA002A3C
:10122000CEDB4A060BD4DA43520508D4490708D569
:1012300001E00DE00EE0BDE8F04701F0B1B949076B
:10124000BED4D9438905BBD4BDE8F04701F03EB90F
:10125000916970E7E10606D4D943890503D4BDE856
:10126000F04701F019BC2821212D27D0292D25D0A8
:10127000650655D4DD436D0552D4640752D590F808
:101280003D30448D002C9BD01269446A2270426A22
:10129000521C4262428D521E4285428D002A8FD1DD
:1012A0002A2B8DD10268536823F480635360222275
:1012B000026380F83D1000F047F981E7250623D44A
:1012C000DD436D0520D4640720D590F83D30448D72
:1012D000002CF2D0446A24781461426A521C4262A3
:1012E000428D521E4285428D002AE6D1292BE4D13F
:1012F0000268536823F4806353602122026380F8FC
:101300003D1000F022F95BE76107D6D4D943890587
:10131000D3D4418D0029D0D0416A097811610AE007
:101320006107CAD4D9438905C7D4418D0029C4D0E7
:101330001169426A1170416A491C4162418D491E1E
:1013400041853DE77047000070B5040025D094F852
:101350003D00002520B984F83C50204600F0BEF83E
:10136000242084F83D002068016821F0010101601B
:101370002068016841F4004101602068016821F49F
:101380000041016000F0D8FA4D4A6168914201D8ED
:101390004C4900E04C49884201D2012070BD4B49C4
:1013A0002368B0FBF1F15E6826F03F060E435E60F5
:1013B0006368934206D94FF4967359434FF47A7396
:1013C000B1FBF3F12368491C1E6A26F03F06314346
:1013D00019626168914210D84900401EB0FBF1F2D9
:1013E000521CC2F30B02042A01D2042022E0B0FBFB
:1013F000F1F0401CC0F30B001CE0A268F2B301EB5B
:10140000C10303EB0116431EB3FBF6F35B1C43F46D
:1014100080431B0549D092B301EBC10202EB0111DD
:10142000401EB0FBF1F0401CC0F30B0040F48040C4
:1014300040F400402168CA694CF6FF739A43104398
:10144000C861D4E9071001432068026822F0C00295
:1014500011430160D4E9030101432068826848F226
:10146000FF339A4311438160D4E9050108432168A1
:10147000CA6822F0FF021043C86001E00EE016E0E7
:101480002068016841F0010101602564202084F892
:101490003D00256384F83E50002070BD01EB4106FD
:1014A000431EB3FBF6F35B1CB3E70120C2E701EB7D
:1014B0004101401EB0FBF1F0401CC0F30B00B7E748
:1014C000A086010080841E0000093D0040420F00FC
:1014D00070477047704770477047000010B586B07E
:1014E0000021009101910291039100681349884203
:1014F00022D1134CA06940F00800A061A0696946A0
:1015000000F008000490C0200090122001900320F9
:1015100003900C48FFF7F8FCE06940F40010E0612C
:10152000E069002200F40010049011461F2000F032
:1015300073F81F2000F062F806B010BD00540040A0
:1015400000100240000C014070477047024881685B
:10155000027811448160704710000020074810B5E0
:10156000016841F010010160032000F075F80F20C0
:1015700000F006F800F024F8002010BD0020024022
:1015800070B50D4D04464FF47A712878B1FBF0F038
:101590000A490968B1FBF0F000F0A4FB48B9102C2F
:1015A00007D200222146501E00F036F800206C6061
:1015B00070BD012070BD0000100000201C00002044
:1015C0000C4808B5816941F001018161816901F030
:1015D00001010091C16941F08051C161C06900F011
:1015E000805000900448416821F0E06141F00071B2
:1015F000416008BD0010024000000140002809DBE6
:1016000000F01F02012191404009800000F1E0201C
:10161000C0F8001170470000F0B40E4B1B680C4678
:10162000C3F30223C3F10705042D00D90425191DB6
:10163000072901D2002300E0DB1E012606FA05F18E
:10164000491E214099409E40761E16403143F0BC11
:1016500001F02EBD0CED00E0064900F0070208681D
:101660004FF6FF03184040EA0220034A1043086087
:10167000704700000CED00E00000FA0510B50146CF
:101680000020234C012922D0022939D010291DD154
:1016900061682268D20119D51E48C1F38342C9038B
:1016A000805C0AD561681B4AC1F34041921E515CBF
:1016B000194AB2FBF1F1484301E018494843616817
:1016C000490203D440000321B0FBF1F010BD226AAF
:1016D000C2F30121012903D1920701D5C80310BD2E
:1016E000022905D1626A920702D549F6404010BD31
:1016F0000329FCD121688903F9D54FF2244010BD9C
:1017000000F02AF96168C1F38131491C4900DBE727
:1017100000100240443B000800127A0000093D001E
:101720002DE9F84305460078354CC00754D0E069F0
:101730000026C00008D4E06940F08050E061E06914
:10174000012600F0805000902E480168C90512D48F
:101750000168804641F480710160FFF7D3FC0746C1
:1017600005E000BFFFF7CEFCC01B642823D8D8F8E3
:101770000000C005F6D5206A10F4407021D0A98879
:1017800001F4407181421CD0206A1F49012220F4DB
:1017900040700A6000220A602062C00711D0FFF783
:1017A000B1FC074641F2883808E000BFFFF7AAFC09
:1017B000C11B414502D90320BDE8F883206A800798
:1017C000F4D5206A696820F44070084320621EB195
:1017D000E06920F08050E0612878800705D56068D6
:1017E000A96820F44040084360602878C00605D509
:1017F0006068E96820F48000084360600020DBE74F
:101800000010024000700040400442422DE9F047C1
:101810000F46050061D0434E306800F00700B84223
:1018200009D2306820F0070038433060306800F09B
:101830000700B84251D128683B4C810712D54007B8
:1018400003D5606840F4E06060602878000703D545
:10185000606840F4605060606068A96820F0F00043
:10186000084360602878C00728D06868012810D035
:101870002168022810D0890700292EDA616821F03A
:10188000030101436160FFF73DFC804641F2883966
:101890000DE021688903EFE78901EDE7FFF732FCEE
:1018A000A0EB0801494502D90320BDE8F087606834
:1018B000696800F00C00B0EB810FEFD1306800F0E8
:1018C0000700B8420BD9306820F007003843306079
:1018D000306800F00700B84201D00120E5E7287821
:1018E000400705D56068E96820F4E060084360605F
:1018F0002878000706D56068296920F4605040EA1E
:10190000C100606000F038F86168084AC1F3031153
:10191000515CC8400649086006480068FFF730FE81
:101920000020C2E70020024000100240543B0008A3
:101930001C00002014000020044805490068496884
:10194000044AC1F30221515CC84070471C000020CA
:1019500000100240643B00080448054900684968DB
:10196000044AC1F3C221515CC84070471C000020EA
:1019700000100240643B00080E4A51680E4801F016
:101980000C03042B11D0082B0FD10C48C1F3834357
:10199000C903C05C0AD55168084AC1F34041921E90
:1019A000515C054A5043B0FBF1F07047044948438D
:1019B000704700000010024000127A00323B00081D
:1019C00000093D002DE9F84F040070D02078C04D8B
:1019D000C00749D06868C0F38100012807D0686853
:1019E000C0F38100022809D16868C00306D52868C1
:1019F000800339D560680028E7D035E06068B0F52D
:101A0000803F0BD010B1B0F5A02F11D0286820F482
:101A100080302860286820F4802002E0286840F4A4
:101A200080302860606890B1FFF76CFB06460AE0E2
:101A3000286840F480202860F0E700BFFFF762FBD1
:101A4000801B642873D828688003F7D50CE0FFF763
:101A500059FB064605E000BFFFF754FB801B6428D6
:101A6000F0D828688003F7D420789A4E80074FF08A
:101A700001094FF0000839D5686810F00C0F07D045
:101A80006868C0F38100022809D16868C00306D4E1
:101A90002868800714D52069012808D110E0206942
:101AA000B0B1C6F80090FFF72DFB074605E00AE14C
:101AB000FFF728FBC01B0228C4D828688007F7D589
:101AC0002868616920F0F80040EAC10028600DE054
:101AD000C6F80080FFF716FB074604E0FFF712FB8D
:101AE000C01B022823D828688007F7D42078000775
:101AF0002CD57948A169D9B1C0F80090FFF702FB55
:101B0000074604E0FFF7FEFAC01B02280FD8686AF8
:101B10008007F7D571484FF4FA510068B0FBF1F037
:101B2000009000BF0098411E0091FAD20EE080E0C4
:101B3000C0F80080FFF7E6FA074604E0FFF7E2FA94
:101B4000C01B022875D8686A8007F7D42078400740
:101B500060D5E8690027C00008D4E86940F08050EB
:101B6000E861E869012700F0805000905C48016856
:101B7000C90513D40168834641F480710160FFF701
:101B8000C1FA824606E000BFFFF7BCFAA0EB0A00EC
:101B900064284ED8DBF80000C005F5D5E0680128C0
:101BA0000AD008B1052813D0286A20F00100286265
:101BB000286A20F0040002E0286A40F00100286250
:101BC000E06841F2883B98B1FFF79CFA82460BE04F
:101BD000286A40F004002862EEE700BFFFF792FA9F
:101BE000A0EB0A0159455AD8286A8007F6D50CE0BF
:101BF000FFF788FA824605E0FFF784FAA0EB0A01B6
:101C000059454CD8286A8007F6D41FB1E86920F0FE
:101C10008050E861E06988B36968C1F381010229F5
:101C200044D00228C6F8608004D0FFF76BFA04465F
:101C300038E034E0FFF766FA074604E0FFF762FA9F
:101C4000C01B02282BD828688001F7D4206AB0F581
:101C5000803F05D16868A16820F4003008436860BF
:101C6000D4E908010843696821F4741108436860E5
:101C7000C6F86090FFF746FA044606E025E000BF8C
:101C8000FFF740FA001B022809D828688001F7D521
:101C90001BE000BFFFF736FA001B022802D9032021
:101CA000BDE8F88F28688001F4D40EE00128F7D051
:101CB0006868226A00F48031914204D1616A00F4BC
:101CC0007010884201D00120EAE70020E8E7000018
:101CD0000010024000004242800442421C000020EA
:101CE0000070004010B5401EB0F1807F01D301208C
:101CF00010BD4FF0E02460610F21601701F0D8F9AA
:101D00000020A06107202061002010BD70477047AF
:101D100070B590F83C20012A26D0012480F83C4080
:101D2000022280F83D2003685A689D6822F0700600
:101D30000A6832435A600D4B02689A4208D0B2F1E9
:101D4000804F05D00A4B9A4202D00A4B9A4204D1E6
:101D5000496825F080031943916080F83D400021D7
:101D600080F83C10084670BD022070BD002C014078
:101D7000000400400008004010B5040003D094F8AF
:101D80003D0010B107E0012010BD002084F83C00A8
:101D9000204600F01FF8022084F83D00211D206835
:101DA00001F070F8012084F8460084F83E0084F8C1
:101DB0003F0084F8400084F8410084F8420084F831
:101DC000430084F8440084F8450084F83D00002076
:101DD00010BD000008B500680B49884212D10B48BD
:101DE000C16941F00201C161C069002200F0020036
:101DF000009006211D20FFF70FFCBDE808401D20C4
:101E0000FFF7FCBB08BD00000004004000100240CA
:101E100090F83D10012901D001207047022180F87F
:101E20003D100168CA6842F00102CA6000680B49AF
:101E3000884208D0B0F1804F05D00949884202D0CD
:101E40000849884204D1816801F00701062903D0BE
:101E5000016841F00101016000207047002C014041
:101E6000000400400008004070B5044690F83C00B3
:101E70000025012817D0012684F83C60022084F850
:101E80003D002068826822F0770222F47F4282605F
:101E90000868502838D00DDC20284FD005DC90B3DE
:101EA000102811D14AE0022070BD302846D04028C9
:101EB0000AD13BE060282FD070280DD0B0F5805FAC
:101EC00003D0B0F5005F12D0012584F83D600020FA
:101ED00084F83C00284670BDCB68D1E90121206818
:101EE00001F006F82068816841F0770109E0CB68CD
:101EF000D1E90121206800F0FBFF2068816841F4EE
:101F000080418160E1E719E0CA684968206801F012
:101F100001F85021206806E0CA684968206801F08D
:101F20000AF86021206800F0EDFFCEE7CA68496832
:101F3000206800F0EFFF40212068F4E722680146A6
:101F40001046F0E7704770B50446006801694FF02D
:101F50000005C943890715D4C168C943890711D44D
:101F6000E91E0161012020772068806980072046F2
:101F700002D0FFF7E7FF04E000F098F8204600F0F9
:101F800096F8257720680169C943490717D4C168C5
:101F9000C943490713D46FF004010161022020777F
:101FA0002068806910F4407F204602D0FFF7CAFF06
:101FB00004E000F07BF8204600F079F825772068EF
:101FC0000169C943090716D4C168C943090712D476
:101FD0006FF008010161042020772068C069800744
:101FE000204602D0FFF7AEFF04E000F05FF8204685
:101FF00000F05DF8257720680169C943C90617D448
:10200000C168C943C90613D46FF0100101610820EB
:1020100020772068C06910F4407F204602D0FFF787
:1020200091FF04E000F042F8204600F040F82577E8
:1020300020680169C943C90708D1C168C943C907F4
:1020400004D1891E0161204600F032F82068016940
:10205000C943090609D4C168C943090605D46FF00C
:10206000800101612046FFF751FE20680169C943E4
:10207000490609D4C168C943490605D46FF0400137
:102080000161204600F02AF820680169C9438906E9
:102090000BD4C168C943890607D46FF020010161E0
:1020A0002046BDE87040FFF732BE70BD70477047F4
:1020B00010B5074C07496068401C6060884205D92C
:1020C00001210548FFF710F80020606010BD0000F6
:1020D00000000020A086010000100140704770B58C
:1020E000040004D094F84100002510B106E001205E
:1020F00070BD84F84050204600F024F8242084F875
:1021000041002068C16821F40051C160204600F000
:1021100025FF2068016921F490410161206841692F
:1021200021F02A0141612068C16841F40051C16079
:102130006564202084F8410084F842006563002033
:1021400070BD000070B586B0002400940194029424
:10215000039403682648254E022103220515B34245
:102160001ED1836943F480438361836903F4804310
:102170000493836943F00403836180691D4E00F07A
:10218000040004900802CDE900010392694630463C
:10219000FEF7BAFECDE9005469463046029420E0CD
:1021A000154EB3421FD1C36943F48023C361C36991
:1021B00003F480230493836943F0080383618069F7
:1021C000CDE9005100F00800CDE903200B4D694630
:1021D0002846FEF799FEE814CDE900046946284632
:1021E0000294FEF791FE06B070BD00000038014079
:1021F000001002400008014000480040000C01406F
:102200002DE9F843044690F841001F4616460D4656
:10221000202802D00220BDE8F8837DB176B10020ED
:102220006064212084F84100FEF76CFFA68480469C
:10223000E684A068B0F5805F02D003E00120EAE701
:10224000206910B12E4600250EE000260CE080210A
:10225000204600F0DFFEA0B9AEB116F8010B2168F0
:102260004860E08C401EE084E08C43464FF0000262
:1022700000970028EBD14FF04001204600F0CAFE45
:1022800030B10320C7E735F8020BC0F30800E6E7DA
:10229000202084F841000020BDE7FEE70148FEF75A
:1022A00039BF00007C00002038B5406A002190F85A
:1022B0003D202B4B46F2A8141B68B3FBF4F3C3EB91
:1022C000C30303EB830300933BB15B1E00930368DE
:1022D0001B689B0505D5009BF6E7036C43F02003C4
:1022E0000364436B03B19962836B03B19962036822
:1022F0001C6824F480641C604185436B03B15963FE
:10230000836B03B1596303681C6824F001041C60EB
:1023100090F83D402023602C0BD0282434EA0202A0
:102320000FD080F83D3080F83E1000BFFFF70AF86C
:1023300038BD80F83D3080F83E100164FEF7E8FEBD
:1023400038BD0268136843F0010313600268136824
:1023500043F480631360016380F83D40E6E70000CA
:102360001C00002000684169C943090601D400210E
:102370000161704770B5044690F83D0094F83E1036
:10238000102901D0402906D1222804D121680A68E9
:1023900022F400620A60282131EA00024FF00005B1
:1023A0004FF0200626D021684968090505D4602829
:1023B00003D084F83D6084F83E502563206841686E
:1023C000090537D5416821F400614160606B90F8E0
:1023D00021203C49012A11D04163606BFEF71AFDB0
:1023E00038B32068016821F00101016084F83D6084
:1023F000606B1CE0256384F83D10DFE7A06B416350
:10240000A06BFEF707FDA0B120684169C9434906EA
:1024100005D40069616A0870606A401C60622068C7
:10242000016821F00101016084F83D60A06B416BFF
:10243000884710E094F83D10602910D04169C943E5
:10244000490605D40069616A0870606A401C6062D0
:102450002046FEF777FF206CC1071CD115E084F8F9
:102460003D6025644169C943490605D40069616A34
:102470000870606A401C60622068016821F00101F8
:1024800001602046FEF744FEE5E7810703D44107DB
:1024900001D4000704D52068416821F4E06141605F
:1024A00094F83D00216C49070BD5282809D106482E
:1024B000E062256384F83D6084F83E502046FFF7D3
:1024C00007F870BDA92200080000FFFF10B5C26A1E
:1024D000438D0168042B06D0438D032B08D0438D18
:1024E000022B1DD012E04A6822F480624A600CE0A0
:1024F0004B6823F480634B60042A06D0022A04D080
:1025000001680A6822F480620A6001680969426A07
:102510001170416A491C4162418D491E418510BDBF
:10252000012A30D0102A2ED0042A30D0022A2ED0F0
:102530000A6842F400720A6001680969426A11700F
:10254000416A491C4162428D521E428502681269ED
:102550000A70416A491C4162418D491E41850168EA
:102560004A6822F440724A60202180F83D1090F8B9
:102570003E200021402A80F83E100CD01221016339
:10258000FEF7A7FF10BD0A6822F48062D3E70A684D
:1025900042F48062CFE70163FEF79DFF10BD0000AB
:1025A00038B590F83D1022290FD1418D03290DD95E
:1025B00001680969426A1170416A491C4162418D92
:1025C000491E4185418D032906D038BDC26A022AC1
:1025D00002D0012906D029B10068416821F4806148
:1025E000416038BD274946F2A81300220968B1FBB3
:1025F000F3F101EB8101009101682023009C641E2E
:10260000009422D00C68A405F8D40C6824F48064EB
:102610000C6001684C6824F4E0644C60016809694E
:10262000446A2170416A491C4162418D491E4185BD
:1026300080F83D3090F83E1080F83E2040291DD0B3
:1026400012210163FEF745FF38BD046C44F02004FD
:1026500004644C6824F4E0644C6001680969446ACD
:102660002170416A491C4162418D491E418580F8B3
:102670003D3080F83E20FEF765FE38BD0263FEF770
:102680002AFF38BD1C00002010B5C26A90F83D102A
:1026900021290BD1418D51B1416A0268097811613C
:1026A000416A491C4162418D491E418510BD20236C
:1026B0000021082A13D0202A11D012F5803F0ED015
:1026C0000268546824F4E06454601122026380F8C4
:1026D0003E1080F83D3000BFFEF7FCFE10BD0268E2
:1026E000546824F4E06454600268146844F400748C
:1026F0001460016380F83D3090F83E2080F83E1071
:10270000402AE9D1FEF7E8FE10BD000010B590F8B0
:102710003D1090F83E30C26A048DB4B1212903D037
:10272000402B11D122290FD1418DE1B390F83E10F9
:10273000402942D0416A026809781161416A491C06
:102740004162418D491E418510BD2129E8D12023D8
:102750000021082A13D0202A11D012F5803F0ED074
:102760000268546824F4E06454601122026380F823
:102770003E1080F83D3000BFFEF7ACFE10BD026891
:10278000546824F4E06454600268146844F40074EB
:102790001460016380F83D3090F83E2080F83E10D0
:1027A000402AE9D100E002E0FEF796FE10BD006885
:1027B000416821F48061416010BDBDE8104000F027
:1027C000F3B8000078B590F83E50C26A046B90F8F8
:1027D0003D6000230168222E73D1066D0EB9402D95
:1027E0006FD0056D1DB90569B5F5404F1BD0458DFE
:1027F00095B3468D484D012E20D0448D022C4DD0EE
:102800000C6844F480640C6001684C68240579D538
:10281000AA4273D0012A71D0082A6FD0102A6DD035
:10282000202A6BD06EE04A698A6900920A6842F4F5
:1028300080720A60016D491C016578BDAA4214D1FD
:102840000A6822F480620A6001684A68120504D5A9
:102850000A6822F4806217E0FFE74A698A690092F9
:102860000A6842F400720A6050E0082A10D0202A58
:102870000ED0122C0AD0042A03D0022A01D0102A2A
:10288000E6D10A6842F480620A603BE0012ADFD0A8
:102890000A6822F480620A600168DEE7042A11D027
:1028A000022A0FD0102A0DD00C6844F400640C608A
:1028B00001684C698C6900940C6824F480640C6095
:1028C00008E025E00C6844F480640C6001684C6901
:1028D0008969009101684C68240517D5AA4207D080
:1028E000012A05D0082A03D0102A01D0202A0DD1B0
:1028F0004A6842F480524A6008E0FFE74A6842F4BE
:1029000080524A6001684A6989690091036578BD0F
:1029100048698869009078BD0000FFFF90F83E107C
:10292000402910D00169B1F5804F19D0016DA9B3CC
:10293000016D012910D1416C5FF0F10201F4407189
:1029400042EAD11106E0016D0029416C05D0C9B2FF
:1029500041F0010100680161704701F0FE01F9E7F3
:1029600090F83D102129416C09D0C9B241F0010114
:1029700002681161416B29B1896A49B902E001F02D
:10298000FE01F5E7816B0029E6D0896A0029E3D0D2
:102990000068416841F4006141607047FFE7416CA5
:1029A000F02201F44071CBE710B590F83D10026DB4
:1029B0004AB1026D012A14D0026D022A16D0BDE878
:1029C0001040FFF7CFBCC16C0129816C02D0C1F36C
:1029D000072108E00268C9B21161016D891C016517
:1029E00010BD816CC9B20268116123E022291CD09C
:1029F000428D0AB1212920D0428D002AF0D121290F
:102A0000EED101684A6822F4E0624A6001680A680F
:102A100042F400720A6000210163202280F83D2008
:102A200080F83E10FEF758FD10BD01680A6842F4B8
:102A300080720A60016D491CD1E7416A0268097819
:102A40001161416A491C4162418D491E418510BD99
:102A500038B50C4690F83D200021282595430268A2
:102A60000B4605D051699169009180F83C3038BD22
:102A7000556825F480655560E243540700D501216F
:102A8000120601D5828900E0028B80F83C3092B2B8
:102A9000FEF73FFB38BD0000F8B590F83D600446F6
:102AA0000068416821F4E0614160206800254169C7
:102AB0000091016841F0010101602068016821F482
:102AC0008061016020684168090520D5474F222EAA
:102AD00048D02A2E46D0616B096849686185618DAE
:102AE00019B1216C41F004012164416821F40061B5
:102AF0004160606BFEF7DAF9012808D0606B47632C
:102B0000606BFEF787F910B1606B416B8847608D91
:102B100008B320684169C943490708D40069616A5C
:102B20000870606A401C6062608D401E608520688D
:102B30004169C943490608D40069616A0870606A3E
:102B4000401C6062608D401E6085608D18B1206CF5
:102B500040F004002064206C00B32046BDE8F8403B
:102B6000FFF708BCA16B096849686185618D19B1DF
:102B7000216C41F004012164416821F4006141604D
:102B8000A06BFEF793F90128C1D0A06B4763A06B3F
:102B9000FEF740F90028BAD0A06BB6E72A2E06D17E
:102BA0002563282084F83D002046FEF7CDFC94F8EC
:102BB0003D10202028290DD0216B222901D0222E62
:102BC00007D1256384F83D0084F83E502046FEF787
:102BD000BBFCF8BD0649E162256384F83D0084F83A
:102BE0003E502046FEF774FCF8BD0000A922000804
:102BF0000000FFFF3EB500241148009401940294A8
:102C00000E498460016004730475012505614FF469
:102C100060214460C161FDF7DBFF08B1FDF750FEA4
:102C20000920CDE90005694602940548FDF7B8FE84
:102C3000002801D0FDF744FE3EBD00000024014005
:102C40004C00002030B585B0002420480094019449
:102C500002940394816941F010018161816901F05E
:102C600010010491816941F008018161816901F0DD
:102C700008010491816941F0040181618069144D6A
:102C800000F004000490012203212846FEF734FAE4
:102C9000032000900120CDE9010402200390694641
:102CA0002846FEF731F9A81500900A48CDE901043D
:102CB00069462846FEF728F9002204211720FEF76E
:102CC000ABFC1720FEF79AFC05B030BD00100240A7
:102CD00000100140000011100D4810B50B490160B3
:102CE0000C49416000214FF480428160C0E9031229
:102CF00041618161C1610162FEF726FB002803D0BA
:102D0000BDE81040FDF7DCBD10BD000000540040E0
:102D10007C000020A086010010B586B00024174872
:102D2000009401940294039404941349059401605F
:102D30002321C0E901140921C0E903148021816124
:102D4000FFF71AF808B1FDF7BBFD4FF48050009073
:102D500069460A48FFF788F808B1FDF7B1FD049409
:102D600004A906480594FEF7D3FF002801D0FDF71B
:102D7000A7FD06B010BD000000040040D0000020F8
:102D80000C4810B50A4901604FF4E131416000215F
:102D900081600C22C160C0E904128161C161FFF74A
:102DA0009EF9002803D0BDE81040FDF789BD10BD95
:102DB00000380140180100200C4810B50A49016094
:102DC0004FF4E1314160002181600C22C160C0E913
:102DD00004128161C161FFF782F9002803D0BDE8C8
:102DE0001040FDF76DBD10BD00480040600100209F
:102DF000FEE7FEE770477047FEF7A8BB30B593B01B
:102E000028216846FDF7A5F914210AA8FDF7A1F9C4
:102E10000024022501200F940490009510200590B5
:102E200012944FF4E010CDE90840119410940795E6
:102E30006846FEF7C7FD08B172B6FEE70F20CDE980
:102E40000A054FF48060CDE90C4001210AA80E94D8
:102E5000FEF7DCFC08B172B6FEE74FF4804011903B
:102E60000F950FA8FEF75CFC002801D072B6FEE7B4
:102E700013B030BD704700000148FFF764B8000090
:102E8000D0000020F0B50268164B174C174D4FF0DC
:102E90008047984205D0B84203D0A04201D0A84252
:102EA00003D122F070064A683243984205D0B842F6
:102EB00003D0A04201D0A84203D122F44074CA68D2
:102EC00022434C6922F08002224302608A68C26277
:102ED0000A688262984201D1096901630121416156
:102EE000F0BD0000002C014000040040000800403C
:102EF00010B5846842EA032224F47F440A43224343
:102F0000826010BD826822F070020A4342F007011D
:102F10008160704710B5036A046A24F001040462FA
:102F2000846924F0F00444EA021423F00A020A43FC
:102F30008461026210BD10B5036A046A24F01004B3
:102F40000462846923F0A00324F4704444EA02324A
:102F500043EA01118261016210BD000070B50446B0
:102F600000680169E26821F440511143016121695F
:102F7000A0680843616908432168CA6841F20C638C
:102F80009A430243CA6020684169A26921F44071F2
:102F9000114341611E492068884202D1FEF7DCFCE2
:102FA00001E0FEF7C9FC00EBC00101EB0012606814
:102FB00064218000B2FBF0F3B3FBF1F36FF018066D
:102FC0007343B2FBF0F5B2FBF0F605EB8305322359
:102FD00003EB0515B5FBF1F5B6FBF1F605F0F005D1
:102FE00005EB0615B2FBF0F6B2FBF0F0B0FBF1F02A
:102FF0006FF01802504306EB800003EB0010B0FBAB
:10300000F1F0216800F00F002844886070BD0000D6
:10301000003801402DE9F041984617460E46044617
:10302000069D27E0681C25D02DB1FEF76BF8A0EBBC
:103030000800A8421ED920680C3050E8001F21F477
:10304000D07140E80012002AF5D12068143050E811
:10305000001F21F0010140E80012002AF5D12020D4
:1030600084F8410084F84200002084F840000320E6
:10307000BDE8F0812068006836EA000004D0002036
:10308000B842CFD00020F3E70120F9E7FEE70000C7
:103090000FB4054B10B503A9044A029800F0EAF8F2
:1030A00010BC5DF814FB00004D3A00082000002021
:1030B0000907090E002804DB00F1E02080F8001465
:1030C000704700F00F0000F1E02080F8141D7047F9
:1030D00002E008C8121F08C1002AFAD170477047E1
:1030E000002001E001C1121F002AFBD1704700003F
:1030F0002DE9FF5F82B00021DDE90430020DDDF82B
:1031000040B0034318D044F61050A2F2FF324243BD
:103110001514119801281FD0A5EB0B00401C5FEA85
:10312000000A4FF000064E4FDFF83891B046504687
:1031300015D5CAF1000413E0119801244AA301280F
:1031400001D16FEA0B010298119AC0E90031C0E980
:10315000024206B0BDE8F09FCBF10000DFE7044675
:103160000021404A491842EB0450CDE9001012E01A
:10317000E00707D032463B4640464946FDF732F865
:103180008046894632463B4610461946FDF72AF8E6
:1031900006460F466410002CEAD1DDE90401DDE9A2
:1031A0000023BAF1000F06DAFDF71CF842464B4641
:1031B000FDF718F805E0FDF787F842464B46FDF7A6
:1031C00083F804460E460022284BFDF71DF903D86C
:1031D0004FF0FF30014607E00022254B20463146E4
:1031E000FDF705FAFDF7AAFA102409E0002C0ADB26
:1031F0000A220023FDF736F9039B30321A55641E6C
:1032000050EA0102F2D1641C039AC4F11103144480
:10321000119A012A03D0012208430DD10AE0084384
:1032200004D000204FF0110B119072E7A3EB0B05B7
:103230006D1E0DE05B4504DD4FF0000205F1010558
:1032400004E003DA4FF00002A5F10105002AECD0FA
:1032500002981199C0E90231C0E9004579E7000000
:10326000000014400000F03F300000000000F04378
:103270000000E03F2DE9FF4F95B09B46894606468A
:1032800000250FE2252877D100242746F84A01219E
:10329000059400E0044316F8013F203B01FA03F0D7
:1032A0001042F7D130782A2811D06FF02F033078F0
:1032B000A0F13002092A16D8059A44F0020402EB64
:1032C000820203EB42021044761C0590EFE759F8A6
:1032D000042B0592002A03DA504244F4005405906E
:1032E00044F00204761C30782E2816D116F8010F0F
:1032F00044F004042A280DD06FF02F023078A0F19A
:103300003003092B09D807EB870302EB4303C718E7
:10331000761CF3E759F8047B761C30786C280FD0C4
:1033200006DC4C2817D068280DD06A2814D104E098
:10333000742810D07A280FD10DE044F400140AE06C
:1033400044F4801401E044F440147278824202D1C3
:1033500004F58014761C761C307866280BD013DCBC
:10336000582877D009DC002875D04528F6D04628A3
:10337000F4D047281AD19DE118E0632835D064289D
:1033800079D0652812D195E1702873D008DC6728C0
:10339000F1D069286FD06E280DD06F2806D1B5E026
:1033A00073282CD0752875D0782874D05A46179970
:1033B00090476D1C75E1C4F30250022809D0032820
:1033C0000DD0D9F8001004280DD00D6009F10409C2
:1033D00067E1D9F80010EA17C1E90052F6E7D9F819
:1033E00000100D80F2E70D70F0E719F8041B8DF85E
:1033F000001000208DF80100EA46012003E059F892
:1034000004AB4FF0FF3061074FF0000102D40DE034
:1034100008F101018846B9420FDA8045F8DB1AF855
:1034200008100029F4D108E008F101018846814222
:10343000FADB1AF808100029F6D105985B46A0EBD4
:10344000080721463846179A00F094FA284400EB02
:10345000080507E04DE029E10DE01AF8010B5A4696
:1034600017999047B8F10108F7D25B4621463846D4
:10347000179A13E142E00A220092C4F302524FF07D
:10348000000A022A08D059F804CB032A4FEAEC714B
:103490000AD00DE029E02AE009F1070121F0070236
:1034A000F2E802C1914609E00FFA8CFC4FEAEC7198
:1034B000042A03D14FFA8CFC4FEAEC71002907DA99
:1034C0000A460021DCF1000C61EB02012D2202E032
:1034D000220504D52B228DF80420012203E0E20707
:1034E00001D02022F7E7904659E00A2102E010229D
:1034F0000DE010214FF0000A00910BE010224FF078
:10350000000A44F004040827009203E008224FF068
:10351000000A0092C4F30252022A05D059F804CBE3
:103520000021032A08D009E009F1070121F0070270
:10353000F2E802C1914605E01FFA8CFC042A01D191
:103540000CF0FF0C4FF00008220728D5702806D099
:10355000009B83F0100353EA0A0305D00EE04022DB
:103560008DF80420012208E05CEA010206D0302236
:103570008DF804208DF8050002229046009B83F010
:10358000080353EA0A030AD15CEA010201D1620787
:1035900005D530228DF804204FF001087F1E5828F1
:1035A00004D034A003900EA802900DE036A0F9E7F5
:1035B00053466046009AFCF755FF84460398825CA8
:1035C0000298401E029002705CEA0100F0D102985D
:1035D00006A9081A00F1200A600702D524F48034F5
:1035E00000E00127574502DDA7EB0A0000E00020BC
:1035F00000EB0A01009005984144401A0590E00351
:1036000006D45B462146179A059800F0B3F90544A5
:10361000002706E001A85A46C05D179990476D1C27
:103620007F1C4745F6DBE0030CD55B462146179A25
:10363000059800F09FF9054404E030205A46179998
:1036400090476D1C0099481E00900029F5DC08E0A9
:10365000029802995A460078491C0291179990479E
:103660006D1CBAF10001AAF1010AF1DC65E100006C
:103670000928010030313233343536373839616248
:10368000636465660000000030313233343536370C
:1036900038394142434445460000000000F058F9E3
:1036A0000544761C307800287FF4ECAD19B028462C
:1036B000BDE8F08F620700D4062709F1070222F067
:1036C000070CFCE80223E14603F000485FEA080C1F
:1036D00002D00FF2702C0DE05FEA045C02D50FF20D
:1036E000682C07E05FEAC47C02D00FF2602C01E096
:1036F000AFF2700C4FF0FF3823F00043CDF850C00C
:1037000065280CD006DC452809D046281DD047285E
:103710003DD13DE0662818D067287ED138E00021F1
:10372000112F01DB112000E0781CCDE9000106A972
:103730000EA8FFF7DDFCDDE90F010E9A03910021D1
:10374000009207F1010A04914DE04FF0004000970C
:10375000CDE9011006A90EA8FFF7CAFCDDE90F02AA
:1037600003920E9B11990022DDF80CA000930492A5
:1037700011B9791C00EB010AB7EB0A0004D4C0F1BF
:10378000FF3007F1010A0490AAEB0700019044E022
:10379000012F00DA01270021112F01DD112000E0A7
:1037A0003846CDE9000106A90EA8FFF7A1FCDDE926
:1037B0000F010E9A0391002104910092BA4621074D
:1037C0000CD40399514500DA8A46BAF1010F05DDA0
:1037D000009AAAF10101515C302908D0B84202DAFE
:1037E00010F1040F06DA0121CDE9011015E0AAF16C
:1037F0000101E9E7002805DC049901440491AAEBE2
:10380000000102E0411C514500DD8A460499401A3E
:10381000401C01904FF000400290200704D4019812
:10382000504501DBCDF8048000208DF84F00029850
:103830000DF14F07B0F1004F25D02B200E900298CC
:103840004FF0020800280CDA404202902D200E9022
:1038500007E00A210298FCF7EFFD3031029007F8EB
:10386000011DB8F10001A8F10108F2DC029800285E
:10387000EFD1791E0E980870307800F0200040F0EB
:10388000450007F8020D12A8C01B00F107081498A4
:10389000007800B1012000EB0A01019801EBE07112
:1038A00005984144401A401E0590E00306D45B464B
:1038B0002146179A059800F05DF8054414980078A1
:1038C00018B15A46179990476D1CE00324D55B4602
:1038D0002146179A059800F04DF805441CE004981D
:1038E000002807DBDDE90301884203DD0098405C26
:1038F000179901E0179930205A469047049805F12E
:103900000105401C04900198401E019004D12E2016
:103910005A46179990476D1CBAF10001AAF1010AA5
:10392000DDDC05E017F8010B5A46179990476D1C2E
:10393000B8F10001A8F10108F4DC5B462146179AB2
:103940000598ABE62D0000002B00000020000000D1
:103950002DE9F041044600251E461746880404D48C
:1039600005E039462020B0476D1C641EF9D5284675
:10397000BDE8F0812DE9F041044600251E46904641
:10398000C80301D5302700E02027880404D505E0CE
:1039900041463846B0476D1C641EF9D52846BDE83F
:1039A000F08100000A49D1E90101884203D2094AA5
:1039B000511A0A1800E0421A0749002001EB80035F
:1039C0005B6841F82030401C0928F7DB4A627047E9
:1039D00000000020A08601002400002010B5002077
:1039E000084A014652F82130491CC9B218440A2934
:1039F000F8D3FCF7D8FC0449FCF7B6FBBDE810404F
:103A0000FCF7D6BC2400002000002041064840F608
:103A1000B83102888A4204D24088884201D9012004
:103A2000704700207047000000000020064840F664
:103A3000B83102888A4204D94088884201D20120E4
:103A400070470020704700000000002013B50A23D3
:103A5000012269460248FEF7D3FB00981CBD000016
:103A60001801002070B5FFF7B9FF02460B46002091
:103A70000E49FCF729FC00220D4BFCF7B3FB044672
:103A80000D4600220B4BFCF7BFFC06D300220A4B6D
:103A900020462946FCF7A0FC01D2012000E00020CE
:103AA0000649C8602046294670BD0000006AF840FB
:103AB00000004E4000C0624000004940000000206D
:103AC000FDF74CFDFFF79AF9FFF7BCF8FFF758F93F
:103AD000FFF790F8FFF720F9FFF76EF9FFF7FCF812
:103AE000002211461220FDF797FD1220FDF786FDFA
:103AF0000B48FDF729F90B48FEF78AF90848FCF74F
:103B0000E1FE0748FDF720F9FFF7ACFF02460B4640
:103B100005A0FFF7BDFA6420FDF7CCF9F1E700003E
:103B20004C000020D000002025660D0A0000000097
:103B3000010202030405060708090A0B0C0D0E0F0B
:103B40001010010202030405060708090A0B0C0DF8
:103B50000E0F10100000000000000000010203041E
:103B60000607080900000000010203048C3B00085E
:103B70000000002024000000D0300008B03B000806
:103B80002400002084050000E03000080000000050
:103B90000000000000000000000000000100000024
:103BA00010000000000000000024F40000000000ED
:04000005080000ED02
:00000001FF
