:020000040800F2
:10000000D8040020010100085F180008FB16000852
:100010005D18000879020008ED1A000800000000D1
:10002000000000000000000000000000631800084D
:100030007B02000800000000611800086518000835
:100040001B0100081B0100081B0100081B01000820
:100050001B0100081B0100081B0100081B01000810
:100060001B0100081B0100081B0100081B01000800
:100070001B0100081B0100081B0100081B010008F0
:100080001B0100081B010008990100081B01000862
:100090001B0100081B0100081B0100081B010008D0
:1000A0001B0100081B0100081B0100081B010008C0
:1000B0001B010008D91800081B0100081B010008DB
:1000C0001B0100081B0100081B0100081B010008A0
:1000D0001B0100081B0100081B0100081B01000890
:1000E0001B0100081B0100081B010008DFF80CD0F1
:1000F00000F040F800480047FD1C0008D80400202C
:100100000648804706480047FEE7FEE7FEE7FEE7B1
:10011000FEE7FEE7FEE7FEE7FEE7FEE7D51800088C
:10012000ED000008D2B201E000F8012B491EFBD21D
:1001300070470022F6E710B513460A4604461946F2
:10014000FFF7F0FF204610BD30B50B4601460020FA
:100150002022012409E021FA02F59D4205D303FA89
:1001600002F5491B04FA02F52844151EA2F101020A
:10017000F1DC30BD064C074D06E0E06840F00103BD
:1001800094E8070098471034AC42F6D3FFF7B2FF6B
:10019000981D0008B81D0008014800F088B900004B
:1001A0001800002070B5044600688168C943C9077B
:1001B00017D1816821F00101816000F019FC05462A
:1001C0000AE000BF00F014FC401B022804D920689C
:1001D0008068C043C00706D020688068C043C0075D
:1001E000F0D0002070BDA06A40F01000A062E06A6C
:1001F00040F00100E062012070BD0000F8B500266B
:100200000446009600688168C943C9072DD08168FB
:1002100041F001018160164816490068B0FBF1F019
:1002200000E0401E00900028FBD100F0E1FB0546F5
:1002300016E000BF00F0DCFB401B022810D920684C
:100240008068C043C0070BD0A06A40F01000A062D5
:10025000E06A40F00100E06284F824600120F8BD0B
:1002600020688068C043C007E4D10020F8BD0000CA
:100270001000002040420F00FEE7704772B6FEE714
:10028000F8B500250446009590F8240001280BD00D
:10029000012084F824002046FFF784FF2046FFF762
:1002A000ADFF060002D050E00220F8BDA06A20F4A5
:1002B000885040F00200A062022000F037FC25497F
:1002C0000968B1FBF0F0400000E0401E00900028FB
:1002D000FBD12068816841F00801816000F088FB53
:1002E000074608E000F084FBC01B0A2803D92068F9
:1002F0008068000715D4206880680007F2D4206861
:10030000816841F00401816000F072FB074612E051
:1003100000F06EFBC01B0A280DD9206880684007DA
:1003200009D5A06A20F0020040F01000A06284F815
:1003300024500120F8BD206880684007E8D4A06AF6
:1003400020F0020040F00100A06284F82450304602
:10035000F8BD00001000002070470000F8B5002430
:10036000009490F824202546012A12D0012280F81A
:1003700024204A681F23072A0DD20668776B521E75
:1003800002EB820293409F430B6893401F437763C5
:1003900019E00220F8BD06680D2A0AD2376BD21F79
:1003A00002EB820293409F430B6893401F433763E5
:1003B00009E0F76A0D3A02EB820293409F430B6813
:1003C00093401F43F7620A68072306680A2A0AD384
:1003D000F7680A3A02EB420293409F438B689340CE
:1003E0001F43F76008E0376902EB420293409F43E6
:1003F0008B6893401F4337610A68102A01D0112A85
:1004000020D1124B02689A4217D193681B0219D46B
:10041000936843F4000393600968102912D10C49D2
:100420000C4A0968B1FBF2F101EB8101490000E0DF
:10043000491E00910029FBD104E0816A41F02001AE
:100440008162012480F824502046F8BD0024014038
:100450001000002040420F0010B501F033FC0F4C9B
:1004600030B100220121204600F0BCFA012208E050
:1004700001F018FC48B101221146204600F0B2FA02
:1004800000220221204600F0ADFA054C2088608051
:10049000044800F009F8208010BD00000010014061
:1004A00000000020180000200068C06C704770B584
:1004B0000446006806684568A90625D5B10723D516
:1004C000A16AC90603D4A16A41F40071A1628168DE
:1004D000C1F34241072910D1217B71B9416821F054
:1004E00020014160A06A20F48070A062A06AC0046C
:1004F00003D4A06A40F00100A0622046FFF7ACFFE1
:1005000021686FF01200086028062ED570072CD5E0
:10051000A06AC00603D4A06A40F40050A06220681C
:100520008168C1F30231072909D04168490515D412
:100530008168C1F34241072910D1217B71B941681B
:1005400021F080014160A06A20F48050A062A06A7E
:10055000C00503D4A06A40F00100A0622046FFF766
:10056000FBFE21686FF00C00086068060CD5F007F0
:100570000AD0A06A40F48030A062204600F094F8CF
:1005800021686FF00100086070BD00002DE9F041A6
:100590004FF0000704003D467ED0A06A002628B92F
:1005A000E66284F82460204600F080F82046FFF7D9
:1005B000F9FDA16AC90600D420B1A06A40F010007C
:1005C000A06269E0A16A21F4885141F00201A162B0
:1005D0006268E169237B0A4347EA43010A43A16851
:1005E0004FF48077B94209D0012907D05FF00001AC
:1005F00094F814C0BCF1010F02D00AE03946F7E7C5
:10060000F3B1A36A43F02003A362E36A43F001035A
:10061000E3622368D3F804C02CF4694C4CEA010C63
:10062000C3F804C021688B68DFF870C003EA0C03CC
:1006300013438B60A168B9420BD0012909D00CE0AB
:10064000DFF85CC0A3690CEB43330B4343F4006158
:10065000DFE7218A0D05A5F580152168CB6A23F413
:1006600070032B43CB62216889680E4B194091427D
:1006700008D1E662A16A21F0020141F00101A16204
:10068000BDE8F081A06A20F0020040F01000A062F6
:10069000E06A40F00100E0620120F1E7FDF7E1FFD0
:1006A00000E0FFFFFE0E1FFF7047000000B585B0A1
:1006B0000021009101910291039100680E49884246
:1006C00018D10E48816941F400718161816901F49A
:1006D00000710491816941F0080181618069694676
:1006E00000F00800049002200090032001900448CC
:1006F00000F080F805B000BD002401400010024069
:10070000000C014070B5044690F8240001280DD07B
:10071000012084F824002046FFF770FD02004FF00E
:10072000000005D084F82400104670BD022070BD82
:10073000A16A40F60163994341F48071A162224DA0
:1007400023682249AB4218D10E6816F4702F14D0DA
:10075000A66A46F48016A6620E68760505D5A66AD6
:1007600026F4005646F48056A662A66AF6040AD518
:10077000E66A26F00606E66206E0A66A26F4801619
:10078000A6625E68E9E7E06284F824006FF0020088
:1007900018602068436843F0200343602068836842
:1007A000C3F34243072B05D1A84208D1096811F4CD
:1007B000702F04D0816841F480118160B4E78168B2
:1007C00041F4A001F9E700000028014004240140A1
:1007D00070B5044600F00CF90546601C02D00448D0
:1007E0000078044400F004F9401BA042FAD370BD25
:1007F000040000202DE9F84FDFF8B8910024A9F19A
:10080000040B23460F2709F1040AABF1040EC9E0DB
:100810000125A5402A40AA427DD1674ED1F804C0E7
:10082000ACEB0608B44532D014DCBCF1030F3AD06F
:1008300009DCBCF1000F2AD0BCF1010F1CD0BCF1C7
:10084000020F31D11DE0BCF1110F17D0BCF1120F16
:100850002AD119E0B8F5881F19D006DCB8F5803F19
:1008600015D0B8F5801F1FD111E0B8F5001F0ED0CC
:10087000B8F5041F18D10AE0CB6815E0CB681B1D42
:1008800012E0CB6808330FE0CB680C330CE08B68C8
:100890002BB1012B4FF0080303D0456104E0042382
:1008A00002E0056100E00023FF2A01D8064601E0CE
:1008B00000F104064FEA840501D9A5F12005D6F818
:1008C000008007FA05FC28EA0C0803FA05F548EA57
:1008D0000508C6F800804D68ED0062D5374DAE6959
:1008E00046F00106AE61AD6924F0030605F001058E
:1008F0000095334D06EB050CDCF80850A607360FC3
:1009000007FA06F825EA0805DFF8B880404503D164
:100910004FF0000817E044E0DFF8AC80404502D11A
:100920004FF001080FE0DFF8A480404502D14FF0FE
:10093000020808E0DFF89880404502D14FF0030834
:1009400001E04FF0040808FA06F848EA0508CCF878
:1009500008804D68D9F80060ED024D4601D5164378
:1009600000E096432E604D68DAF80060AD0255460F
:1009700001D5164300E096432E604D68DBF8006019
:10098000AD035D4601D5164300E096432E604D68E9
:10099000DEF80060ED03754601D5164300E096438E
:1009A0002E60641C0D682A46E5407FF431AFBDE837
:1009B000F88F0000080401400000111000100240F0
:1009C0000000014000080140000C014000100140FF
:1009D00000140140C26821EA02030A4043EA0241CE
:1009E000016170470AB1016170470904FBE700002B
:1009F00001488068704700000400002002488168B8
:100A0000027811448160704704000020074810B547
:100A1000016841F010010160032000F075F80F201B
:100A200000F006F800F024F8002010BD002002407D
:100A300070B50D4D04464FF47A712878B1FBF0F093
:100A40000A490968B1FBF0F000F0A4FB48B9102C8A
:100A500007D200222146501E00F036F800206C60BC
:100A600070BD012070BD00000400002010000020B7
:100A70000C4808B5816941F001018161816901F08B
:100A800001010091C16941F08051C161C06900F06C
:100A9000805000900448416821F0E06141F000710D
:100AA000416008BD0010024000000140002809DB41
:100AB00000F01F02012191404009800000F1E02078
:100AC000C0F8001170470000F0B40E4B1B680C46D4
:100AD000C3F30223C3F10705042D00D90425191D12
:100AE000072901D2002300E0DB1E012606FA05F1EA
:100AF000491E214099409E40761E16403143F0BC6D
:100B000001F006B80CED00E0064900F007020868A5
:100B10004FF6FF03184040EA0220034A10430860E2
:100B2000704700000CED00E00000FA0510B501462A
:100B30000020234C012922D0022939D010291DD1AF
:100B400061682268D20119D51E48C1F38342C903E6
:100B5000805C0AD561681B4AC1F34041921E515C1A
:100B6000194AB2FBF1F1484301E018494843616872
:100B7000490203D440000321B0FBF1F010BD226A0A
:100B8000C2F30121012903D1920701D5C80310BD89
:100B9000022905D1626A920702D549F6404010BD8C
:100BA0000329FCD121688903F9D54FF2244010BDF7
:100BB00000F02AF96168C1F38131491C4900DBE783
:100BC00000100240701D000800127A0000093D006C
:100BD0002DE9F84305460078354CC00754D0E0694C
:100BE0000026C00008D4E06940F08050E061E06970
:100BF000012600F0805000902E480168C90512D4EB
:100C00000168804641F480710160FFF7F1FE0746FC
:100C100005E000BFFFF7ECFEC01B642823D8D8F81E
:100C20000000C005F6D5206A10F4407021D0A988D4
:100C300001F4407181421CD0206A1F49012220F436
:100C400040700A6000220A602062C00711D0FFF7DE
:100C5000CFFE074641F2883808E000BFFFF7C8FE24
:100C6000C11B414502D90320BDE8F883206A8007F3
:100C7000F4D5206A696820F44070084320621EB1F0
:100C8000E06920F08050E0612878800705D5606831
:100C9000A96820F44040084360602878C00605D564
:100CA0006068E96820F48000084360600020DBE7AA
:100CB0000010024000700040400442422DE9F0471D
:100CC0000F46050061D0434E306800F00700B8427F
:100CD00009D2306820F0070038433060306800F0F7
:100CE0000700B84251D128683B4C810712D5400714
:100CF00003D5606840F4E06060602878000703D5A1
:100D0000606840F4605060606068A96820F0F0009E
:100D1000084360602878C00728D06868012810D090
:100D20002168022810D0890700292EDA616821F095
:100D3000030101436160FFF75BFE804641F28839A1
:100D40000DE021688903EFE78901EDE7FFF750FE29
:100D5000A0EB0801494502D90320BDE8F08760688F
:100D6000696800F00C00B0EB810FEFD1306800F043
:100D70000700B8420BD9306820F0070038433060D4
:100D8000306800F00700B84201D00120E5E728787C
:100D9000400705D56068E96820F4E06008436060BA
:100DA0002878000706D56068296920F4605040EA79
:100DB000C100606000F038F86168084AC1F30311AF
:100DC000515CC8400649086006480068FFF730FEDD
:100DD0000020C2E70020024000100240801D0008F1
:100DE00010000020080000200448054900684968F8
:100DF000044AC1F30221515CC84070471000002032
:100E000000100240901D0008044805490068496828
:100E1000044AC1F3C221515CC84070471000002051
:100E200000100240901D00080E4A51680E4801F063
:100E30000C03042B11D0082B0FD10C48C1F38343B2
:100E4000C903C05C0AD55168084AC1F34041921EEB
:100E5000515C054A5043B0FBF1F0704704494843E8
:100E6000704700000010024000127A005E1D00086A
:100E700000093D002DE9F84F040070D02078C04DE6
:100E8000C00749D06868C0F38100012807D06868AE
:100E9000C0F38100022809D16868C00306D528681C
:100EA000800339D560680028E7D035E06068B0F588
:100EB000803F0BD010B1B0F5A02F11D0286820F4DE
:100EC00080302860286820F4802002E0286840F400
:100ED00080302860606890B1FFF78AFD06460AE01E
:100EE000286840F480202860F0E700BFFFF780FD0D
:100EF000801B642873D828688003F7D50CE0FFF7BF
:100F000077FD064605E000BFFFF772FD801B6428F1
:100F1000F0D828688003F7D420789A4E80074FF0E5
:100F200001094FF0000839D5686810F00C0F07D0A0
:100F30006868C0F38100022809D16868C00306D43C
:100F40002868800714D52069012808D110E020699D
:100F5000B0B1C6F80090FFF74BFD074605E00AE187
:100F6000FFF746FDC01B0228C4D828688007F7D5C4
:100F70002868616920F0F80040EAC10028600DE0AF
:100F8000C6F80080FFF734FD074604E0FFF730FDA8
:100F9000C01B022823D828688007F7D420780007D0
:100FA0002CD57948A169D9B1C0F80090FFF720FD90
:100FB000074604E0FFF71CFDC01B02280FD8686A33
:100FC0008007F7D571484FF4FA510068B0FBF1F093
:100FD000009000BF0098411E0091FAD20EE080E020
:100FE000C0F80080FFF704FD074604E0FFF700FDAE
:100FF000C01B022875D8686A8007F7D4207840079C
:1010000060D5E8690027C00008D4E86940F0805046
:10101000E861E869012700F0805000905C480168B1
:10102000C90513D40168834641F480710160FFF75C
:10103000DFFC824606E000BFFFF7DAFCA0EB0A0007
:1010400064284ED8DBF80000C005F5D5E06801281B
:101050000AD008B1052813D0286A20F001002862C0
:10106000286A20F0040002E0286A40F001002862AB
:10107000E06841F2883B98B1FFF7BAFC82460BE08A
:10108000286A40F004002862EEE700BFFFF7B0FCDA
:10109000A0EB0A0159455AD8286A8007F6D50CE01A
:1010A000FFF7A6FC824605E0FFF7A2FCA0EB0A01D1
:1010B00059454CD8286A8007F6D41FB1E86920F05A
:1010C0008050E861E06988B36968C1F38101022951
:1010D00044D00228C6F8608004D0FFF789FC04469B
:1010E00038E034E0FFF784FC074604E0FFF780FCBB
:1010F000C01B02282BD828688001F7D4206AB0F5DD
:10110000803F05D16868A16820F40030084368601A
:10111000D4E908010843696821F474110843686040
:10112000C6F86090FFF764FC044606E025E000BFC7
:10113000FFF75EFC001B022809D828688001F7D55C
:101140001BE000BFFFF754FC001B022802D903205C
:10115000BDE8F88F28688001F4D40EE00128F7D0AC
:101160006868226A00F48031914204D1616A00F417
:101170007010884201D00120EAE70020E8E7000073
:101180000010024000004242800442421000002051
:101190000070004010B5401EB0F1807F01D30120E7
:1011A00010BD4FF0E02460610F21601700F0B0FC2B
:1011B0000020A06107202061002010BD704770470B
:1011C00070B590F83C20012A26D0012480F83C40DC
:1011D000022280F83D2003685A689D6822F070065C
:1011E0000A6832435A600D4B02689A4208D0B2F145
:1011F000804F05D00A4B9A4202D00A4B9A4204D142
:10120000496825F080031943916080F83D40002132
:1012100080F83C10084670BD022070BD002C0140D3
:10122000000400400008004010B5040003D094F80A
:101230003D0010B107E0012010BD002084F83C0003
:10124000204600F01FF8022084F83D00211D206890
:1012500000F048FB012084F8460084F83E0084F842
:101260003F0084F8400084F8410084F8420084F88C
:10127000430084F8440084F8450084F83D000020D1
:1012800010BD000008B500680B49884212D10B4818
:10129000C16941F00201C161C069002200F0020091
:1012A000009011461D20FFF70FFCBDE808401D20EF
:1012B000FFF7FCBB08BD0000000400400010024026
:1012C00090F83D10012901D001207047022180F8DB
:1012D0003D100168CA6842F00102CA6000680B490B
:1012E000884208D0B0F1804F05D00949884202D029
:1012F0000849884204D1816801F00701062903D01A
:10130000016841F00101016000207047002C01409C
:10131000000400400008004070B5044690F83C000E
:101320000025012817D0012684F83C60022084F8AB
:101330003D002068826822F0770222F47F428260BA
:101340000868502838D00DDC20284FD005DC90B339
:10135000102811D14AE0022070BD302846D0402824
:101360000AD13BE060282FD070280DD0B0F5805F07
:1013700003D0B0F5005F12D0012584F83D60002055
:1013800084F83C00284670BDCB68D1E90121206873
:1013900000F0DEFA2068816841F0770109E0CB684F
:1013A000D1E90121206800F0D3FA2068816841F476
:1013B00080418160E1E719E0CA684968206800F06F
:1013C000D9FA5021206806E0CA684968206800F010
:1013D000E2FA6021206800F0C5FACEE7CA684968E1
:1013E000206800F0C7FA40212068F4E7226801462F
:1013F0001046F0E7704770B50446006801694FF089
:101400000005C943890715D4C168C943890711D4A8
:10141000E91E01610120207720688069800720464D
:1014200002D0FFF7E7FF04E000F098F8204600F054
:1014300096F8257720680169C943490717D4C16820
:10144000C943490713D46FF00401016102202077DA
:101450002068806910F4407F204602D0FFF7CAFF61
:1014600004E000F07BF8204600F079F8257720684A
:101470000169C943090716D4C168C943090712D4D1
:101480006FF008010161042020772068C06980079F
:10149000204602D0FFF7AEFF04E000F05FF82046E0
:1014A00000F05DF8257720680169C943C90617D4A3
:1014B000C168C943C90613D46FF010010161082047
:1014C00020772068C06910F4407F204602D0FFF7E3
:1014D00091FF04E000F042F8204600F040F8257744
:1014E00020680169C943C90708D1C168C943C90750
:1014F00004D1891E0161204600F032F8206801699C
:10150000C943090609D4C168C943090605D46FF067
:10151000800101612046FFF751FE20680169C9433F
:10152000490609D4C168C943490605D46FF0400192
:101530000161204600F028F820680169C943890646
:101540000BD4C168C943890607D46FF0200101613B
:101550002046BDE87040FFF732BE70BD704770474F
:1015600010B5074C01212046FFF734FA022120462E
:10157000FFF730FABDE810400248FFF7C3B800009B
:101580000010014018000020704770B5040004D01E
:1015900094F84100002510B106E0012070BD84F8E8
:1015A0004050204600F024F8242084F841002068B0
:1015B000C16821F40051C160204600F0FFF92068A5
:1015C000016921F4904101612068416921F02A01FB
:1015D00041612068C16841F40051C1606564202008
:1015E00084F8410084F842006563002070BD00006B
:1015F00030B585B0002400940194029403940068EF
:101600001449884224D11448816941F480418161A0
:10161000816901F480410491816941F00401816193
:1016200080690E4D00F0040004904FF400700090AB
:10163000022001900320039069462846FFF7DAF85C
:101640002815CDE90004694628460294FFF7D2F830
:1016500005B030BD003801400010024000080140D4
:101660002DE9F843044690F841001F4616460D4602
:10167000202802D00220BDE8F8837DB176B1002099
:101680006064212084F84100FFF7B2F9A684804607
:10169000E684A068B0F5805F02D003E00120EAE7AD
:1016A000206910B12E4600250EE000260CE08021B6
:1016B000204600F0DFF9A0B9AEB116F8010B2168A1
:1016C0004860E08C401EE084E08C43464FF000020E
:1016D00000970028EBD14FF04001204600F0CAF9F6
:1016E00030B10320C7E735F8020BC0F30800E6E786
:1016F000202084F841000020BDE7FEE73EB500242D
:1017000011480094019402940E49846001600473AE
:101710000475012505614FF460214460C161FEF745
:1017200035FF08B1FEF7AAFD0920CDE9000569469D
:1017300002940548FEF712FE002801D0FEF79EFD38
:101740003EBD0000002401401800002030B585B0E7
:10175000002418480094019402940394816941F094
:1017600010018161816901F010010491816941F0EA
:1017700008018161816901F008010491816941F0EA
:101780000401816180690C4D00F004000490012285
:1017900003212846FFF726F9032000900120CDE918
:1017A00001040220039069462846FFF723F805B09C
:1017B00030BD0000001002400010014010B586B09E
:1017C000002417480094019402940394049413494C
:1017D0000594016041F63F71C0E90114C910C0E9E8
:1017E000031480218161FFF71FFD08B1FEF746FD5C
:1017F0004FF48050009069460948FFF78DFD08B10D
:10180000FEF73CFD049404A905480594FFF7D8FCB5
:10181000002801D0FEF732FD06B010BD00040040E4
:10182000480000200C4810B50A4901604FF4E1312E
:101830004160002181600C22C160C0E90412816115
:10184000C161FFF7A2FE002803D0BDE81040FEF7FB
:1018500015BD10BD0038014090000020FEE7FEE7F6
:1018600070477047FFF7CAB830B593B02821684673
:10187000FEF75FFC14210AA8FEF75BFC00240120A0
:101880000F94022504900095102011940590109457
:10189000129407946846FFF7EDFA08B172B6FEE7B6
:1018A0000F20CDE90A044FF48060CDE90C400021FF
:1018B0000AA80E94FFF702FA08B172B6FEE70FA865
:1018C0000F951194FFF784F9002801D072B6FEE756
:1018D00013B030BD704700000148FFF78CBD000019
:1018E00048000020F0B50268164B174C174D4FF01A
:1018F0008047984205D0B84203D0A04201D0A84208
:1019000003D122F070064A683243984205D0B842AB
:1019100003D0A04201D0A84203D122F44074CA6887
:1019200022434C6922F08002224302608A68C2622C
:101930000A688262984201D109690163012141610B
:10194000F0BD0000002C01400004004000080040F1
:1019500010B5846842EA032224F47F440A432243F8
:10196000826010BD826822F070020A4342F00701D3
:101970008160704710B5036A046A24F001040462B0
:10198000846924F0F00444EA021423F00A020A43B2
:101990008461026210BD10B5036A046A24F0100469
:1019A0000462846923F0A00324F4704444EA023200
:1019B00043EA01118261016210BD000070B5044666
:1019C00000680169E26821F4405111430161216915
:1019D000A0680843616908432168CA6841F20C6342
:1019E0009A430243CA6020684169A26921F44071A8
:1019F000114341611E492068884202D1FFF704FA71
:101A000001E0FFF7F1F900EBC00101EB00126068A3
:101A100064218000B2FBF0F3B3FBF1F36FF0180622
:101A20007343B2FBF0F5B2FBF0F605EB830532230E
:101A300003EB0515B5FBF1F5B6FBF1F605F0F00586
:101A400005EB0615B2FBF0F6B2FBF0F0B0FBF1F0DF
:101A50006FF01802504306EB800003EB0010B0FB60
:101A6000F1F0216800F00F002844886070BD00008C
:101A7000003801402DE9F041984617460E460446CD
:101A8000069D27E0681C25D02DB1FEF7B1FFA0EB25
:101A90000800A8421ED920680C3050E8001F21F42D
:101AA000D07140E80012002AF5D12068143050E8C7
:101AB000001F21F0010140E80012002AF5D120208A
:101AC00084F8410084F84200002084F8400003209C
:101AD000BDE8F0812068006836EA000004D00020EC
:101AE000B842CFD00020F3E70120F9E7FEE700007D
:101AF0000FB4054B10B503A9044A029800F028F86A
:101B000010BC5DF814FB0000E51C00081400002068
:101B10000907090E002804DB00F1E02080F800141A
:101B2000704700F00F0000F1E02080F8141D7047AE
:101B300002E008C8121F08C1002AFAD17047704796
:101B4000002001E001C1121F002AFBD170470000F4
:101B50002DE9FF4F89B09B460446002506E0252865
:101B60000BD05A460B999047641C6D1C20780028B6
:101B7000F5D10DB02846BDE8F08F0027B846012208
:101B8000474900E0074314F8013F203B02FA03F005
:101B90000842F7D120782E2819D114F8010F47F008
:101BA00004072A280ED06FF02F022078A0F1300110
:101BB00009290CD808EB880102EB410100EB010870
:101BC000641CF2E70A98641C50F8048B0A90207891
:101BD0000028CED0642808D0692806D075281ED0E9
:101BE0005A460B9990476D1C58E00A994FF00A0924
:101BF00001C90A91002802DA40422D2102E039058C
:101C000004D52B218DF82010012103E0F90704D021
:101C10002021F7E78A4608AE0DE00021FAE70A998D
:101C20004FF00A0901C90A91F7E74946FEF78CFA15
:101C3000303106F8011D0028F7D1ADEB060000F1A8
:101C40002009780701D44FF00108C84502DDA8EB50
:101C5000090000E000208046002706E008A85A4658
:101C6000C05D0B9990476D1C7F1C5745F6DB04E067
:101C700030205A460B9990476D1CB8F10001A8F12D
:101C80000108F5DC05E016F8010B5A460B99904760
:101C90006D1CB9F10001A9F10109F4DC641C65E7D0
:101CA00009280100064840F6B83102888A4204D269
:101CB0004088884201D90120704700207047000009
:101CC00000000020064840F6B83102888A4204D954
:101CD0004088884201D201207047002070470000F0
:101CE0000000002013B50A23012269460248FFF7CD
:101CF000B7FC00981CBD000090000020FEF786FE97
:101D0000FFF7B2FDFFF722FDFFF78CFDFFF7F6FCB2
:101D1000FFF754FD002211461220FEF7D5FE1220D7
:101D2000FEF7C4FE0848FFF7CBFA0848FEF7A8FA0A
:101D30000648FEF7E7FC064C06A02188FFF7D8FE10
:101D40006420FEF745FDF7E748000020180000205A
:101D50000000002025640D0A0000000001020203BB
:101D60000405060708090A0B0C0D0E0F10100102DE
:101D700002030405060708090A0B0C0D0E0F1010CC
:101D8000000000000000000001020304060708092B
:101D90000000000001020304B81D0008000000203C
:101DA00018000000301B0008D01D0008180000209B
:101DB000C0040000401B00080000000001000000FB
:101DC00010000000000000000024F40000000000EB
:04000005080000ED02
:00000001FF
